:020000040800F2
:1000000000000520F12F00083D2A00083F2A0008C3
:10001000412A0008432A0008452A00080000000081
:1000200000000000000000000000000001030108C3
:10003000472A000800000000A10301080504010888
:1000400041300008413000084130000841300008CC
:1000500041300008413000084130000841300008BC
:1000600041300008413000084130000841300008AC
:10007000413000084130000841300008413000089C
:10008000413000084130000841300008413000088C
:10009000413000084130000841300008413000087C
:1000A000413000084130000841300008413000086C
:1000B000413000084130000841300008492A00085A
:1000C000413000084130000841300008413000084C
:1000D000413000084130000841300008413000083C
:1000E000413000084130000841300008413000082C
:1000F000413000084130000841300008413000081C
:10010000413000084130000841300008413000080B
:100110004130000841300008552A000841300008ED
:10012000612A00086D2A00084130000841300008AB
:1001300041300008413000084130000841300008DB
:10014000413000084130000841300008792A000899
:1001500041300008413000084130000841300008BB
:1001600041300008413000084130000841300008AB
:100170004130000841300008852A000800000000D6
:10018000413000084130000841300008413000088B
:10019000413000084130000841300008413000087B
:1001A000912A00089D2A0008A12A00084130000871
:1001B000413000084130000841300008413000085B
:0801C000413000084130000845
:1001D00010B5054C237833B9044B13B10448AFF381
:1001E00000800123237010BD4002002000000000A9
:1001F00020C5020808B5034B1BB103490348AFF300
:10020000008008BD000000004402002020C5020854
:10021000034613F8012B002AFBD1181A0138704746
:1002200001F0FF01102A2BDB10F0070F08D010F8A7
:10023000013B013A8B422DD010F0070F42B3F6D1AB
:10024000F0B441EA012141EA014122F007047FF0C4
:1002500000070023F0E80256083C85EA010586EA1B
:10026000010685FA47F5A3FA87F586FA47F6A5FA57
:1002700087F68EB9EED1F0BC01F0FF0102F0070263
:1002800032B110F8013B013A83EA010313B1F8D10E
:100290000020704701387047002D06BF35460338EF
:1002A000073815F0010F07D1013015F4807F02BF28
:1002B000013015F4C03F0130F0BC0138704700BF79
:1002C00081F0004102E000BF83F0004330B54FEA07
:1002D00041044FEA430594EA050F08BF90EA020F74
:1002E0001FBF54EA000C55EA020C7FEA645C7FEA07
:1002F000655C00F0E2804FEA5454D4EB5555B8BF2A
:100300006D420CDD2C4480EA020281EA030382EA9A
:10031000000083EA010180EA020281EA0303362D2C
:1003200088BF30BD11F0004F4FEA01314FF4801CFF
:100330004CEA113102D0404261EB410113F0004F11
:100340004FEA03334CEA133302D0524263EB4303C8
:1003500094EA050F00F0A780A4F10104D5F1200E66
:100360000DDB02FA0EFC22FA05F2801841F10001C1
:1003700003FA0EF2801843FA05F359410EE0A5F195
:1003800020050EF1200E012A03FA0EFC28BF4CF0C6
:10039000020C43FA05F3C01851EBE37101F000457C
:1003A00007D54FF0000EDCF1000C7EEB00006EEB89
:1003B0000101B1F5801F1BD3B1F5001F0CD3490813
:1003C0005FEA30004FEA3C0C04F101044FEA44526A
:1003D00012F5800F80F09A80BCF1004F08BF5FEAF1
:1003E000500C50F1000041EB045141EA050130BDD1
:1003F0005FEA4C0C404141EB0101013C28BFB1F5E3
:10040000801FE9D291F0000F04BF01460020B1FA2D
:1004100081F308BF2033A3F10B03B3F120020CDA00
:100420000C3208DD02F1140CC2F10C0201FA0CF0DE
:1004300021FA02F10CE002F11402D8BFC2F1200C43
:1004400001FA02F120FA0CFCDCBF41EA0C019040F9
:10045000E41AA2BF01EB0451294330BD6FEA040442
:100460001F3C1CDA0C340EDC04F11404C4F120022D
:1004700020FA04F001FA02F340EA030021FA04F33F
:1004800045EA030130BDC4F10C04C4F1200220FA96
:1004900002F001FA04F340EA0300294630BD21FAD4
:1004A00004F0294630BD94F0000F83F4801306BF9A
:1004B00081F480110134013D4EE77FEA645C18BF8E
:1004C0007FEA655C29D094EA050F08BF90EA020F25
:1004D00005D054EA000C04BF1946104630BD91EA1D
:1004E000030F1EBF0021002030BD5FEA545C05D120
:1004F0004000494128BF41F0004130BD14F580045F
:100500003CBF01F5801130BD01F0004545F0FE41D2
:1005100041F470014FF0000030BD7FEA645C1ABF07
:10052000194610467FEA655C1CBF0B46024650EA3E
:10053000013406BF52EA033591EA030F41F400216A
:1005400030BD00BF90F0000F04BF0021704730B5F0
:100550004FF4806404F132044FF000054FF00001C5
:1005600050E700BF90F0000F04BF0021704730B586
:100570004FF4806404F1320410F0004548BF40425B
:100580004FF000013EE700BF42004FEAE2014FEAB0
:1005900031014FEA02701FBF12F07F4393F07F4F8B
:1005A00081F06051704732F07F4208BF704793F08E
:1005B0007F4F04BF41F40021704730B54FF46074A1
:1005C00001F0004521F000411CE700BF50EA0102A4
:1005D00008BF704730B54FF000050AE050EA01024D
:1005E00008BF704730B511F0004502D5404261EBBD
:1005F00041014FF4806404F132045FEA915C3FF4FE
:10060000D8AE4FF003025FEADC0C18BF03325FEA9A
:10061000DC0C18BF033202EBDC02C2F1200300FA4B
:1006200003FC20FA02F001FA03FE40EA0E0021FA70
:1006300002F11444BDE600BF70B54FF0FF0C4CF45E
:10064000E06C1CEA11541DBF1CEA135594EA0C0F10
:1006500095EA0C0F00F0DEF82C4481EA030621EA4B
:100660004C5123EA4C5350EA013518BF52EA033586
:1006700041F4801143F4801338D0A0FB02CE4FF038
:100680000005E1FB02E506F00042E0FB03E54FF068
:100690000006E1FB03569CF0000F18BF4EF0010E60
:1006A000A4F1FF04B6F5007F64F5407404D25FEA5C
:1006B0004E0E6D4146EB060642EAC62141EA55510F
:1006C0004FEAC52040EA5E504FEACE2EB4F1FD0C51
:1006D00088BFBCF5E06F1ED8BEF1004F08BF5FEACF
:1006E000500E50F1000041EB045170BD06F0004681
:1006F00046EA010140EA020081EA0301B4EB5C042E
:10070000C2BFD4EB0C0541EA045170BD41F4801125
:100710004FF0000E013C00F3AB8014F1360FDEBF4A
:10072000002001F0004170BDC4F10004203C35DA26
:100730000C341BDC04F11404C4F1200500FA05F3A9
:1007400020FA04F001FA05F240EA020001F000424A
:1007500021F0004110EBD37021FA04F642EB0601C0
:100760005EEA430E08BF20EAD37070BDC4F10C04EA
:10077000C4F1200500FA04F320FA05F001FA04F2AE
:1007800040EA020001F0004110EBD37041F100019A
:100790005EEA430E08BF20EAD37070BDC4F12005A5
:1007A00000FA05F24EEA020E20FA04F301FA05F20D
:1007B00043EA020321FA04F001F0004121FA04F2B5
:1007C00020EA020000EBD3705EEA430E08BF20EA85
:1007D000D37070BD94F0000F0FD101F000464000BF
:1007E00041EB010111F4801F08BF013CF7D041EA41
:1007F000060195F0000F18BF704703F00046520045
:1008000043EB030313F4801F08BF013DF7D043EA15
:100810000603704794EA0C0F0CEA135518BF95EACB
:100820000C0F0CD050EA410618BF52EA4306D1D152
:1008300081EA030101F000414FF0000070BD50EA71
:10084000410606BF1046194652EA430619D094EAFB
:100850000C0F02D150EA013613D195EA0C0F05D1E5
:1008600052EA03361CBF104619460AD181EA030139
:1008700001F0004141F0FE4141F470014FF00000F1
:1008800070BD41F0FE4141F4780170BD70B54FF08C
:10089000FF0C4CF4E06C1CEA11541DBF1CEA13550C
:1008A00094EA0C0F95EA0C0F00F0A7F8A4EB0504EE
:1008B00081EA030E52EA03354FEA013100F08880E5
:1008C0004FEA03334FF0805545EA131343EA1263AE
:1008D0004FEA022245EA111545EA10654FEA002663
:1008E0000EF000419D4208BF964244F1FD0404F51C
:1008F000407402D25B084FEA3202B61A65EB030578
:100900005B084FEA32024FF480104FF4002CB6EB34
:10091000020E75EB030E22BFB61A754640EA0C00B4
:100920005B084FEA3202B6EB020E75EB030E22BFF4
:10093000B61A754640EA5C005B084FEA3202B6EB35
:10094000020E75EB030E22BFB61A754640EA9C00F4
:100950005B084FEA3202B6EB020E75EB030E22BFC4
:10096000B61A754640EADC0055EA060E18D04FEA82
:10097000051545EA16754FEA06164FEAC30343EA22
:1009800052734FEAC2025FEA1C1CC0D111F4801FEF
:100990000BD141EA00014FF000004FF0004CB6E7E8
:1009A00011F4801F04BF01430020B4F1FD0C88BF87
:1009B000BCF5E06F3FF6AFAEB5EB030C04BFB6EB92
:1009C000020C5FEA500C50F1000041EB045170BD85
:1009D0000EF0004E4EEA113114EB5C04C2BFD4EBB2
:1009E0000C0541EA045170BD41F480114FF0000E36
:1009F000013C90E645EA060E8DE60CEA135594EAB2
:100A00000C0F08BF95EA0C0F3FF43BAF94EA0C0FB4
:100A10000AD150EA01347FF434AF95EA0C0F7FF429
:100A200025AF104619462CE795EA0C0F06D152EA7D
:100A300003353FF4FDAE1046194622E750EA410661
:100A400018BF52EA43067FF4C5AE50EA41047FF472
:100A50000DAF52EA43057FF4EBAE12E74A0011D224
:100A600012F5001211D20DD56FF47873B3EB625208
:100A70000ED44FEAC12343F0004343EA505323FA14
:100A800002F070474FF00000704750EA013002D189
:100A90004FF0FF3070474FF00000704753B94AB92C
:100AA000002908BF00281CBF4FF0FF314FF0FF3076
:100AB00000F088B9ADF1080C6DE904CE00F006F83D
:100AC000DDF804E0DDE9022304B070472DE9F047CA
:100AD000089D8E4604468846002B4AD18A42174616
:100AE00062D9B2FA82F64EB1C6F1200301FA06F8D5
:100AF00020FA03F3B74043EA0808B4404FEA174E20
:100B00001FFA87FCB8FBFEF1230C0EFB118843EAA9
:100B1000084301FB0CF29A4209D9FB1801F1FF309E
:100B200080F0EA809A4240F2E78002393B449A1A08
:100B3000A3B2B2FBFEF00EFB102243EA024300FB1D
:100B40000CFC9C4509D9FB1800F1FF3280F0D680DF
:100B50009C4540F2D3803B44023840EA0140A3EB7D
:100B60000C0300211DB1F3400022C5E90032BDE8AD
:100B7000F0878B4205D90DB1C5E900010021084677
:100B8000F5E7B3FA83F1002946D1734502D38242D7
:100B900000F20581841A6EEB030201209046002DBD
:100BA000E5D0C5E90048E2E7002A00F09080B2FAFB
:100BB00082F6002E40F0A4808A1A030C4FEA174EEA
:100BC00080B2BCB20121B2FBFEFC0EFB1C2243EA48
:100BD000024304FB0CF29A4207D9FB180CF1FF38D0
:100BE00002D29A4200F2E080C4469B1AB3FBFEF2A6
:100BF0000EFB123340EA034302FB04F49C4207D984
:100C0000FB1802F1FF3002D29C4200F2CA80024679
:100C10001B1B42EA0C40A5E7C1F120068B4022FADB
:100C200006F71F430EFA01F420FA06F32EFA06FE29
:100C30004FEA1749234300FA01F81FFA87FCBEFB6D
:100C4000F9F01C0C09FB10EE44EA0E4400FB0CFE0C
:100C5000A64502FA01F209D93C1900F1FF3A80F0E9
:100C60009C80A64540F2998002383C44A4EB0E04D7
:100C70001FFA83FEB4FBF9F309FB13444EEA044464
:100C800003FB0CFCA44508D93C1903F1FF3E80F09E
:100C90008280A4457FD9023B3C4443EA0040A4EB58
:100CA0000C04A0FB02EC64457346E14662D35FD0BE
:100CB0005DB1B8EB030264EB090404FA06F622FA0C
:100CC00001F31E43CC40C5E9006400214FE7B1FBAE
:100CD000F2FC010C41EA0E4180B240EA01423B467F
:100CE00038463C46B846BE462026B1FBF7F1A2EB9B
:100CF000080241EA0C4166E7014618E710462CE776
:100D0000C6F120022EFA02F3B740B14020FA02F2F7
:100D10004FEA174E0A43B3FBFEF8BCB20EFB183382
:100D2000110C41EA034108FB04F9B04089454FEA40
:100D3000104380B23ED9791808F1FF3C01D28945B1
:100D40001FD8A1EB0901B1FBFEF909FB04F80EFB6A
:100D5000191192B242EA0142424529D2BA1809F168
:100D6000FF31C4D24245C2D2A9F102013A44BEE7E2
:100D7000F0459DD2BEEB02036CEB070C0138E14657
:100D800096E7A7EB09094944A8F1020CB1FBFEF96B
:100D900009FB04F8DBE773467FE7504666E7084641
:100DA000FDE63B44023A33E7ACF1020C3B441CE75E
:100DB00049469CE7A1EB0901C446B1FBFEF909FBDA
:100DC00004F8C4E7704700BF10B50446406820B976
:100DD0002068BDE810400EF0DFBE237A012B05D15C
:100DE0004FF0FF310EF0ACFF0023237210BD10B5A1
:100DF0000446406820B92068BDE810400EF0E8BE07
:100E0000237A1BB90EF0D8FF0123237210BD000016
:100E100010B53A4A01213A4800F0E6F90023394872
:100E2000394C1A46194600680FF045FD2378002B0F
:100E30003ED1364B364A18681268364BC3E900205B
:100E400001221A7208B10EF0B7FF334B334A18680B
:100E50001268334BC3E9002001221A7208B10EF068
:100E6000ABFF304B304A18681268304BC3E90020A2
:100E700001221A7208B10EF09FFF2D4B2D4A1868FF
:100E800012682D4BC3E9002001221A7208B10EF03E
:100E900093FF2A4B00212A4A1B682A48136001232A
:100EA000516013720068284A23701372C2E900016E
:100EB0002348FFF79CFF2448FFF799FF1E48FFF7E0
:100EC00083FF1A48FFF780FF1248FFF77DFF1F4C92
:100ED0001348FFF779FF0EF0CDFD0EF0A7FB1C487D
:100EE0000EF026FD0EF012FD23682BB1194B187879
:100EF0000EF028FC0023236010BD00BF00EC13C0DF
:100F00008C080020F0060020A4020020E806002043
:100F10001007002098020020DC060020F8060020C0
:100F20008C020020E0060020FC0600208002002049
:100F3000E4060020000700207402002004070020BF
:100F400068020020080700205C020020A8020020A0
:100F5000B8000020F8D3002008B50121002000F0DF
:100F60003BF90D48FFF743FF0C48FFF72DFF0C48F6
:100F7000FFF72AFF0B48FFF727FF0B48FFF724FF77
:100F80000A48FFF721FFC82132200EF007FDBDE817
:100F900008400EF053BB00BF800200206802002012
:100FA0005C02002074020020980200208C020020C5
:100FB00008B50121962000F00FF90C48FFF717FF44
:100FC0000B48FFF714FF0B48FFF711FF0A48FFF724
:100FD000FBFE0A48FFF7F8FE0948FFF7F5FE0EF0A2
:100FE00049FDBDE808400EF021BB00BF740200209F
:100FF000680200205C02002080020020980200208D
:101000008C02002008B50121962000F0E5F80E487A
:10101000FFF7EDFE0D48FFF7EAFE0D48FFF7D4FE9F
:101020000C48FFF7D1FE0C48FFF7CEFE0B48FFF748
:10103000CBFE0EF0FBFA0A480EF0D7F80948BDE8DF
:1010400008400EF075BC00BF680200205C02002062
:101050007402002080020020980200208C020020F0
:10106000F9D30020B800002070B50121002000F065
:10107000B3F81648FFF7BBFE1548FFF7A5FE154865
:10108000FFF7A2FE1448FFF79FFE1448FFF79CFEEF
:10109000134E1448FFF798FE13480EF049FC134C0A
:1010A0003368A3420DD0124D28780EF04BFB114B44
:1010B000204619680EF0CCFA346010B928780EF08A
:1010C000B3FBBDE870400EF0B9BA00BF9802002033
:1010D000680200205C0200207402002080020020D0
:1010E000A80200208C020020B8000020347D0308F4
:1010F000F8D30020307D030810B50D4C01210020ED
:1011000000F06AF82046FFF75FFE0A48FFF75CFE32
:101110000948FFF759FE0948FFF756FE0848FFF750
:1011200053FE2046FFF750FE064B00221A6010BD0A
:10113000680200205C02002074020020800200206F
:101140008C020020A802002070B50121962000F03A
:1011500043F81748FFF74BFE1648FFF748FE1648BE
:10116000FFF745FE1548FFF72FFE154E1548FFF710
:101170002BFE1548FFF728FE144C0EF07BFC0EF0FA
:1011800055FA3368A3420DD0114D28780EF0DAFAE3
:10119000104B204619680EF05BFA346010B92878BD
:1011A0000EF042FB7F210320BDE870400EF0A4B892
:1011B000680200205C0200208C02002074020020E3
:1011C000A8020020800200209802002008E0020807
:1011D000F8D3002004E002080A46014601480AF05C
:1011E000DBBD00BF8C08002070B58EB00C460546F4
:1011F000164600212C2203A82AF05EFCA0224FF400
:10120000F0734FF4C06001A90A96CDE901234FF4B1
:1012100088730522CDE90432FF2206920722CDE928
:1012200008024FF4A0722846CDE90B2322460AF0AB
:1012300039FD23460322074928460AF060FD21466E
:1012400028460AF092FD214696200EB0BDE8704077
:10125000FFF7C2BF78DB020808B528B9054B682143
:10126000054A06482AF0CEF84068BDE808400FF06D
:1012700087BE00BF78C5020863DB020881C502088B
:101280002DE9F8438046BDF8200091460D46C01A6E
:101290001C46FFF767F906460F46A9EB0500FFF766
:1012A00061F902460B4630463946FFF7EFFA06462B
:1012B0000F46A8EB0500FFF755F902460B463046EE
:1012C0003946FFF7B9F906460F462046FFF74AF9B7
:1012D00002460B4630463946FEF7F8FFFFF7BEFBE5
:1012E00080B2BDE8F8832DE9F04707460E4686B088
:1012F000C3F3072A501ADDB2C3F30744FFF732F9EC
:101300008046B81B89465FFA8AFAFFF72BF9064632
:101310009DF839000F46E4B2A0EB0A00FFF722F96E
:1013200042464B46FFF7B2FA32463B46FFF784F996
:10133000CDE900015046FFF715F902460B46DDE9FD
:101340000001FEF7C3FFFFF789FB5FFA80FA9DF803
:101350003A00001BFFF706F942464B46FFF796FAA4
:1013600032463B46FFF768F9CDE900012046FFF71A
:10137000F9F802460B46DDE90001FEF7A7FFFFF78B
:101380006DFBC4B29DF83800401BFFF7EBF84246F6
:101390004B46FFF77BFA32463B46FFF74DF90646D0
:1013A0000F462846FFF7DEF802460B463046394620
:1013B000FEF78CFFFFF752FB0023C0B260F3070378
:1013C0006AF30F2364F31743184606B0BDE8F087AD
:1013D000C31C064923F003030A681344B3F5806F66
:1013E0009DBF03480B60801800207047AC020020AE
:1013F000C00200201E4B4FF4000C1A6B42F4800216
:1014000013B51A6300241B6B4FF480621948042142
:1014100003F4800304620193019B174BC0E900347D
:101420008023C0E902344FF48053C0E904234FF411
:101430008043C0E906340323C0E909134FF40013C5
:10144000C0E90BC308F0D2FB22460521382008F082
:1014500071F9382008F0A0F922460521392008F05A
:1014600069F9392002B0BDE8104008F095B900BF15
:1014700000380240480700201064024001F016BD09
:1014800001F02CBC01F0ACBB01F082BD01F034BD19
:1014900001F094BD08B5084B834206D0074B40F2DB
:1014A0000111074A074829F0ADFF074B1868BDE84E
:1014B000084007F013BD00BF48070020A4C502087C
:1014C00089DB0208C8C50208C406002008B5074B1E
:1014D000834205D0064BEF21064A074829F092FFC8
:1014E000064B1868BDE8084007F02ABE88090020AE
:1014F00000C60208C1DB0208C8C50208C8060020F1
:1015000008B5074B834205D0064BF821064A074829
:1015100029F078FF064B1868BDE8084007F010BEB8
:101520008809002000C60208A4DB0208C8C502081A
:10153000C806002001F06EBC4FF47F3200214FF04E
:10154000404008B52AF0B8FA4FF47F220021024843
:10155000BDE808402AF0B0BA00FC03C000224FF4F6
:1015600000411A4808B509F031F964200DF036FE43
:10157000002117480CF076FF64200DF02FFE40216B
:10158000144809F01DF9012804D001224021114816
:1015900009F01CF964200DF021FE002201210E4803
:1015A00009F014F964200DF019FE002280210B4887
:1015B00009F00CF964200DF011FE00224FF4807147
:1015C0000748BDE8084009F001B900BF0004024027
:1015D000F4070020001C02400020024000180240D6
:1015E0000014024010B50EF0D5F8044609480DF07D
:1015F000FCFD20460DF0F3FD002108460DF012FF22
:101600000EF084F901224FF480710348BDE81040C8
:1016100009F0DCB8F9D300200014024030B595B0D1
:101620001022002102240AA80F252AF045FA0021E1
:10163000142203A82AF040FA1B4B08A81A6C42F0A7
:1016400080521A641B6C194A03F080530193019B6A
:10165000136823F4404343F480431360136801226A
:10166000129403F440430293029B4FF48033CDE97C
:1016700008234FF48003CDE90E439023CDE91053A6
:10168000052313930BF072FC00214FF4A05303A821
:10169000CDE905134FF480530321CDE9035407939B
:1016A0000BF04CFE15B030BD003802400070004019
:1016B0002DE9F04FA9B00125FFF79CFE1022002173
:1016C0001BA82AF0F9F9002408F086F84FF0104121
:1016D000C84B1BA8ADF86C501E94CDE91C1308F044
:1016E00099F817231BA88DF86D508DF874308DF87C
:1016F0007A5008F08FF8042008F07CF8BFF34F8F81
:10170000BFF36F8FBC4AC2F85042BFF34F8FBFF395
:101710006F8F536943F400335361BFF34F8FBFF3AF
:101720006F8FC2F88440BFF34F8FD2F8803043F6FA
:10173000E070C3F3C901C3F34E335B0103EA000554
:101740008A4645EA8A74BAF1010AC2F86042F8D2C0
:10175000203B13F1200FF1D1BFF34F8F536943F4B6
:1017600080335361BFF34F8FBFF36F8F07F09AFF42
:101770000024FFF753FF142200211BA82AF09CF934
:101780009E4B48F210019E481A6B012510274FF01E
:10179000030942F010029B4EDFF888B24FF00408B4
:1017A0001A631A6B02F010020292029A1A6B42F04C
:1017B00002021A631A6B02F002020392039A1A6B76
:1017C00042F001021A631A6B02F001020492049AB9
:1017D0001A6B42F040021A631A6B02F04002059243
:1017E000059A1A6B42F400721A631A6B02F40072C3
:1017F0000692069A1A6B42F008021A631A6B02F0FC
:1018000008020792079A1A6B42F004021A631A6BD5
:1018100002F004020892089A1A6B42F480621A637A
:101820001A6B02F480620992099A1A6B42F0200244
:101830001A631A6B02F020020A920A9A1A6B42F497
:1018400080721A631A6B02F480720B920B9A1A6BF5
:1018500042F080021A6300221B6B03F080030C939A
:101860000C9B08F0B3FF01220821674808F0AEFF87
:1018700001224FF48051654808F0A8FF00224FF480
:101880000151634808F0A2FF002201215F4808F0DF
:101890009DFF0022C0215F4808F098FF0022C02170
:1018A0005D4808F093FF01224FF4E0715B4808F0B7
:1018B0008DFF1BA95248CDE91B75CDE91D4908F0E4
:1018C00001FE08231BA95048CDE91B35CDE91D4475
:1018D00008F0F8FD41F201031BA94C48CDE91B3586
:1018E000CDE91D4408F0EEFD4FF401531BA9484813
:1018F000CDE91B35CDE91D4408F0E4FDC0231BA94B
:101900004448CDE91B35CDE91D4908F0DBFD8023B6
:101910001BA94148CDE91B35CDE91D4408F0D2FD96
:1019200040231BA93C48CDE91B35CDE91D4908F0F2
:10193000C9FD4FF4E0721BA93848CDE91B25CDE95C
:101940001D4408F0BFFD4FF400721BA933481D94DD
:10195000CDE91B2408F0B6FD4FF400421BA928482E
:10196000CDE91B25CDE91D4408F0ACFDFFF742FD94
:101970002B4A40231BA93046B460F461B462C6E927
:1019800000244FF4C072C6E905324FF400624FF4F0
:101990008053C6E9082302230722CDE91F93CDE92E
:1019A0001B322193C6E90387CDE91D820CF022F892
:1019B00059464FF6FF7230460194CBE90057CBE908
:1019C00002540CF037F8284607F090FE02235946DF
:1019D0004FF6FF723046CBE90037CBE902540CF0EA
:1019E00029F8082359464FF6FF723046CBE90234F6
:1019F0001AE000BF1B00000300ED00E000380240C9
:101A00000004024014070020002802400020024089
:101A1000001C02400008024000180240001402406E
:101A2000400100A0CC060020CBE900970CF002F8A2
:101A30004FF40C72594630460192019ACBF8085087
:101A4000CBF80C204FF6FF72CBE900870BF0F2FFCA
:101A500040F22B713046C24E0CF00BF843F2D2012B
:101A60004FF020426420DFF864B3116007F03EFEBF
:101A7000BC4BBD4A30463462C6E90032C6E9024575
:101A8000C6E90444C6E9064409F026F82146304672
:101A900009F05FFF21463046B44E09F080FFB4489C
:101AA000B44A18210462C0E900254FF4A062C0E9DD
:101AB0000287C0E90412C0E906440BF015F807F0EC
:101AC00071FC07F0B7FB5C2007F074FEAA4AAB4834
:101AD0003462C6E900023046C6E90245C6E904445C
:101AE000C6E9064408F0F8FF2146304609F031FF08
:101AF0002146304609F053FF284609F075FF4FF0A4
:101B0000800C9F4840239F4A84600463C0E903C35C
:101B10000823C0E90024C0E90834C0E90544C0E94D
:101B20000A4407F041FF9848984B0562036084809F
:101B3000C0E9054407F09AFE214634221BA829F08B
:101B4000BBFF934B4FF000524FF02E0E5846CBF890
:101B50001850ABF834408BF83640CBE900344FF0E6
:101B60008043CBE902320D2240F21623CBE907E293
:101B7000CBE9044940F21D1240F20E29CBE909924B
:101B800040F229124FF00509CBE90B3209F0C0FFF2
:101B9000FF204FF4F0714FF488721B942692ADF839
:101BA0009C408DF89E40CDE920044FF48060CDE943
:101BB00022094FF04040CDE91C14CDE92401CDE9C4
:101BC0001E241BA9224658460AF06CF8DBF80010C8
:101BD000DFF8FCB14A6B584622F006024A636D4AB0
:101BE000CBE90244CBE90024CBE90A44CBE90C441D
:101BF00008F0EFF929465846DFF8D8B108F0A0FA06
:101C00003A46214610A829F057FF1C22214614A865
:101C10000F94CDE90D4429F04FFF21462C221BA83B
:101C200029F04AFF5C4A5846CBF80840CBE900252A
:101C300009225A4DCBE90324CBE905440CF086F97F
:101C40004FF4805310A9584610930CF097FA584659
:101C50000CF0ACF90DA958460F94CDE90D440CF0E9
:101C600003FC602214A958461A94CDE9142922468F
:101C7000CDE91644CDE918840CF0FAF94FF400527E
:101C80001BA958461F9422942594CDE920244FF097
:101C90000072CDE91B44CDE92324CDE91D440CF0AD
:101CA0002DFC584600F0EAFD21463A461BA829F0D3
:101CB00003FF4FF080426323284616942C61AC61E9
:101CC000C5E90023CDE91444C5E9024A0CF03EF908
:101CD0004FF480531BA928461B930CF04FFA14A90C
:101CE0002846149416940CF0BFFB28460BF0B0FF66
:101CF00001F0A8F901F0A5F9404600F051FE02F00C
:101D00006BF8FFF719FC00F0CFFF254A2549304654
:101D100007F056F9012806D0234B4FF4DE71234A11
:101D2000234829F06FFB234A1E49234807F08CF80B
:101D3000012804D0214B40F2BF111C4AF0E7204A91
:101D400021461D4808F01CF91E49164807F0DEF828
:101D50000128054640D01C4B40F2C311134ADFE76F
:101D600034090020005C0040AF7470008809002036
:101D700040080020001000A0110410000054004092
:101D80007C0A002000000550CC0A002000300240F0
:101D90000068014000B0024000000140A807002098
:101DA000C8060020D11300080FC6020884DB020811
:101DB000C8C50208C40600204807002024C602083F
:101DC00095140008C006002039C602088C080020BF
:101DD000DC090020F40700200F2000F0E1FD0DF0E9
:101DE00051FE31480DF010FF304B314A214618604A
:101DF00028460DF04DFF2F4B2F4A214618602846EC
:101E00000DF046FF2D4B2E4A2146186028460DF056
:101E10003FFF2C4B2C4A2146186028460DF038FF16
:101E20002A4B2B4A2146186028460DF031FF294BDA
:101E3000294A2146186029480DF05EFE284B294AA0
:101E40002146186028480DF057FE284B284A186094
:101E5000284929480DF050FE284B294A1860294985
:101E600029480DF049FE294B294A21461860294886
:101E70000DF042FE284B294A2146186028480DF0F3
:101E80003BFE284B284A2146186028480DF034FEB6
:101E9000274B284A2146186027480DF02DFE274B76
:101EA00018600DF009FEFEE744DC0208F006002091
:101EB00034DC0208EC06002024DC0208E8060020DE
:101EC00014DC0208E406002004DC0208E00600201E
:101ED000F4DB0208DC06002050DD02087D14000857
:101EE000100700202CDD0208533000080C070020EA
:101EF00008DD0208ECDB0208811400080807002056
:101F0000E4DC0208E0DB0208851400080407002076
:101F1000C0DC020889140008000700209CDC0208CD
:101F20008D140008FC06002078DC020891140008DB
:101F3000F806002054DC0208492E0008F4060020B0
:101F40000268034B9A4201D107F0BEBB704700BF45
:101F50000010004070470000034B1A68516A536A32
:101F60005B1A8342FBD37047A807002007F0BEBB73
:101F700007B50B0C40BA49BA6A465BBAADF8000027
:101F80000A48ADF802300623ADF804107821006845
:101F900007F0A6F8012805D0054B5B21054A064845
:101FA00029F030FA03B05DF804FB00BFC80600203A
:101FB00041C60208BEDD02080FC702081FB5002394
:101FC00042BA0F480C460393042392B2782100933F
:101FD00003AB006807F03EF8012805D0094B6921E2
:101FE000094A0A4829F00EFABDF80C20BDF80E3057
:101FF00052BA5BBA120412FA83F3236004B010BD24
:10200000C806002041C60208ADDD02080FC702085D
:1020100037B5154642BA13480C46AB0092B200934E
:102020000B460068782107F015F8012807D12346F0
:102030000022954203F1040307D803B030BD0A4BD8
:1020400078210A4A0A4829F0DDF933F8040C0132F4
:1020500033F8021C40BA49BA000410FA81F143F87F
:10206000041CE6E7C806002041C6020891DD02080C
:102070000FC702080246084808B500680B467821D9
:1020800007F02EF8012805D0044B8A21044A0548A0
:1020900029F0B8F908BD00BFC806002041C60208F3
:1020A00074DD02080FC7020810B5204C00224FF45F
:1020B0000051204608F08AFB012007F017FB01229F
:1020C0004FF40051204608F081FB012007F00EFB81
:1020D00001228021164808F079FB6420FFF73CFFBD
:1020E00001221448114608F071FB6420FFF734FF09
:1020F00020460122402108F069FB01224FF4807143
:102100000D4808F063FBC820FFF726FF00210B48AD
:102110000CF05AF96420FFF71FFF01224FF4004131
:102120000748BDE8104008F051BB00BF001C02404A
:10213000001802400020024000140240F407002072
:10214000000402400D4B82B00F216FF001001A6CA9
:1021500042F080521A641A6C02F080520092009A87
:102160005A6C42F480425A6400225B6C03F4804350
:102170000193019B02B007F0DDBA00BF00380240B6
:10218000026882B0084B9A420BD1D3F8302803F58D
:10219000006342F480521A631B6B03F48053019373
:1021A000019B02B0704700BF003002402DE9F041B2
:1021B0008CB007461422002107A829F07DFC3A685C
:1021C000514B9A4240F09D80504B03260D244FF016
:1021D00002085A6B07A94E48002542F001025A63D3
:1021E0005A6B02F001020192019A1A6B42F010023E
:1021F0001A631A6B02F010020292029A1A6B42F0F2
:1022000008021A631A6B02F008020392039A1A6B0F
:1022100042F040021A631A6B02F040020492049AE0
:102220001A6B42F080021A631A6B02F08002059268
:10223000059A1A6B42F001021A631B6B03F001034B
:102240000693069B6023CDE90738CDE90A6408F0C0
:1022500039F9082307A92F480B94CDE90738CDE9B0
:10226000095608F02FF94FF4007307A92A480B9478
:10227000CDE90738CDE9095608F024F94FF4BC43FD
:1022800007A926480B94CDE90738CDE9095608F08F
:1022900019F9502307A922480B94224CCDE907389D
:1022A000CDE9095608F00EF94FF000731E4A4FF4BD
:1022B00080614FF480404FF4003CA662C4E90023E3
:1022C0004FF48053C4E904134FF48073C4E9060348
:1022D00004232046C4E908C34FF40003C4E90255AF
:1022E000C4E90B3507F082FC08B1FFF733FE4E203E
:1022F00000220521BC64A76307F01CFA4E2007F0FA
:102300004BFA0CB0BDE8F0810000055000380240E7
:1023100000100240000C024000180240001C024065
:10232000000002401C0A0020286402400E4B07B542
:1023300002689A4215D1A3F5F04305215A201A6B81
:1023400042F400021A6300221B6B03F400030193A2
:10235000019B07F0EFF95A2003B05DF804EB07F09A
:102360001BBA03B05DF804FB00B0024010B5AAB080
:1023700004461422002104A829F09EFB8422002197
:1023800009A829F099FB2368334A934235D14FF4C9
:10239000804309A809930BF0A3F808B1FFF7DAFD11
:1023A0002E4C4FF440704FF0010C04A9236B43F006
:1023B00002032363236B03F002030093009B1223A9
:1023C000CDE9040303232648CDE906C3042308937B
:1023D00008F078F8236C1F200022052143F4001335
:1023E0002364236C03F400130193019B07F0A2F90B
:1023F0001F2007F0D1F92AB010BD1A4A9342FAD132
:102400004FF4803309A809930BF06AF808B1FFF77D
:10241000A1FD124C4FF4C07201211348236B43F00D
:1024200080032363236B03F080030293029B122338
:10243000CDE904230323CDE90613042304A908935B
:1024400008F040F8236C43F400032364236C03F486
:1024500000030393039BCEE7005400400038024082
:1024600000040240005C0040001C0240174A08B50E
:102470000368934214D102F5F2324FF4807114488C
:10248000136C23F40013136408F000F910484FF4A0
:10249000007108F0FBF81F20BDE8084007F08AB97A
:1024A0000C4A934210D102F5EE3280210A48136C97
:1024B00023F40003136408F0E9F84FF48071064830
:1024C000BDE8084008F0E2B808BD00BF0054004075
:1024D00000040240005C0040001C024070B5B0B037
:1024E0000446142200210AA829F0E6FA84220021D9
:1024F0000FA829F0E1FA22686C4B9A4240F0D48090
:1025000008230FA80F933C2314930223CDE915331E
:10251000012319930AF0E4FF08B1FFF71BFD644B98
:10252000002402250E265A6C0AA9624842F08062F5
:102530005A645A6C02F080620192019A1A6B42F05E
:1025400010021A631A6B02F010020292029A1A6BBE
:1025500042F040021A631A6B02F040020392039A9F
:102560001A6B42F400721A631A6B02F4007204923E
:10257000049A1A6B42F008021A631A6B02F00802FE
:102580000592059A1A6B42F004021A631A6B02F064
:1025900004020692069A1A6B42F480621A631A6B5E
:1025A00002F480620792079A1A6B42F480721A63EF
:1025B0001A6B02F480720892089A1A6B42F00102B8
:1025C0001A631B6B0E9603F001030993099B1023FA
:1025D000CDE90C44CDE90A3507F074FF4FF4005300
:1025E0000AA935480E96CDE90A35CDE90C4407F025
:1025F00069FF4AF6FC730AA930480E96CDE90A3500
:10260000CDE90C4407F05EFF40230AA92C480E9642
:10261000CDE90A35CDE90C4407F054FF4FF480634F
:102620000AA928480E96CDE90A35CDE90C4407F0F1
:1026300049FFF7230AA924480E96CDE90A35CDE9CA
:102640000C4407F03FFF4FF480530AA91A48CDE924
:102650000A350923CDE90C440E9307F033FF4FF4FC
:102660008C430AA919480E96CDE90A35CDE90C44E8
:1026700007F028FF04230AA915480E96CDE90A356C
:10268000CDE90C4407F01EFF22460521582007F033
:1026900051F8582007F080F859202246052107F00C
:1026A00049F8592007F078F830B070BD0068014053
:1026B000003802400010024000180240002402408E
:1026C000000C0240000802400028024000200240A6
:1026D00000000240142200212DE9F0418AB0044696
:1026E0000DEB020029F0E8F922682C4B9A4251D1F7
:1026F0002B4B0225032409269A6B4FF0040805A9E9
:10270000284842F0020200279A639A6B02F0020204
:102710000192019A1A6B42F010021A631A6B02F0CE
:1027200010020292029A1A6B42F002021A631A6BAA
:1027300002F002020392039A1A6B42F008021A6333
:102740001B6B03F008030493049BCDE90585CDE9D9
:10275000084607F0B7FE402305A91348CDE9053523
:102760000A23CDE90774099307F0ACFE05A90E48CA
:102770000996CDE90585CDE9077407F0A3FE4FF46E
:10278000605305A909480996CDE90535CDE90774D7
:1027900007F098FE0AB0BDE8F08100BF001000A06D
:1027A000003802400010024000040240000C0240C9
:1027B000026808B50B4B9A4213D10B4A04210B480F
:1027C000936B23F00203936307F060FF44210848F2
:1027D00007F05CFF4FF460510648BDE8084007F081
:1027E00055BF08BD001000A0003802400010024094
:1027F00000040240000C024010B588B004461422C8
:10280000002103A829F058F92368194A93420BD1F3
:10281000184B5A6C42F001025A645B6C03F00103DE
:102820000093009B08B010BDB3F1804FFAD103F5BF
:102830000E3303A910481A6C42F001021A641A6C94
:1028400002F001020192019A1A6B42F001021A632E
:102850004FF400421B6B03F001030293029B02231F
:10286000CDE903230123079307F02CFEDAE700BF2D
:1028700000000140003802400000024010B586B060
:1028800004461422002101A829F016F922680E4BF3
:102890009A4216D103F59C3301A90C481A6B42F0F9
:1028A00001021A634FF480721B6B03F00103009363
:1028B000009B0223CDE9012304930123059307F034
:1028C00001FE06B010BD00BF000001400000024044
:1028D000F0B5002387B00393294B1E68002E4DD11D
:1028E0000122022703250C241A6001A9254B264842
:1028F0009A6B42F001029A639B6B03F00103009311
:10290000009B4FF68373CDE90454CDE9013707F0FE
:10291000D9FD48F2331301A91C480594CDE90137CC
:10292000CDE9036507F0CEFD4CF2037301A9184809
:102930000594CDE90137CDE9036507F0C3FD4FF6F6
:102940003F0301A913480594CDE90137CDE903659B
:1029500007F0B8FD282301A90F480594CDE90137F8
:10296000CDE9036507F0AEFD082301A90B480594E6
:10297000CDE90137CDE9036507F0A4FD07B0F0BD4F
:10298000F00A002000380240001002400018024007
:10299000000C024000140240001C024000080240EB
:1029A000214B1A6C42F0100270B588B01A641B6C8F
:1029B000054601A903A803F010030293029B0AF045
:1029C00071FD069B4BBB0AF05DFD184E184B336042
:1029D00040F2E733F360174BB0FBF3F3013B3046B3
:1029E000736000233361B360B3610BF0AFFA044648
:1029F00080B930460BF066F9044658B9362006F027
:102A0000CBFE0F2D0DD822462946362006F092FE29
:102A1000094B1D60204608B070BD0AF033FD400030
:102A2000D3E70124F6E700BF00380240F40A002093
:102A30000010004040420F00B40000207047FEE745
:102A4000FEE7FEE7FEE77047014808F0EBBA00BF7B
:102A50008809002001480BF078B900BFF40A002073
:102A6000014807F0CFB900BF48070020014807F030
:102A7000C9B900BF1C0A0020014809F0BFBB00BF54
:102A8000FCCB0020014807F04DB800BF7C0A0020B5
:102A9000014809F0AAB800BF8C080020FFF7F8BF72
:102AA000014807F0C2BA00BFDC09002001207047CE
:102AB00008B529F001F9162303604FF0FF3008BD77
:102AC00008B529F0F9F816230360FEE770B50D4646
:102AD00014460E46731B9C4201DC204670BDAFF3CA
:102AE000008006F8010BF5E770B50D4614460E465A
:102AF000731B9C4201DC204670BD16F8010BAFF33E
:102B00000080F5E74FF0FF3070474FF4005300208E
:102B10004B60704701207047002070470B4A034606
:102B2000116810B509B90A491160106809490A4CC1
:102B30000344091B8B4206D929F0BEF80C2303601D
:102B40004FF0FF3010BD1360FCE700BF400B0020CA
:102B50003013022000000520000A0000010F10B50C
:102B600002D0012917D010BDC0F30A02B2F5A07F30
:102B70000CD2C0F3CA20B0F5887F07D2114B4FF4B6
:102B8000A0711B6801FB0033022199540E4A13689F
:102B900001331360E7E7C0F30A02B2F5A07F0BD25E
:102BA000C0F3CA20B0F5887F06D2064B4FF4A0745C
:102BB0001B6804FB00339954034A53680133536084
:102BC000D1E700BF04000020648B0020034B18688D
:102BD00018B103685868C0F500507047608B00203A
:102BE0002DE9F84F836807462A4D186806F0C4F9A6
:102BF0007A68294B1A604FF400532A46002138683E
:102C000006F01AFF044620BB82460546DFF8948092
:102C1000DFF8809006F064FDA0EB0A02322A0DD99D
:102C2000D8F800308246D8F804100B441B491C1B0E
:102C30000B60B4FBF2F41A4A14601C467B681B68F4
:102C40005E68C6F50056B54207D103200EF072FD4E
:102C50000CE00A2006F04AFDCDE70ED8AB465E45F3
:102C600010D8731BB54288BF0023EE183546D1E754
:102C700059F825000135FFF771FFB5F5005FF7D36F
:102C80000025EBE759F82B000BF1010BFFF766FF6E
:102C9000E5E700BF600B0020608B0020480B0020A0
:102CA0004C0B0020648B002010B54FF4AA34002197
:102CB0000748224628F000FF22460021054828F058
:102CC000FBFE224600210448BDE8104028F0F4BE77
:102CD00000E817C0009416C0004015C02DE9F04769
:102CE0000022A4B00327DFF82081064610AB11466E
:102CF000012000970DF05AFDC8F8000028B93B4BA1
:102D000073213B4A3B4828F07DFB2C22002105A87B
:102D1000356828F0D1FEA0224FF4F0734FF4C06064
:102D2000354C03A9DFF8E4900C94DFF8E4A0CDE97A
:102D300003234FF488730522CDE90632FF2208925F
:102D40000722CDE90A024FF4A0722846CDE90D23EF
:102D5000012208F0A7FF01233A462849284608F037
:102D6000CEFF2846264D012108F0FFFF4FF0FF312E
:102D7000D9F800000DF0ECFF012803D0214B7C2195
:102D80001B4ABFE70DF0CEFADAF80070CAF800501F
:102D90000DF0ECFA0221306809F03AF833680025AA
:102DA00064211B68D8F80000D3F82C21C3F82C51FB
:102DB000C3F82C710DF0CCFF2B462A462946D9F8D2
:102DC00000000DF078FD012803D00E4B9521084A34
:102DD00098E729464FF4AA322046254628F06CFE93
:102DE0000C203C460EF0A6FCC0E700BF3EC7020820
:102DF000D0DD02084EC7020800E817C0E0DD020877
:102E0000009416C041C602086C8B0020F00600201A
:102E100004000020002307B5019301A9094B18689D
:102E20000DF099FE019B4BB14FF0E0234FF0805223
:102E3000C3F8042DBFF34F8FBFF36F8F03B05DF85E
:102E400004FB00BF6C8B00202DE9F0410025164EDD
:102E50000020FFF7BBFE85428ABF00F50054441BEB
:102E6000641B1CB901200EF065FCF1E7102C06EB89
:102E7000850828BF10242B19B3F5005F88BFC5F55E
:102E80000054A700BFB23946404600F0F5FF0128C4
:102E900007D00028DCD12544B5F5005F28BF002508
:102EA000D6E70EF047FCEEE7600B002038B50F4C7C
:102EB0000F4D4FF0FF3120680CF042FF0CF05DFC2D
:102EC00082034FEA10434FF0000054BF022303F087
:102ED00001032B700CF0D8FC06480CF0DCFC2068D9
:102EE0000CF06AFF0F200EF025FCE2E7E806002058
:102EF000808B0020888B0020DFF88C800024DFF896
:102F00008C901D4D80B54FF0FF31D8F800000CF0CB
:102F100017FF1A4E0CF0DCFC192280B2A9F8000051
:102F2000B9F800309BB2B3FBF2F3154A13800CF0F2
:102F3000D9FC30600CF0E0FC82463068FDF702FB03
:102F400006460F465046FDF7FDFA02460B46304650
:102F50003946FDF79BFC22462B46FDF76DFBFDF73E
:102F60007DFD084B80B21880D8F800000CF024FFDB
:102F70000F200EF0DFFBC6E700005940708B0020E9
:102F8000848B0020828B0020E0060020748B0020C0
:102F9000084C094D08B54FF0FF3120680CF0D0FE09
:102FA00028460CF078FC20680CF006FF0F200EF08D
:102FB000C1FBF0E7E4060020888B002038B50A4CFE
:102FC0000A4D4FF0FF3120680CF0BAFE0CF0D5FB33
:102FD000030C80B22B60686020680CF0EDFE0320CB
:102FE0000EF0A8FBEDE700BFDC060020788B002088
:102FF000DFF834D0002103E00C4B5B584350043120
:103000000B480C4B42189A42F6D30B4A02E00023BD
:1030100042F8043B094B9A42F9D306F05BFA28F0D8
:1030200051FEFEF745FB704700000520082F0408FD
:103030000000002034020020400200203013022053
:10304000FEE7704708B500F08BFDBDE8084000F0D2
:1030500015BD00F087BD40687047416070470000B3
:103060004FF0E022D2F8FC3D43F08073C2F8FC3D03
:10307000054B064AD3F8B01F0A43C3F8B02F1A68AD
:1030800042F001021A607047001000E055CEACC556
:10309000521A02EB5302B2FBF3F07047014B58682F
:1030A000704700BF001000E0704710B504460C21C7
:1030B00028F05EF9204610BD036810B51B69044670
:1030C00031B19847A26863689B1A0344636010BDDE
:1030D0009847A060FBE70000024B7020024A136093
:1030E000DB68184788000020C88B0020704710B5A7
:1030F0000446042128F03CF9204610BD73B50E4E5D
:103100000D461446336813B9002002B070BD1B6928
:10311000702098470028F7D03368702001AA0DF17D
:1031200006015B699847BDF8043001202B60BDF8AB
:1031300006302360E9E700BFC88B00207FB501237C
:103140008DF817204FF47A72CDE901320DF1170294
:1031500000920A460146054807F0ACFD10B103484D
:1031600007F00BFD07B05DF804FB00BF3409002039
:103170007FB500230A464FF47A718DF8173001238A
:10318000CDE901310DF1170100910146054807F025
:103190006BFE10B1034807F0F0FC9DF8170007B074
:1031A0005DF804FB34090020032823D8DFE800F091
:1031B000020B131A104B102110481A68B2FA82F24F
:1031C000520907F003BB0C4B40215A68B2FA82F255
:1031D00052090B48F5E7084B80219A68B2FA82F24F
:1031E0005209F6E7044B40210648DA68B2FA82F247
:1031F0005209E6E7704700BFCC8B00200004024074
:103200000008024000180240032823D8DFE800F03D
:10321000020B131A104B102110481A68003A18BFFD
:10322000012207F0D3BA0C4B40215A68003A18BF6C
:1032300001220B48F5E7084B80219A68003A18BF35
:103240000122F6E7044B40210648DA68003A18BF2D
:103250000122E6E7704700BFCC8B0020000402404B
:10326000000802400018024003280FD8DFE800F0F1
:103270000206090B1021064807F0ADBA40210548A7
:10328000FAE78021FBE740210348F5E7704700BFDC
:1032900000040240000802400018024008B503285C
:1032A00013D8DFE800F0020A0D0F1021084807F0DC
:1032B00087FA431E5842584108BD40210548F6E7A9
:1032C0008021FBE740210448F1E70020F1E700BF3F
:1032D00000040240000802400018024070B5084D8A
:1032E00000240126E0B2FFF7D9FF18B12B68012BAB
:1032F00018BF2E6001340435052CF3D170BD00BF1A
:10330000CC8B0020012380F8781080F8793070474A
:103310000020704741640039024B18BF0121197029
:10332000704700BFF106022000207047836B0BB18D
:103330000846184770474FF6FF70704740680368AB
:103340009B6918477047000038B5044600F0D2FC6E
:1033500023682046D3F88850074BD4E90F12A847BA
:103360000023064D84F84A302846FFF779FE0123F2
:10337000256184F8703038BD000000C0DC8B00206F
:1033800000F082BC00F086BC70B500F0D1FC1049A2
:103390000023C1F88430BFF34F8FD1F8803043F65B
:1033A000E074C3F3C900C3F34E335B0103EA0406C0
:1033B000024646EA8275013AC1F87452F9D2203BBE
:1033C00013F1200FF2D1BFF34F8FBFF36F8F70BD9A
:1033D00000ED00E000F0AEBC00F032BC00F0ACBC90
:1033E00000F0B4BC00F036BC10B5044611F066F82D
:1033F00023682046D3F8AC30BDE81040184710F0E1
:10340000BBBA10B504467C2127F0B2FF204610BDA0
:1034100090F834100D4B10B590F878401A788C4223
:1034200009D03AB90A490B4A088814881080012249
:103430000C801A7010BD002AFCD0064A044914887A
:1034400008880C8010800022F3E700BFEA06022003
:10345000E8060220E606022070B50D46194635B989
:10346000094B40F2D221094A094827F0CBFFC0E9B5
:103470000F52003A074B18BF01221A700368BDE8CB
:103480007040D3F88C3018477BC70208B3C70208D6
:1034900001C80208F006022008B5094B1B888B42C0
:1034A00003D8084B1B88934205D9074B9E21074A36
:1034B000074827F0A7FF074B1980074B1A8008BD64
:1034C000E6060220E806022046C80208A9C802084B
:1034D00001C80208EC060220EE060220034690F81E
:1034E0007A0018B1586803681B68184770470000D5
:1034F000034B00225A609A60024A1A60704700BF6C
:10350000DC8B0020F4DD02080121002208B508460A
:103510000CF0BEFB0A4B186028B90A4B28210A4A56
:103520000A4827F06FFF0022042101200CF07AFCEA
:10353000074B186018B9074B2C21034AF0E708BD68
:10354000EC8B0020ECC8020835C9020864C90208E7
:10355000E88B0020B5C90208024B4FF0FF31186814
:103560000CF0EEBBEC8B0020014B18680CF024BC77
:10357000EC8B0020024B002118680CF0E1BB00BF6F
:10358000EC8B0020FFF7F0BF0023034803491A46E5
:1035900000680CF08DBC00BFE88B00200800002004
:1035A00013B50023074C01A91A4620680CF0C2FC91
:1035B0004FF0FF33002201A920680CF0BBFC02B0E1
:1035C00010BD00BFE88B002003685B6C184701202A
:1035D000704703689B6A18470D4B82B01A6B42F420
:1035E00000021A631A6B02F400020192019A1A692E
:1035F00042F400021A611A6922F400021A61054BB2
:10360000054A1A614FF08062044B9A6002B070471D
:1036100000380240DC0900200D39000800E100E01C
:1036200040F6EF7070470000054B4FF0806203607A
:10363000044BC3F88820BFF34F8FBFF36F8F7047E1
:103640000CDF020800E100E010B504464FF45A61B7
:10365000FFF7EAFF204627F08BFE204610BD000052
:1036600008B50A2809D8DFE800F006100E08080897
:10367000081010101000022008BD054B8621054AD5
:10368000054827F0BFFE0020F6E70120F4E700BF61
:10369000F7C9020812CA02085DCA020870B58D7F18
:1036A0000C462846FFF7DCFFA68AE28A1A4B42EA5C
:1036B0000642216958635A64628BD963921B1A646B
:1036C0002668082E17D19A611A61E27F1AB140F07C
:1036D0007F4040F480305862104A237F42EA036200
:1036E0000D4BDA61E26822F07F421A620C4A59619E
:1036F000D9601A6070BD0022D8611A61E26825B9EC
:1037000092B29A63044B074AF3E7217F22F07F428B
:1037100042EA0162F5E700BF00B002400900010083
:10372000010202000102030008B50B280BD8DFE8F4
:1037300000F00612100A0A0A0A08080808080220FF
:1037400008BD0520FCE7054B6521054A054827F023
:1037500059FE0020F4E70120F2E700BFF7C9020894
:10376000ACCA02085DCA02082DE9F04191F81D803B
:103770000D464046FFF7D8FFAF7F06463846FFF7B5
:10378000D3FF04463846FFF76BFFA98A6A8B574B75
:10379000521A1A649A612A8B521A1A61EA8A586379
:1037A00042EA014269685A642A69DA63D960296881
:1037B000802932D016D8202978D0402900F08B807B
:1037C000042900F0888095F82010484B19B146F084
:1037D0007F4646F48036B845DE6100F083805A614A
:1037E000434A4FE0B1F5807F05D0B1F5007FEAD1C3
:1037F000287F404901E0287F3F4941EA0061D961C3
:10380000E96821F07F411962E97F19B144F07F44F2
:1038100044F480345C62354B59E0AF68E87F391D71
:10382000D962297F46EA016646F40036DE6118B1A6
:1038300044F07F4444F480345C622C483B7842611D
:1038400043B1012B21D02D4B4FF497712C4A2D48B9
:1038500027F0D8FDC3697A8823F47F43013A23F027
:10386000100343EA02230122C361204BD96941F0CE
:103870002001D961D9698906FCD410219960002AF8
:10388000AED0214A1A60BDE8F081C369B1F1FF02F0
:10389000798823F47F4318BF0122013923F01003F4
:1038A00043EA012343F01003C361DEE795F82010DB
:1038B00079B1297F46EA016141F48031D961E97F1C
:1038C0000A4B19B144F07F4444F480345C625A617D
:1038D000D7E7DE61F3E7297F46EA016141F4003171
:1038E000D96191E740F20122CCE700BF00B002406D
:1038F00001020100090002000A000200F6CA0208E3
:1039000010CB02085DCA020801020200024B1B68CC
:10391000586803685B691847F406022070B50446CE
:103920000A4B0C30002625466022606026726672C3
:1039300045F8203B294610F019FF04F55A63EE6064
:1039400024359D42FBD1204670BD00BF0CDF02082C
:10395000012070470C2070470C2303FB0100083046
:1039600070470C2303FB01000830704701207047AB
:1039700041F6D820704741F6D82303FB01000830F8
:10398000704741F6D82303FB01000830704701203F
:1039900070471020704700EB01100830704700EBB3
:1039A000011008307047084600F090BD034B10B579
:1039B000044603600FF040FA204610BDC4DF020841
:1039C00010B50446FFF7F2FF1421204627F0D0FC83
:1039D000204610BD034B10B5044603600FF02CFACF
:1039E000204610BD90DF020810B50446FFF7F2FF35
:1039F0004FF4D751204627F0BBFC204610BD0000F5
:103A0000034B10B5044603600FF016FA204610BDB4
:103A10005CDF020810B50446FFF7F2FF18212046CC
:103A200027F0A6FC204610BD094B10B504460360E4
:103A300000F5D8500C30FFF7B9FF04F12C00FFF768
:103A4000C9FF04F11400FFF7DBFF204610BD00BFE3
:103A5000F8DF020808B50248FFF7E6FF08BD00BF1F
:103A60009C9A002010B50446FFF7DEFF4FF4E451A6
:103A7000204627F07DFC204610BD00002DE9F341D3
:103A800000F04CFC0024054600F04CFC23460146A7
:103A90002246284600941AF005F8264B264A20466E
:103AA000264D1A6004F0EEFA254819F0B3FE2B6893
:103AB000BFF35B8FDB0737D4284627F05BFC98B356
:103AC000204C214B04F12C0804F11400236008F56C
:103AD000D7576060C4F8088007F11806E7602661D0
:103AE0000FF0ACF9194B404663610FF0A7F9184B82
:103AF0003846E3620FF0A2F904F58053154A04F545
:103B0000D950C3F80C2B04F055FB224604F5D951CB
:103B1000304604F045FB304600F0D8FC0E4827F054
:103B20008FFC284627F032FC0C4802B0BDE8F0417B
:103B3000FFF70ABC580702206C8C0020989A0020DE
:103B40000C0000209C9A0020F8DF02085CDF0208CD
:103B500090DF0208C4DF0208553A0008F08B00200D
:103B60007047000001480FF070BF00BFF08B0020CD
:103B700070B5224E224B234C3046234D2360FFF775
:103B8000CDFE28461EF08AFA204B00224FF48071A9
:103B90001F481A8683F858205A6683F870205A679F
:103BA000DC60C3E912121B49C3E91A121A4999676A
:103BB0001A490B604FF4F0710180194801804FF4ED
:103BC00088711848C3E90422C3E90622C3E9082220
:103BD000C3E90A22C3E90E22C3E91022C3E9142271
:103BE000C3E91722C3E9016501800F4883F8342037
:103BF00001800E490A700E4A1A6070BDF48C0020D4
:103C00001CDE0208949A0020708C0020F08B0020AB
:103C1000E60602200100000100000101F406022076
:103C2000EC060220E8060220EE060220EA06022048
:103C300034DE02080148FFF7F7BC00BFF48C002017
:103C4000034B902283F85A2383F85823704700BF10
:103C500000E100E0094A0A49D3680A48C3F30A03AD
:103C6000013B9BB20B801169C1F30A01013901804C
:103C70001364536B43F001035363704700680140C2
:103C80001EB700201CB70020014BD3F8AC007047D2
:103C900000680140024B0122C3F8AC105A62704721
:103CA00000680140124A5369DB0370B51ED500233A
:103CB000C2F88430BFF34F8FD2F8803043F6E074FF
:103CC000C3F3C900C3F34E335B0103EA04060146A4
:103CD00046EA81750139C2F87452F9D2203B13F1DA
:103CE000200FF2D1BFF34F8FBFF36F8F70BD00BFB6
:103CF00000ED00E070B504460FF093FE23685D6EA2
:103D000016F056F801462046A8472368054A204683
:103D1000D3F888500023A2F5FF21AC46BDE87040DF
:103D2000604700BF00F40BC00FF062BE0FF06CBE26
:103D30000FF028BE0FF097BF034B4FF080629A60E0
:103D40004FF080729A60704700E100E0084B4FF03E
:103D50008062C3F88820BFF34F8FBFF36F8F4FF09F
:103D60008072C3F88820BFF34F8FBFF36F8F704707
:103D700000E100E010B5144C236823B3134B144A40
:103D80001B6C11888B4213D1124B198808F024F850
:103D9000226892F86A30013382F86A30FFF7F4FB48
:103DA000206810F08BFB0020BDE81040FFF7FCB945
:103DB00008F012F8206803681B6A98470020BDE8E5
:103DC0001040FFF721BA10BDF40602200068014040
:103DD0001EB700201CB7002008B500220E490F486E
:103DE0000EF0A6FB08B1FEF7B5F80D490B480EF032
:103DF000B2FB08B1FEF7AEF80A4908480EF042FBE4
:103E000008B1FEF7A7F805480EF0BEFB18B1BDE8F3
:103E10000840FEF79FB808BD6400002020B70020CE
:103E2000140100201000002000207047002070477F
:103E30000020704710B5054C014620460EF03BFBB4
:103E400020460EF05FFB002010BD00BF20B7002011
:103E500010B5064C0022064920460EF01EFB05490F
:103E600020460EF028FB002010BD00BF20B7002028
:103E7000FCB90020FCC1002010B5094C0A46D4F85A
:103E8000BC32D3F8143243B9014620460EF005FB8C
:103E90002046BDE810400EF01ABB012010BD00BF47
:103EA00020B70020122301480B80704750000020EB
:103EB000042301480B807047400000200C23014878
:103EC0000B80704744000020002370B54D1C1E4637
:103ED000040FB0F1204F4FEA001034BF30343734B4
:103EE00001F8134005F813600133DCB2A242EFD8A9
:103EF00070BD00001A2310B50B800A4BD3F82004C4
:103F0000D3F8282480180AD0D3F82444082206497C
:103F1000FFF7DAFF042210312046FFF7D5FF0348F0
:103F200010BD00BF00F0F01F26000020240000207C
:103F300010B5044C0A46044821460EF0FEFE204609
:103F400010BD00BFFCC900204ECB020810B5044CC8
:103F50000A46044821460EF0F0FE204610BD00BF80
:103F6000FCC9002061CB020810B5044C0A46044885
:103F700021460EF0E2FE204610BD00BFFCC9002025
:103F800077CB020810B5044C0A46044821460EF0CF
:103F9000D4FE204610BD00BFFCC9002082CB020821
:103FA00030B5ABB004461422002104A827F084FDEC
:103FB0008422002109A827F07FFD2368B3F1A04FD8
:103FC0003BD14FF4001309A8099309F089FA08B10D
:103FD000FDF7C0FF1A4C4FF4C052002504A9236B13
:103FE000184843F001032363236B03F0010301939B
:103FF000019B0223CDE904230323CDE906530A23C1
:10400000089306F05FFA636B43202A46052143F0CC
:1040100080036363636B03F080030293029B636C12
:1040200043F480436364636C03F480430393039B12
:1040300005F080FB432005F0AFFB2BB030BD00BF87
:10404000003802400000024000F2C441D0F80405EC
:104050000EF0ACBA242303FB0103D0F80405D3F817
:104060008C220EF0D3BA242303FB0103D0F80405FD
:10407000DA6C0EF000BBD0F804050EF096BBC168F8
:1040800010B5044621B1022901D0FDF763FF0121DB
:10409000D4F804050EF071FBD4F80405BDE8104017
:1040A0000EF03CBB10B50446D0F804050EF068FBDA
:1040B0002268D2F8003E43F00103C2F8003E236AB2
:1040C00023B1034A136943F00603136110BD00BF17
:1040D00000ED00E0D0F804050EF05CBBD0F804055C
:1040E0000EF083BBD0F804050EF06CBBD0F80405CD
:1040F0000EF08EBBD0F804050EF08CBB08B503782B
:10410000024633BB14484FF0A041C0F80425C2F862
:10411000C80206220362C0E900120222C0E903239A
:10412000C0E906230122C0E90B33426207F085FE95
:1041300008B1FDF70FFF8021074808F0E2FB40229D
:104140000021054808F0BEFB80220121024808F04A
:10415000B9FB002008BD00BFFCCB002011F0800F90
:10416000D0F8C8324FF0240217BF01F07F0102FBE4
:10417000013302FB013393F83E0008BF93F87E023F
:104180007047D0F8C80207F092BF000010B504468F
:1041900011B1012916D010BD036A33B1FDF73EFA03
:1041A000124A136923F0060313612268D4F8040548
:1041B000D2F8003E23F00103BDE81040C2F8003EF3
:1041C0000EF0E8BA0268D0F80405D2F8003E43F0D9
:1041D0000103C2F8003E0EF0D3FA236A002BDAD0B6
:1041E000024A136943F006031361D4E700ED00E0CF
:1041F00018B102280CBF01200320704708B5D0F881
:10420000C80207F0A0FEBDE80840FFF7F1BF10B5F7
:104210001446D0F8C8021A46234607F0BDFEBDE892
:104220001040FFF7E5BF08B5D0F8C80207F0ECFE74
:10423000BDE80840FFF7DCBF08B5D0F8C80207F0BA
:104240005EFFBDE80840FFF7D3BF08B5D0F8C8024D
:1042500007F08DFFBDE80840FFF7CABF08B5D0F8EA
:10426000C80207F085FEBDE80840FFF7C1BF08B5EA
:10427000D0F8C80207F023FFBDE80840FFF7B8BF39
:1042800008B5D0F8C80207F0EEFEBDE80840FFF719
:10429000AFBF704708B50B2937D8DFE801F0060A31
:1042A0000E12161A1E22262A2E3203F037FF00683D
:1042B00008BD03F033FF4068FAE703F02FFF806882
:1042C000F6E703F02BFFC068F2E703F027FF006971
:1042D000EEE703F023FF4069EAE703F01FFF806980
:1042E000E6E703F01BFFC069E2E703F017FF006A8F
:1042F000DEE703F013FF406ADAE703F00FFF806A9E
:10430000D6E703F00BFFC06AD2E70020D0E710B574
:104310000446042127F02CF8204610BD00487047C1
:1043200088FC03081020704713B5002451B10368BE
:1043300001AA01948DF803409C680DF10303A04786
:1043400002B010BD0846FBE7C0897047008A70477D
:10435000C088704780887047807A00F07F0070477F
:10436000807AC0097047704710B50446082126F0CE
:10437000FFFF204610BD7047704700F5987308682E
:10438000496803C370477047704741607047704782
:1043900070470000064BC0F84801C0F84C310023BC
:1043A000C0F8503100F5A273C0F84031704700BF2B
:1043B000754D0008012303727047704710B44168BF
:1043C0000346C2689B68541001EB6200D20748BFE5
:1043D0000A595DF8044B48BFD35818470346406854
:1043E00030B19A681AB9D86800F00100704701200E
:1043F000704710B504460C2126F0BAFF204610BDC8
:1044000010B50446102126F0B3FF204610BD10B5AC
:1044100004464FF4AE7126F0ABFF204610BD10B538
:1044200015F0C6FC0368BDE81040DB6B184710B5FB
:104430000446D0F8400158B10368DB68984738B1AA
:10444000D4F8400103689B6898470023C4F84031C2
:1044500010BD0000044B1B6893F858200AB1D86CBB
:1044600000B99868704700BFF4060220F8B504460A
:1044700017460E4615F0ACFD104B002501211C60BF
:104480000F4B23600F4BC4E951350F4B1868C4E93B
:1044900053550368C4E94F559B68C4E9557698475E
:1044A000284603F0EFFDFFF7D5FF1FF06AF9FFF78D
:1044B000D1FF1FF0E5F92046F8BD00BF48070220F4
:1044C000F8FD0308E0FD0308F4060220064BC0F8DF
:1044D0004801C0F84C310023C0F8503100F5A273F8
:1044E000C0F84031704700BF754D0008064BC0F85A
:1044F0004801C0F84C310023C0F8503100F5A273D8
:10450000C0F84031704700BF294C0008064BC0F886
:104510004801C0F84C310023C0F8503100F5A273B7
:10452000C0F84031704700BFDD4A0008064BC0F8B4
:104530004801C0F84C310023C0F8503100F5A27397
:10454000C0F84031704700BF95490008064BC0F8DD
:104550004801C0F84C310023C0F8503100F5A27377
:10456000C0F84031704700BF49480008064BC0F80A
:104570004801C0F84C310023C0F8503100F5A27357
:10458000C0F84031704700BF01470008064BC0F833
:104590004801C0F84C310023C0F8503100F5A27337
:1045A000C0F84031704700BFB545000803685B6A3A
:1045B000184700002DE9F14FD0E9556A0746B06869
:1045C00003681B6A984741F24F23984205D8444B31
:1045D000A321444A444826F015FF706803681B6A0B
:1045E00098470F2803D8414BA4213E4AF2E7F068D0
:1045F00003681B6A98470B2803D83D4BA521394A0D
:10460000E8E7DFF8F49015F0D3FB043015F00EFC6A
:10461000D9F8000010B10368DB689847D9F80000AA
:1046200010B103681B689847DFF8D080D8F8000005
:1046300010B103685B699847D7F83C0110B1036873
:104640005B689847D8F8000010B103681B6898476A
:10465000D7F83C0110B103689B6898470021F068C7
:10466000FFF7A4FF4FF0000B224B0446C0F804B044
:10467000594680F808B00360B06803685B6A9847E1
:10468000054604F07FFB7068594603685B6A9847EB
:104690000646294604F01EFB331DC7F83C61284638
:1046A000C9F80040C8F80050CAF800302B68C6F8B6
:1046B00008A0DB68EE639847336830461B6898476C
:1046C0002146284617F036F9236820461B6998478B
:1046D000236820465B6901B0BDE8F04F184700BF72
:1046E00090CB02081ECC0208F8CC02083FCD02088D
:1046F000E2CD02084CFE03083C07022038070220E6
:104700002DE9F14FD0E9556A0746B06803681B6A86
:104710009847B0F5167F05D2434BA321434A44483E
:1047200026F070FE706803681B6A98470F2803D84C
:10473000404BA4213D4AF2E7F06803681B6A9847A2
:104740000B2803D83C4BA521384AE8E7DFF8F09066
:1047500015F02EFB043015F069FBD9F8000010B1FC
:104760000368DB689847D9F8000010B103681B683C
:104770009847DFF8D080D8F8000010B103685B6973
:104780009847D7F83C0110B103685B689847D8F8A0
:10479000000010B103681B689847D7F83C0110B1BE
:1047A00003689B6898470021F068FFF7FFFE4FF011
:1047B000000B224B0446C0F804B0594680F808B0FC
:1047C0000360B06803685B6A9847054604F0CEF85A
:1047D0007068594603685B6A98470646294604F0A4
:1047E00037F8331DC7F83C612846C9F80040C8F8BF
:1047F0000050CAF800302B68C6F808A0DB68EE63EA
:104800009847336830461B6898472146284617F07A
:1048100091F8236820461B699847236820465B6906
:1048200001B0BDE8F04F184790CB020885CE0208D2
:10483000F8CC02083FCD0208E2CD02084CFE030886
:104840003C070220380702202DE9F14FD0E9556AD4
:104850000746B06803681B6A984740F27B5398424A
:1048600005D8444BA321444A444826F0CBFD706848
:1048700003681B6A98470F2803D8414BA4213E4A7E
:10488000F2E7F06803681B6A98470B2803D83D4B92
:10489000A521394AE8E7DFF8F49015F089FA0430E9
:1048A00015F0C4FAD9F8000010B10368DB68984726
:1048B000D9F8000010B103681B689847DFF8D08072
:1048C000D8F8000010B103685B699847D7F83C013D
:1048D00010B103685B689847D8F8000010B103680E
:1048E0001B689847D7F83C0110B103689B6898474C
:1048F0000021F068FFF75AFE4FF0000B224B0446F0
:10490000C0F804B0594680F808B00360B068036886
:104910005B6A9847054604F0DFF8706859460368FB
:104920005B6A98470646294604F040F8331DC7F8ED
:104930003C612846C9F80040C8F80050CAF8003069
:104940002B68C6F808A0DB68EE63984733683046EA
:104950001B6898472146284616F0ECFF236820463E
:104960001B699847236820465B6901B0BDE8F04F9A
:10497000184700BF90CB020861CF0208F8CC0208AC
:104980003FCD0208E2CD02084CFE03083C0702209E
:10499000380702202DE9F14FD0E9556A0746B06883
:1049A00003681B6A9847B0F5047F05D2434BA321E7
:1049B000434A444826F026FD706803681B6A9847FE
:1049C0000F2803D8404BA4213D4AF2E7F068036862
:1049D0001B6A98470B2803D83C4BA521384AE8E7C7
:1049E000DFF8F09015F0E4F9043015F01FFAD9F86B
:1049F000000010B10368DB689847D9F8000010B1D7
:104A000003681B689847DFF8D080D8F8000010B121
:104A100003685B699847D7F83C0110B103685B688D
:104A20009847D8F8000010B103681B689847D7F87A
:104A30003C0110B103689B6898470021F068FFF7BC
:104A4000B5FD4FF0000B224B0446C0F804B05946A8
:104A500080F808B00360B06803685B6A9847054651
:104A600003F0D6FE7068594603685B6A98470646AD
:104A7000294603F04BFE331DC7F83C612846C9F8B0
:104A80000040C8F80050CAF800302B68C6F808A0EB
:104A9000DB68EE639847336830461B6898472146C9
:104AA000284616F047FF236820461B69984723686D
:104AB00020465B6901B0BDE8F04F184790CB020873
:104AC0003DD00208F8CC02083FCD0208E2CD020832
:104AD0004CFE03083C070220380702202DE9F14F65
:104AE000D0E9556A0746B06803681B6A984740F2E8
:104AF0009B43984205D8444BA321444A444826F09E
:104B000081FC706803681B6A98470F2803D8414BE3
:104B1000A4213E4AF2E7F06803681B6A98470B2815
:104B200003D83D4BA521394AE8E7DFF8F49015F0AA
:104B30003FF9043015F07AF9D9F8000010B1036894
:104B4000DB689847D9F8000010B103681B689847E4
:104B5000DFF8D080D8F8000010B103685B6998478F
:104B6000D7F83C0110B103685B689847D8F800009B
:104B700010B103681B689847D7F83C0110B103686F
:104B80009B6898470021F068FFF710FD4FF0000B7D
:104B9000224B0446C0F804B0594680F808B00360C0
:104BA000B06803685B6A9847054603F061FC70686B
:104BB000594603685B6A98470646294603F0B2FBEC
:104BC000331DC7F83C612846C9F80040C8F80050BA
:104BD000CAF800302B68C6F808A0DB68EE63984777
:104BE000336830461B6898472146284616F0A2FED7
:104BF000236820461B699847236820465B6901B0FB
:104C0000BDE8F04F184700BF90CB020811D1020851
:104C1000F8CC02083FCD0208E2CD02084CFE0308A2
:104C20003C070220380702202DE9F14FD0E9556AF0
:104C30000746B06803681B6A984741F6D723984235
:104C400005D8444BA321444A444826F0DBFB706856
:104C500003681B6A98470F2803D8414BA4213E4A9A
:104C6000F2E7F06803681B6A98470B2803D83D4BAE
:104C7000A521394AE8E7DFF8F49015F099F80430F7
:104C800015F0D4F8D9F8000010B10368DB68984734
:104C9000D9F8000010B103681B689847DFF8D0808E
:104CA000D8F8000010B103685B699847D7F83C0159
:104CB00010B103685B689847D8F8000010B103682A
:104CC0001B689847D7F83C0110B103689B68984768
:104CD0000021F068FFF76AFC4FF0000B224B0446FE
:104CE000C0F804B0594680F808B00360B0680368A3
:104CF0005B6A9847054603F0AFFC70685946036845
:104D00005B6A98470646294603F03EFC331DC7F808
:104D10003C612846C9F80040C8F80050CAF8003085
:104D20002B68C6F808A0DB68EE6398473368304606
:104D30001B6898472146284616F0FCFD236820464C
:104D40001B699847236820465B6901B0BDE8F04FB6
:104D5000184700BF90CB020801D20208F8CC020825
:104D60003FCD0208E2CD02084CFE03083C070220BA
:104D7000380702202DE9F14FD0E9556A0746B0689F
:104D800003681B6A9847B0F5607F05D2434BA321A7
:104D9000434A444826F036FB706803681B6A98470C
:104DA0000F2803D8404BA4213D4AF2E7F06803687E
:104DB0001B6A98470B2803D83C4BA521384AE8E7E3
:104DC000DFF8F09014F0F4FF043015F02FF8D9F864
:104DD000000010B10368DB689847D9F8000010B1F3
:104DE00003681B689847DFF8D080D8F8000010B13E
:104DF00003685B699847D7F83C0110B103685B68AA
:104E00009847D8F8000010B103681B689847D7F896
:104E10003C0110B103689B6898470021F068FFF7D8
:104E2000C5FB4FF0000B224B0446C0F804B05946B6
:104E300080F808B00360B06803685B6A984705466D
:104E400003F02AFA7068594603685B6A9847064679
:104E5000294603F0C1F9331DC7F83C612846C9F85B
:104E60000040C8F80050CAF800302B68C6F808A007
:104E7000DB68EE639847336830461B6898472146E5
:104E8000284616F057FD236820461B69984723687B
:104E900020465B6901B0BDE8F04F184790CB02088F
:104EA000EBD20208F8CC02083FCD0208E2CD02089E
:104EB0004CFE03083C07022038070220406A704776
:104EC000806A704770478B88C069DB0A0A6850F8AF
:104ED00023001044704710B50446BAB1107B68B186
:104EE000537BD27A1B0203F4E0631A43236A03EB79
:104EF00082031A888A4202D193F9020010BD05D8B4
:104F00000138043380B20028F3D1F7E70020F5E739
:104F100010B504462C2126F02BFA204610BD0000C7
:104F200030B58BB00446BDF860500895BDF85C50B4
:104F300007959DF8505006959DF84C5005959DF8A5
:104F4000485004959DF8445003959DF840500295B3
:104F50009DF83C500195BDF83850009516F076F854
:104F6000064B20462360159BE361169B2362199B29
:104F700063621A9BA3620BB030BD00BF70FE0308D2
:104F80000020704781807047C18070470181704761
:104F9000418170477047704770477047704710B441
:104FA000C4880368121B84885B6D091B12B25DF80C
:104FB000044B09B218474FF6FF7383814FF0FF335C
:104FC00003621368C3611060704770477047704791
:104FD0007047704730B585B00368044601816D465F
:104FE0000146D3F884303C342846984795E80700BA
:104FF00084E8070005B030BD30B585B003680446CD
:1050000041816D460146D3F884303C3428469847A8
:1050100095E8070084E8070005B030BD0022028053
:1050200042808280C280704780F8361070470368E3
:1050300070B504461B6B15469847236820462946E1
:105040005B6EBDE87040184700207047806C704769
:10505000704770477047704770470368DB6A1847AE
:10506000036810B504469B6B9847236820461B6C69
:10507000BDE8104018470368DB6B184710B50446BD
:105080004C2126F075F9204610BD10B504464FF4AA
:105090005C7126F06DF9204610BD08B514F088FE4D
:1050A000BDE80840FFF742BA08B514F081FEBDE83C
:1050B0000840FFF71BBA90F8252012B103685B691E
:1050C0001847704708B5FFF7F6FF08BD90F8252090
:1050D0001AB190F8242002B118607047036870B5C7
:1050E0005E6B0446114B8DB21B682BB9104B6C21C3
:1050F000104A114826F086F91049828D098891429C
:1051000003D80F4B6D210B4AF3E713F812200D4B18
:105110001B6853F8220003681B6B9847291A334613
:10512000204609B2BDE87040184700BF4C07022076
:10513000BFD3020801D402083CD402085007022061
:1051400083D402085407022000224FF0FF3182600E
:10515000C0E900217047036870B504461B6B154613
:1051600098472368204629465B6BBDE87040184786
:1051700070B504461D46BDF91060FFF7ECFF2368CB
:10518000294620469B6B9847236831462046DB6BB7
:10519000BDE87040184700000022C0E90122C0E9C4
:1051A0000322C0E90522C0E907224FF480728284FD
:1051B000014A0260704700BFD0FE030838B50446BC
:1051C0000D462622002126F077FC2046FFF7E4FF5B
:1051D000064B2046294623602B88E384FF2384F86E
:1051E000283011F04DFE204638BD00BFE01A0408FB
:1051F00010B504462622002126F05EFC2046FFF76B
:10520000CBFF0A4B4FF47F0220462360084BA3627A
:105210004FF6FF73A3850023C4E90C324FF0FF3231
:105220002387E363C4E9102310BD00BF0C190408F1
:10523000D0FD03082DE9F04F04468FB0002616F08C
:10524000CDF92546D34B26223146E66304F16C099D
:1052500045F8403B284626F02FFC2846FFF79CFFE8
:10526000CD4B4FF6FF7704F1980A2364FF230CA976
:10527000484684F8663004F51E78A666ADF83070AE
:10528000FFF79CFF5046DFF83CB3FFF7B1FFC34B7D
:105290000CA9C4F8E060C4F8983004F1E403ADF858
:1052A0003070271D18460793FFF788FF04F58873B1
:1052B00018460293FFF79CFF04F5AC73184603935E
:1052C000FFF796FF04F5D07318460493FFF790FF9D
:1052D00004F5F47318460593FFF78AFF04F50C7381
:1052E00018460693FFF784FF40460DF077FE4FF413
:1052F000F07332462846314600934FF48873FFF727
:1053000037FF4FF07F4329463846A36608AD0EF0BD
:105310009FF8324648463146FFF71DFF01234846B5
:105320000CA9ADF8303011F0ABFD494638460EF00F
:105330008FF80F237C227F2150460093282304F509
:105340005779FFF715FFD4F8983051462846D3F81F
:105350008430C4F8C8B0A4F8CC60984704F1D403F2
:1053600095E8070083E807008D4B1B682BB98D4B30
:1053700060218D4A8D4826F045F88D4B1B881E2BE9
:1053800003D88C4B6121884AF4E78B4B1E211868A7
:1053900002F0B4FE894A03460A21484618F02CFA66
:1053A0001F23C4F8E0900CA9DFF81C925046ADF81A
:1053B0003430CDF8309011F037FB514638460EF0BE
:1053C00047F84FF00B0A324631460798FFF7C3FE05
:1053D0000CA90798ADF830A011F052FD0799384696
:1053E0000EF036F80C237B220298009341213E23D5
:1053F000FFF7BEFE02992846C4F840B1A4F8446104
:1054000011F078F804F5A67395E8070083E8070023
:1054100015230CA90298ADF83430CDF8309011F076
:1054200003FB029938460EF013F8502203989E2190
:10543000FFF791FE03992846C4F888B1A4F88C615F
:1054400011F058F804F5CA7395E8070083E80700DF
:1054500003230CA90398ADF83430CDF8309011F047
:10546000E3FA039938460DF0F3FF50220498FD212A
:10547000FFF771FE04992846C4F8D0B1A4F8D461AE
:1054800011F038F804F5EE7395E8070083E807009B
:1054900002230CA90498ADF83430CDF8309011F007
:1054A000C3FA049938460DF0D3FF0C237C220598EB
:1054B0000093A7213E23FFF75BFE05992846C4F819
:1054C00018B2A4F81C6211F015F804F5097395E8F8
:1054D000070083E8070014230CA90598ADF83430C1
:1054E000CDF8309011F0A0FA059938460DF0B0FFD4
:1054F0000D236122069800930A219023FFF738FEBE
:1055000006992846C4F860B2A4F8646210F0F2FF6D
:1055100004F51B7395E8070083E807000CA90698BB
:10552000CDF83090ADF834A011F07EFA06993846E7
:105530000DF08EFF40466422A121FFF70CFE0A23E6
:10554000324631464046009364230DF0A0FC3346BA
:1055500042F2E8123146404600960DF0B7FD314662
:1055600040460DF092FD0CA94046ADF830600DF0BC
:1055700001FF404612490DF074FC404642F2E8112A
:105580000DF09DFC384641460DF062FF20460FB0FD
:10559000BDE8F08FC8FF03089C19040838FF030812
:1055A0004C070220BFD30208C1D402083CD4020831
:1055B0005007022083D40208580702200CD50208A5
:1055C0007672FFFFDDCFC1FFD0FD03087047704743
:1055D000704770470368DB6A184703685B6B1847BE
:1055E000036810B504469B6B984723682046DB6B25
:1055F000BDE81040184710B5044640F24C4125F074
:10560000B7FE204610BD08B514F0D2FBBDE8084037
:10561000FEF76CBF10B504462622002126F04CFA96
:105620002046FFF7B9FD044B20462360FF2384F892
:1056300026300023A36210BD9C19040810B504464F
:10564000FFF7E8FF034B204623600023E362238635
:1056500010BD00BF781A04082DE9F04F04469BB036
:10566000002615F0BBFF2746DE4BE6634FF6FF75BD
:1056700047F8403B3846FFF7CDFF04F16C0304F2D6
:10568000044B4FF07F4918460493FFF7D7FF04F10E
:10569000A0034FF0500A4FF0010818460593FFF79A
:1056A000CDFF04F1D40318460693FFF7C7FF04F5B6
:1056B000847318460793FFF7C1FF04F59E7318A97A
:1056C000ADF8605018460293FFF778FD04F5B47307
:1056D00018A9ADF8605018460393FFF76FFD04F565
:1056E000CA7318460893FFF7A9FF04F5E473184638
:1056F0000993FFF7A3FF04F5FE7318460A93FFF71B
:105700009DFF04F50C7318460B93FFF797FF04F504
:10571000197318460C93FFF791FF04F5267318468A
:105720000D93FFF78BFF04F5337318460E93FFF7C5
:1057300085FF04F5407318460F93FFF77FFF04F5CC
:105740004D7318461093FFF779FF04F55A73184606
:105750001193FFF773FF04F5677318461293FFF771
:105760006DFF04F5747318461393FFF767FF314616
:105770002622584626F0A0F95846FFF70DFD9A4B11
:10578000A4F83054251DC4F804343246974B3146F2
:10579000C4F834643846C4F82C344FF47F03A4F8BA
:1057A0003C64C4F838344FF0FF33C4F84064C4F8A4
:1057B00044344FF4F073C4F8486400934FF4887392
:1057C000FFF7D6FC39462846894FC4F868900DF09B
:1057D0003FFE4423A02204988821CDF800A0FFF7C3
:1057E000C7FC04992846A4F89C80C4E925790DF0EB
:1057F0002FFE4423A02205981946CDF800A0FFF7FC
:10580000B7FC05992846A4F8D080C4E932790DF098
:105810001FFE4423A0220698CC21CDF800A0FFF75C
:10582000A7FC06992846A4F80481C4E93F790DF045
:105830000FFE4423A02231460798CDF800A0FFF7C1
:1058400097FC07992846A4F83881C4E94C790DF0F3
:10585000FFFD324631460298FFF77DFC18A90298F9
:10586000ADF8608011F00CFB029928460DF0F0FDB8
:10587000324631460398FFF76EFC0B2318A90398B4
:10588000ADF8603011F0FCFA039928460DF0E0FD08
:105890004423F02208988821CDF800A0FFF768FC87
:1058A00008992846A4F8C481C4E96F790DF0D0FDA9
:1058B0004423F02209981946CDF800A0FFF758FCC0
:1058C00009992846A4F8F881C4E97C790DF0C0FD57
:1058D0004423F0220A98CC21CDF800A0FFF748FC21
:1058E0000A992846A4F82C82C4E989790DF0B0FD04
:1058F0004423F02231460B98CDF800A0FFF738FC86
:105900000B992846A4F86082C4E996790DF0A0FDB1
:1059100044234FF4C87231460C98CDF800A0FFF72D
:1059200027FC0C992846A4F89482C4E9A3790DF0C9
:105930008FFD44234FF4C8720D98CC21CDF800A000
:10594000FFF716FC0D992846A4F8C882C4E9B0797F
:105950000DF07EFD44234FF4C8720E981946CDF821
:1059600000A0FFF705FC0E992846A4F8FC82C4E9C4
:10597000BD790DF06DFD44234FF4C8720F98882156
:10598000CDF800A0FFF7F4FB0F992846A4F8308368
:10599000C4E9CA790DF05CFD44234FF4A07231468E
:1059A0001098CDF800A0FFF7E3FB10992846A4F863
:1059B0006483C4E9D7790DF04BFD44234FF4A07202
:1059C0001198CC21CDF800A0FFF7D2FB1199284601
:1059D000A4F89883C4E9E4790DF03AFD44234FF428
:1059E000A07207E0140004080C190408D0FD030895
:1059F000ECDFD8FF12981946CDF800A0FFF7B8FBEE
:105A000012992846A4F8CC83C4E9F1790DF020FD61
:105A100044234FF4A07213988821CDF800A0FFF71B
:105A2000A7FB13992846A4F80084C4E9FE790DF079
:105A30000FFD0F2368225846009341218B23FFF767
:105A400097FBA4F838640DEB0A065946C4F8347481
:105A5000304610F04FFD04F5886396E8070083E8B0
:105A60000700084B18A9584618930D23ADF8643069
:105A700010F0DAFF284659460DF0EAFC20461BB02C
:105A8000BDE8F08FD0FD0308806A704700207047A2
:105A90008B88838001207047704780F82C107047F6
:105AA00010B40368046BD3F8A430624361435DF81B
:105AB000044B1847D0ED0C7A0368F8EEE77A10B47F
:105AC00020EE270AD3F8A440B5EEC00AF1EE10FA92
:105AD0001ADBB6EE007A30EE070ABDEEC07A17EE9A
