:020000040800F2
:1000000000C00420E5300008692A00086B2A0008B7
:100010006D2A00086F2A0008712A000800000000FD
:100020000000000000000000000000003184010812
:10003000732A000800000000D184010835850108FA
:1000400035310008353100083531000835310008F8
:1000500035310008353100083531000835310008E8
:1000600035310008353100083531000835310008D8
:1000700035310008353100083531000835310008C8
:1000800035310008353100083531000835310008B8
:1000900035310008353100083531000835310008A8
:1000A0003531000835310008353100083531000898
:1000B000353100083531000835310008752A00084F
:1000C0003531000835310008353100083531000878
:1000D0003531000835310008353100083531000868
:1000E0003531000835310008353100083531000858
:1000F0003531000835310008353100083531000848
:100100003531000835310008353100083531000837
:100110003531000835310008812A000835310008E2
:100120008D2A0008992A0008353100083531000869
:1001300035310008A52A000835310008353100089E
:10014000353100083531000835310008B12A000882
:1001500035310008353100083531000835310008E7
:1001600035310008353100083531000835310008D7
:100170003531000835310008BD2A000800000000B4
:1001800035310008353100083531000835310008B7
:1001900035310008353100083531000835310008A7
:1001A000C92A0008D52A0008D92A000835310008D4
:1001B0003531000835310008353100083531000887
:0801C00035310008353100085B
:1001D00010B5054C237833B9044B13B10448AFF381
:1001E00000800123237010BD600200200000000089
:1001F0009C3A030808B5034B1BB103490348AFF30E
:10020000008008BD00000000640200209C3A030842
:10021000034613F8012B002AFBD1181A0138704746
:1002200001F0FF01102A2BDB10F0070F08D010F8A7
:10023000013B013A8B422DD010F0070F42B3F6D1AB
:10024000F0B441EA012141EA014122F007047FF0C4
:1002500000070023F0E80256083C85EA010586EA1B
:10026000010685FA47F5A3FA87F586FA47F6A5FA57
:1002700087F68EB9EED1F0BC01F0FF0102F0070263
:1002800032B110F8013B013A83EA010313B1F8D10E
:100290000020704701387047002D06BF35460338EF
:1002A000073815F0010F07D1013015F4807F02BF28
:1002B000013015F4C03F0130F0BC0138704700BF79
:1002C00081F0004102E000BF83F0004330B54FEA07
:1002D00041044FEA430594EA050F08BF90EA020F74
:1002E0001FBF54EA000C55EA020C7FEA645C7FEA07
:1002F000655C00F0E2804FEA5454D4EB5555B8BF2A
:100300006D420CDD2C4480EA020281EA030382EA9A
:10031000000083EA010180EA020281EA0303362D2C
:1003200088BF30BD11F0004F4FEA01314FF4801CFF
:100330004CEA113102D0404261EB410113F0004F11
:100340004FEA03334CEA133302D0524263EB4303C8
:1003500094EA050F00F0A780A4F10104D5F1200E66
:100360000DDB02FA0EFC22FA05F2801841F10001C1
:1003700003FA0EF2801843FA05F359410EE0A5F195
:1003800020050EF1200E012A03FA0EFC28BF4CF0C6
:10039000020C43FA05F3C01851EBE37101F000457C
:1003A00007D54FF0000EDCF1000C7EEB00006EEB89
:1003B0000101B1F5801F1BD3B1F5001F0CD3490813
:1003C0005FEA30004FEA3C0C04F101044FEA44526A
:1003D00012F5800F80F09A80BCF1004F08BF5FEAF1
:1003E000500C50F1000041EB045141EA050130BDD1
:1003F0005FEA4C0C404141EB0101013C28BFB1F5E3
:10040000801FE9D291F0000F04BF01460020B1FA2D
:1004100081F308BF2033A3F10B03B3F120020CDA00
:100420000C3208DD02F1140CC2F10C0201FA0CF0DE
:1004300021FA02F10CE002F11402D8BFC2F1200C43
:1004400001FA02F120FA0CFCDCBF41EA0C019040F9
:10045000E41AA2BF01EB0451294330BD6FEA040442
:100460001F3C1CDA0C340EDC04F11404C4F120022D
:1004700020FA04F001FA02F340EA030021FA04F33F
:1004800045EA030130BDC4F10C04C4F1200220FA96
:1004900002F001FA04F340EA0300294630BD21FAD4
:1004A00004F0294630BD94F0000F83F4801306BF9A
:1004B00081F480110134013D4EE77FEA645C18BF8E
:1004C0007FEA655C29D094EA050F08BF90EA020F25
:1004D00005D054EA000C04BF1946104630BD91EA1D
:1004E000030F1EBF0021002030BD5FEA545C05D120
:1004F0004000494128BF41F0004130BD14F580045F
:100500003CBF01F5801130BD01F0004545F0FE41D2
:1005100041F470014FF0000030BD7FEA645C1ABF07
:10052000194610467FEA655C1CBF0B46024650EA3E
:10053000013406BF52EA033591EA030F41F400216A
:1005400030BD00BF90F0000F04BF0021704730B5F0
:100550004FF4806404F132044FF000054FF00001C5
:1005600050E700BF90F0000F04BF0021704730B586
:100570004FF4806404F1320410F0004548BF40425B
:100580004FF000013EE700BF42004FEAE2014FEAB0
:1005900031014FEA02701FBF12F07F4393F07F4F8B
:1005A00081F06051704732F07F4208BF704793F08E
:1005B0007F4F04BF41F40021704730B54FF46074A1
:1005C00001F0004521F000411CE700BF50EA0102A4
:1005D00008BF704730B54FF000050AE050EA01024D
:1005E00008BF704730B511F0004502D5404261EBBD
:1005F00041014FF4806404F132045FEA915C3FF4FE
:10060000D8AE4FF003025FEADC0C18BF03325FEA9A
:10061000DC0C18BF033202EBDC02C2F1200300FA4B
:1006200003FC20FA02F001FA03FE40EA0E0021FA70
:1006300002F11444BDE600BF70B54FF0FF0C4CF45E
:10064000E06C1CEA11541DBF1CEA135594EA0C0F10
:1006500095EA0C0F00F0DEF82C4481EA030621EA4B
:100660004C5123EA4C5350EA013518BF52EA033586
:1006700041F4801143F4801338D0A0FB02CE4FF038
:100680000005E1FB02E506F00042E0FB03E54FF068
:100690000006E1FB03569CF0000F18BF4EF0010E60
:1006A000A4F1FF04B6F5007F64F5407404D25FEA5C
:1006B0004E0E6D4146EB060642EAC62141EA55510F
:1006C0004FEAC52040EA5E504FEACE2EB4F1FD0C51
:1006D00088BFBCF5E06F1ED8BEF1004F08BF5FEACF
:1006E000500E50F1000041EB045170BD06F0004681
:1006F00046EA010140EA020081EA0301B4EB5C042E
:10070000C2BFD4EB0C0541EA045170BD41F4801125
:100710004FF0000E013C00F3AB8014F1360FDEBF4A
:10072000002001F0004170BDC4F10004203C35DA26
:100730000C341BDC04F11404C4F1200500FA05F3A9
:1007400020FA04F001FA05F240EA020001F000424A
:1007500021F0004110EBD37021FA04F642EB0601C0
:100760005EEA430E08BF20EAD37070BDC4F10C04EA
:10077000C4F1200500FA04F320FA05F001FA04F2AE
:1007800040EA020001F0004110EBD37041F100019A
:100790005EEA430E08BF20EAD37070BDC4F12005A5
:1007A00000FA05F24EEA020E20FA04F301FA05F20D
:1007B00043EA020321FA04F001F0004121FA04F2B5
:1007C00020EA020000EBD3705EEA430E08BF20EA85
:1007D000D37070BD94F0000F0FD101F000464000BF
:1007E00041EB010111F4801F08BF013CF7D041EA41
:1007F000060195F0000F18BF704703F00046520045
:1008000043EB030313F4801F08BF013DF7D043EA15
:100810000603704794EA0C0F0CEA135518BF95EACB
:100820000C0F0CD050EA410618BF52EA4306D1D152
:1008300081EA030101F000414FF0000070BD50EA71
:10084000410606BF1046194652EA430619D094EAFB
:100850000C0F02D150EA013613D195EA0C0F05D1E5
:1008600052EA03361CBF104619460AD181EA030139
:1008700001F0004141F0FE4141F470014FF00000F1
:1008800070BD41F0FE4141F4780170BD70B54FF08C
:10089000FF0C4CF4E06C1CEA11541DBF1CEA13550C
:1008A00094EA0C0F95EA0C0F00F0A7F8A4EB0504EE
:1008B00081EA030E52EA03354FEA013100F08880E5
:1008C0004FEA03334FF0805545EA131343EA1263AE
:1008D0004FEA022245EA111545EA10654FEA002663
:1008E0000EF000419D4208BF964244F1FD0404F51C
:1008F000407402D25B084FEA3202B61A65EB030578
:100900005B084FEA32024FF480104FF4002CB6EB34
:10091000020E75EB030E22BFB61A754640EA0C00B4
:100920005B084FEA3202B6EB020E75EB030E22BFF4
:10093000B61A754640EA5C005B084FEA3202B6EB35
:10094000020E75EB030E22BFB61A754640EA9C00F4
:100950005B084FEA3202B6EB020E75EB030E22BFC4
:10096000B61A754640EADC0055EA060E18D04FEA82
:10097000051545EA16754FEA06164FEAC30343EA22
:1009800052734FEAC2025FEA1C1CC0D111F4801FEF
:100990000BD141EA00014FF000004FF0004CB6E7E8
:1009A00011F4801F04BF01430020B4F1FD0C88BF87
:1009B000BCF5E06F3FF6AFAEB5EB030C04BFB6EB92
:1009C000020C5FEA500C50F1000041EB045170BD85
:1009D0000EF0004E4EEA113114EB5C04C2BFD4EBB2
:1009E0000C0541EA045170BD41F480114FF0000E36
:1009F000013C90E645EA060E8DE60CEA135594EAB2
:100A00000C0F08BF95EA0C0F3FF43BAF94EA0C0FB4
:100A10000AD150EA01347FF434AF95EA0C0F7FF429
:100A200025AF104619462CE795EA0C0F06D152EA7D
:100A300003353FF4FDAE1046194622E750EA410661
:100A400018BF52EA43067FF4C5AE50EA41047FF472
:100A50000DAF52EA43057FF4EBAE12E74A0011D224
:100A600012F5001211D20DD56FF47873B3EB625208
:100A70000ED44FEAC12343F0004343EA505323FA14
:100A800002F070474FF00000704750EA013002D189
:100A90004FF0FF3070474FF00000704753B94AB92C
:100AA000002908BF00281CBF4FF0FF314FF0FF3076
:100AB00000F088B9ADF1080C6DE904CE00F006F83D
:100AC000DDF804E0DDE9022304B070472DE9F047CA
:100AD000089D8E4604468846002B4AD18A42174616
:100AE00062D9B2FA82F64EB1C6F1200301FA06F8D5
:100AF00020FA03F3B74043EA0808B4404FEA174E20
:100B00001FFA87FCB8FBFEF1230C0EFB118843EAA9
:100B1000084301FB0CF29A4209D9FB1801F1FF309E
:100B200080F0EA809A4240F2E78002393B449A1A08
:100B3000A3B2B2FBFEF00EFB102243EA024300FB1D
:100B40000CFC9C4509D9FB1800F1FF3280F0D680DF
:100B50009C4540F2D3803B44023840EA0140A3EB7D
:100B60000C0300211DB1F3400022C5E90032BDE8AD
:100B7000F0878B4205D90DB1C5E900010021084677
:100B8000F5E7B3FA83F1002946D1734502D38242D7
:100B900000F20581841A6EEB030201209046002DBD
:100BA000E5D0C5E90048E2E7002A00F09080B2FAFB
:100BB00082F6002E40F0A4808A1A030C4FEA174EEA
:100BC00080B2BCB20121B2FBFEFC0EFB1C2243EA48
:100BD000024304FB0CF29A4207D9FB180CF1FF38D0
:100BE00002D29A4200F2E080C4469B1AB3FBFEF2A6
:100BF0000EFB123340EA034302FB04F49C4207D984
:100C0000FB1802F1FF3002D29C4200F2CA80024679
:100C10001B1B42EA0C40A5E7C1F120068B4022FADB
:100C200006F71F430EFA01F420FA06F32EFA06FE29
:100C30004FEA1749234300FA01F81FFA87FCBEFB6D
:100C4000F9F01C0C09FB10EE44EA0E4400FB0CFE0C
:100C5000A64502FA01F209D93C1900F1FF3A80F0E9
:100C60009C80A64540F2998002383C44A4EB0E04D7
:100C70001FFA83FEB4FBF9F309FB13444EEA044464
:100C800003FB0CFCA44508D93C1903F1FF3E80F09E
:100C90008280A4457FD9023B3C4443EA0040A4EB58
:100CA0000C04A0FB02EC64457346E14662D35FD0BE
:100CB0005DB1B8EB030264EB090404FA06F622FA0C
:100CC00001F31E43CC40C5E9006400214FE7B1FBAE
:100CD000F2FC010C41EA0E4180B240EA01423B467F
:100CE00038463C46B846BE462026B1FBF7F1A2EB9B
:100CF000080241EA0C4166E7014618E710462CE776
:100D0000C6F120022EFA02F3B740B14020FA02F2F7
:100D10004FEA174E0A43B3FBFEF8BCB20EFB183382
:100D2000110C41EA034108FB04F9B04089454FEA40
:100D3000104380B23ED9791808F1FF3C01D28945B1
:100D40001FD8A1EB0901B1FBFEF909FB04F80EFB6A
:100D5000191192B242EA0142424529D2BA1809F168
:100D6000FF31C4D24245C2D2A9F102013A44BEE7E2
:100D7000F0459DD2BEEB02036CEB070C0138E14657
:100D800096E7A7EB09094944A8F1020CB1FBFEF96B
:100D900009FB04F8DBE773467FE7504666E7084641
:100DA000FDE63B44023A33E7ACF1020C3B441CE75E
:100DB00049469CE7A1EB0901C446B1FBFEF909FBDA
:100DC00004F8C4E7704700BF10B50446406820B976
:100DD0002068BDE8104016F003BF237A012B05D12F
:100DE0004FF0FF3117F044F80023237210BD10B507
:100DF0000446406820B92068BDE8104016F00CBFDA
:100E0000237A1BB917F070F80123237210BD00007C
:100E100010B53A4A01213A4800F0E6F90023394872
:100E2000394C1A461946006817F0DDFD2378002B6F
:100E30003ED1364B364A18681268364BC3E900205B
:100E400001221A7208B117F04FF8334B334A186871
:100E50001268334BC3E9002001221A7208B117F05F
:100E600043F8304B304A18681268304BC3E9002011
:100E700001221A7208B117F037F82D4B2D4A186865
:100E800012682D4BC3E9002001221A7208B117F035
:100E90002BF82A4B00212A4A1B682A481360012399
:100EA000516013720068284A23701372C2E900016E
:100EB0002348FFF79CFF2448FFF799FF1E48FFF7E0
:100EC00083FF1A48FFF780FF1248FFF77DFF1F4C92
:100ED0001348FFF779FF0FF069F90EF043FF1C4844
:100EE0000FF0C2F80FF0AEF823682BB1194B187849
:100EF0000EF0C4FF0023236010BD00BF00EC13C040
:100F0000B008002018070020C402002010070020AD
:100F100034070020B8020020040700201C0700202E
:100F2000AC0200200807002020070020A0020020BB
:100F30000C0700202407002094020020280700202E
:100F4000880200202C0700207C020020C80200201C
:100F50004400002034BA002008B50121002000F030
:100F60003BF90D48FFF743FF0C48FFF72DFF0C48F6
:100F7000FFF72AFF0B48FFF727FF0B48FFF724FF77
:100F80000A48FFF721FFC82132200FF0A3F8BDE87F
:100F900008400EF0EFBE00BFA00200208802002033
:100FA0007C02002094020020B8020020AC02002045
:100FB00008B50121962000F00FF90C48FFF717FF44
:100FC0000B48FFF714FF0B48FFF711FF0A48FFF724
:100FD000FBFE0A48FFF7F8FE0948FFF7F5FE0FF0A1
:100FE000E5F8BDE808400EF0BDBE00BF9402002049
:100FF000880200207C020020A0020020B80200200D
:10100000AC02002008B50121962000F0E5F80E485A
:10101000FFF7EDFE0D48FFF7EAFE0D48FFF7D4FE9F
:101020000C48FFF7D1FE0C48FFF7CEFE0B48FFF748
:10103000CBFE0EF097FE0A480EF073FC0948BDE89F
:1010400008400FF011B800BF880200207C02002089
:1010500094020020A0020020B8020020AC02002070
:1010600035BA00204400002070B50121002000F0B6
:10107000B3F81648FFF7BBFE1548FFF7A5FE154865
:10108000FFF7A2FE1448FFF79FFE1448FFF79CFEEF
:10109000134E1448FFF798FE13480EF0E5FF134C6B
:1010A0003368A3420DD0124D28780EF0E7FE114BA5
:1010B000204619680EF068FE346010B928780EF0EA
:1010C0004FFFBDE870400EF055BE00BFB8020020D3
:1010D000880200207C02002094020020A002002050
:1010E000C8020020AC02002044000020B81104080F
:1010F00034BA0020B411040810B50D4C01210020B1
:1011000000F06AF82046FFF75FFE0A48FFF75CFE32
:101110000948FFF759FE0948FFF756FE0848FFF750
:1011200053FE2046FFF750FE064B00221A6010BD0A
:10113000880200207C02002094020020A0020020EF
:10114000AC020020C802002070B50121962000F0FA
:1011500043F81748FFF74BFE1648FFF748FE1648BE
:10116000FFF745FE1548FFF72FFE154E1548FFF710
:101170002BFE1548FFF728FE144C0FF017F80EF061
:10118000F1FD3368A3420DD0114D28780EF076FEA4
:10119000104B204619680EF0F7FD346010B928781E
:1011A0000EF0DEFE7F210320BDE870400EF040BC53
:1011B000880200207C020020AC0200209402002063
:1011C000C8020020A0020020B80200208C7403088E
:1011D00034BA0020887403080A46014601480BF01F
:1011E00077B900BFB008002070B58EB00C46054638
:1011F000164600212C2203A831F01CFFA0224FF438
:10120000F0734FF4C06001A90A96CDE901234FF4B1
:1012100088730522CDE90432FF2206920722CDE928
:1012200008024FF4A0722846CDE90B2322460BF0AA
:10123000D5F823460322074928460BF0FCF821463F
:1012400028460BF02EF9214696200EB0BDE87040DE
:10125000FFF7C2BFD86F030808B528B9054B68214E
:10126000054A064831F03EFB4068BDE8084017F0EB
:1012700063BF00BFF43A0308C36F0308FD3A0308D5
:101280002DE9F8438046BDF8200091460D46C01A6E
:101290001C46FFF767F906460F46A9EB0500FFF766
:1012A00061F902460B4630463946FFF7EFFA06462B
:1012B0000F46A8EB0500FFF755F902460B463046EE
:1012C0003946FFF7B9F906460F462046FFF74AF9B7
:1012D00002460B4630463946FEF7F8FFFFF7BEFBE5
:1012E00080B2BDE8F8832DE9F04707460E4686B088
:1012F000C3F3072A501ADDB2C3F30744FFF732F9EC
:101300008046B81B89465FFA8AFAFFF72BF9064632
:101310009DF839000F46E4B2A0EB0A00FFF722F96E
:1013200042464B46FFF7B2FA32463B46FFF784F996
:10133000CDE900015046FFF715F902460B46DDE9FD
:101340000001FEF7C3FFFFF789FB5FFA80FA9DF803
:101350003A00001BFFF706F942464B46FFF796FAA4
:1013600032463B46FFF768F9CDE900012046FFF71A
:10137000F9F802460B46DDE90001FEF7A7FFFFF78B
:101380006DFBC4B29DF83800401BFFF7EBF84246F6
:101390004B46FFF77BFA32463B46FFF74DF90646D0
:1013A0000F462846FFF7DEF802460B463046394620
:1013B000FEF78CFFFFF752FB0023C0B260F3070378
:1013C0006AF30F2364F31743184606B0BDE8F087AD
:1013D000C31C064923F003030A681344B3F5806F66
:1013E0009DBF03480B60801800207047CC0200208E
:1013F000E00200201E4B4FF4000C1A6B42F48002F6
:1014000013B51A6300241B6B4FF480621948042142
:1014100003F4800304620193019B174BC0E900347D
:101420008023C0E902344FF48053C0E904234FF411
:101430008043C0E906340323C0E909134FF40013C5
:10144000C0E90BC308F0F0F922460521382007F067
:101450008FFF382007F0BEFF22460521392007F014
:1014600087FF392002B0BDE8104007F0B3BF00BFCE
:10147000003802406C0700201064024001F090BD6B
:1014800001F04ABC01F0C2BB01F0FCBD01F0AEBDF1
:1014900001F00EBE08B5084B834206D0074B4FF44F
:1014A0008371074A074831F01DFA074B1868BDE8F9
:1014B000084007F031BB00BF6C070020203B030849
:1014C000E96F0308443B0308E406002008B5074B16
:1014D000834205D0064BF421064A074831F002FA50
:1014E000064B1868BDE8084007F048BCAC0900206E
:1014F0007C3B030821700308443B0308E8060020F6
:1015000008B5074B834205D0064BFD21064A074824
:1015100031F0E8F9064B1868BDE8084007F02EBC2A
:10152000AC0900207C3B030804700308443B03081B
:10153000E806002001F08CBC4FF47F3200214FF010
:10154000404008B531F076FD4FF47F22002102487B
:10155000BDE8084031F06EBD00FC03C000224FF42E
:1015600000411A4808B509F0CDFC64200EF0D2F90C
:10157000002117480DF012FB64200EF0CBF940213A
:10158000144809F0B9FC012804D001224021114877
:1015900009F0B8FC64200EF0BDF9002201210E48CC
:1015A00009F0B0FC64200EF0B5F9002280210B4850
:1015B00009F0A8FC64200EF0ADF900224FF4807110
:1015C0000748BDE8084009F09DBC00BF0004024088
:1015D00018080020001C02400020024000180240B1
:1015E0000014024010B50EF071FC044609480EF0DC
:1015F00098F920460EF08FF9002108460EF0AEFA59
:101600000EF020FD01224FF480710348BDE8104028
:1016100009F078BC35BA00200014024030B595B00E
:101620001022002102240AA80F2531F003FD002119
:10163000142203A831F0FEFC1B4B08A81A6C42F0E0
:1016400080521A641B6C194A03F080530193019B6A
:10165000136823F4404343F480431360136801226A
:10166000129403F440430293029B4FF48033CDE97C
:1016700008234FF48003CDE90E439023CDE91053A6
:10168000052313930CF00EF800214FF4A05303A888
:10169000CDE905134FF480530321CDE9035407939B
:1016A0000CF0E8F915B030BD003802400070004081
:1016B0002DE9F04FA9B00125FFF79CFE1022002173
:1016C0001BA831F0B7FC002407F0A4FE4FF0104136
:1016D000C64B1BA8ADF86C501E94CDE91C1307F047
:1016E000B7FE17231BA88DF86D508DF874308DF858
:1016F0007A5007F0ADFE40F20123BD48ADF86C30E2
:10170000BC4BCDE91C0340F201131BA81E9307F04C
:101710009FFE042007F08CFEBFF34F8FBFF36F8F47
:10172000B54AC2F85042BFF34F8FBFF36F8F536972
:1017300043F400335361BFF34F8FBFF36F8FC2F891
:101740008440BFF34F8FD2F8803043F6E070C3F38C
:10175000C901C3F34E335B0103EA00058A4645EA3B
:101760008A74BAF1010AC2F86042F8D2203B13F140
:10177000200FF1D1BFF34F8F536943F4803353618E
:10178000BFF34F8FBFF36F8F07F0AAFD0024FFF761
:1017900045FF142200211BA831F04CFC974B48F266
:1017A000100197481A6B012510274FF0030942F0EA
:1017B0001002944EDFF86CB24FF004081A631A6BF3
:1017C00002F010020292029A1A6B42F040021A636F
:1017D0001A6B02F040020392039A1A6B42F0020263
:1017E0001A631A6B02F002020492049A1A6B42F016
:1017F00001021A631A6B02F001020592059A1A6B34
:1018000042F400721A631A6B02F400720692069A8E
:101810001A6B42F008021A631A6B02F00802079270
:10182000079A1A6B42F004021A631A6B02F0040260
:101830000892089A1A6B42F480621A631A6B02F4D7
:1018400080620992099A1A6B42F020021A631A6B9D
:1018500002F020020A920A9A1A6B42F480721A630A
:101860001A6B02F480720B920B9A1A6B42F0800290
:101870001A6300221B6B03F080030C930C9B09F08E
:1018800041FB01220821604809F03CFB01224FF492
:1018900080515E4809F036FB00224FF401515C484C
:1018A00009F030FB00220121584809F02BFB0022EF
:1018B000C021584809F026FB0022C021564809F0F3
:1018C00021FB01224FF4E071544809F01BFB1BA9D6
:1018D0004B48CDE91B75CDE91D4909F08FF9082367
:1018E0001BA94948CDE91B35CDE91D4409F086F90E
:1018F00041F201031BA94548CDE91B35CDE91D4443
:1019000009F07CF94FF401531BA94148CDE91B357F
:10191000CDE91D4409F072F9C0231BA93D48CDE96A
:101920001B35CDE91D4909F069F980231BA93A4807
:10193000CDE91B35CDE91D4409F060F940231BA911
:101940003548CDE91B35CDE91D4909F057F94FF46C
:10195000E0721BA93148CDE91B25CDE91D4409F0F2
:101960004DF94FF400721BA92C481D94CDE91B249E
:1019700009F044F94FF400421BA92148CDE91B2589
:10198000CDE91D4409F03AF9FFF734FD244A40231C
:101990001BA93046B460F461B462C6E900244FF478
:1019A000C072C6E905324FF400624FF48053C6E9B5
:1019B000082302230722CDE91F93CDE91B3221938F
:1019C000C6E90387CDE91D820CF0B0FB59464FF6FE
:1019D000FF7230460194CBE90057CBE902540CF07A
:1019E000C5FB284607F0A0FC02231DE01B000003F6
:1019F00000C004200900000300ED00E000380240B0
:101A00000004024038070020002802400020024065
:101A1000001C02400008024000180240001402406E
:101A2000400100A0EC06002059464FF6FF723046F8
:101A3000CBE90037CBE902540CF098FB0823594658
:101A40004FF6FF723046CBE90234CBE900970CF039
:101A50008DFB4FF40C72594630460192019ACBF837
:101A60000850CBF80C204FF6FF72CBE900870CF042
:101A70007DFB40F22B713046C24E0CF096FB43F2D8
:101A8000D2014FF020426420DFF864B3116007F008
:101A90004BFCBD4BBD4A30463462C6E90032C6E954
:101AA0000245C6E90444C6E9064409F0B1FB2146F3
:101AB00030460AF0EAFA21463046B54E0AF00BFBF2
:101AC000B448B54A18210462C0E900254FF4A06269
:101AD000C0E90287C0E90412C0E906440BF0A0FB8C
:101AE00007F07EFA07F0C4F95C2007F081FCAB4AEE
:101AF000AB483462C6E900023046C6E90245C6E991
:101B00000444C6E9064409F083FB214630460AF046
:101B1000BCFA214630460AF0DEFA28460AF000FBFD
:101B20004FF0800C9F4840239F4A84600463C0E9C3
:101B300003C30823C0E90024C0E90834C0E9054410
:101B4000C0E90A4407F04EFD9848994B05620360CE
:101B50008480C0E9054407F0A7FC214634221BA875
:101B600031F068FA934B4FF000524FF02E0E58466A
:101B7000CBF81850ABF834408BF83640CBE9003442
:101B80004FF08043CBE902320D2240F21623CBE91D
:101B900007E2CBE9044940F21D1240F20E29CBE9DD
:101BA000099240F229124FF00509CBE90B320AF0F5
:101BB0004BFBFF204FF4F0714FF488721B94269278
:101BC000ADF89C408DF89E40CDE920044FF4806034
:101BD000CDE922094FF04040CDE91C14CDE92401A4
:101BE000CDE91E241BA9224658460AF0F7FBDBF874
:101BF0000010DFF800B24A6B584622F006024A6332
:101C00006D4ACBE90244CBE90024CBE90A44CBE995
:101C10000C4407F0FCFF29465846DFF8DCB108F019
:101C2000ADF83A46214610A831F004FA1C222146AC
:101C300014A80F94CDE90D4431F0FCF921462C2273
:101C40001BA831F0F7F95D4A5846CBF80840CBE9BC
:101C5000002509225A4DCBE90324CBE905440CF0B9
:101C600011FD4FF4805310A9584610930CF022FE3A
:101C700058460CF037FD0DA958460F94CDE90D4498
:101C80000CF08EFF602214A958461A94CDE914294D
:101C90002246CDE91644CDE918840CF085FD4FF4B9
:101CA00000521BA958461F9422942594CDE9202464
:101CB0004FF00072CDE91B44CDE92324CDE91D444A
:101CC0000CF0B8FF584600F0EFFD21463A461BA83D
:101CD00031F0B0F94FF080426323284616942C610E
:101CE000AC61C5E90023CDE91444C5E9024A0CF012
:101CF000C9FC4FF480531BA928461B930CF0DAFD56
:101D000014A92846149416940CF04AFF28460CF0A7
:101D10003BFB01F011FA01F00EFA404600F056FECE
:101D200014F0F4FDFFF708FC00F0DCFF254A26491B
:101D3000304606F063FF012806D0244B40F2C11163
:101D4000234A244830F0CEFD234A1F49234806F099
:101D500099FE012804D0224B4FF4E2711C4AF0E7AF
:101D6000204A21461D4807F029FF1F49164806F062
:101D7000EBFE0128054641D01C4B4FF4E471144A98
:101D8000DFE700BF58090020005C0040AF7470001E
:101D9000AC09002064080020001000A0110410000D
:101DA00000540040A00A002000000550F00A002066
:101DB000003002400068014000B0024000000140D5
:101DC000CC070020E8060020D11300088B3B030855
:101DD000E46F0308443B0308E40600206C0700207E
:101DE000A03B030895140008E0060020B53B03085B
:101DF000B0080020000A0020180800200F2000F082
:101E0000E5FD15F04FFE354815F03AFF344B354AE5
:101E100021461860284615F0D3FF334B334A21463C
:101E20001860284615F0CCFF314B324A2146186025
:101E3000284615F0C5FF304B304A21461860284629
:101E400015F0BEFF2E4B2F4A21461860284615F08C
:101E5000B7FF2D4B2D4A214618602D4815F070FE16
:101E60002C4B2D4A214618602C4815F069FE2C4B4E
:101E70002C4A18602C492D4815F062FE2C4B2D4A37
:101E800018602D492D4815F05BFE2D4B2D4A21463B
:101E900018602D4815F054FE2C4B2D4A2146186031
:101EA0002C4815F04DFE2C4B2C4A214618602C482E
:101EB00015F046FE2B4B2C4A214618602B4815F096
:101EC0003FFE2B4B2B4A214618602B4815F038FE5D
:101ED0002A4B186015F000FEFEE700BFEC70030807
:101EE00018070020DC70030814070020CC700308DA
:101EF00010070020BC7003080C070020AC7003081A
:101F0000080700209C70030804070020D471030810
:101F10007D14000834070020B07103084731000821
:101F2000300700208C7103084C70030881140008EE
:101F30002C0700206871030840700308851400080E
:101F40002807002044710308891400082407002092
:101F5000207103088D14000820070020FC7003087E
:101F6000911400081C07002078700308512F000806
:101F70000007002054700308852E0008FC0600208E
:101F80000268034B9A4201D107F0BCB9704700BF09
:101F90000010004070470000034B1A68516A536AF2
:101FA0005B1A8342FBD37047CC07002007F0BCB913
:101FB00007B50B0C40BA49BA6A465BBAADF80000E7
:101FC0000A48ADF802300623ADF804107821006805
:101FD00006F0A4FE012805D0054B5B21054A064802
:101FE00030F080FC03B05DF804FB00BFE806002081
:101FF000BD3B030842720308913C03081FB5002350
:1020000042BA0F480C460393042392B278210093FE
:1020100003AB006806F03CFE012805D0094B69219E
:10202000094A0A4830F05EFCBDF80C20BDF80E30BD
:1020300052BA5BBA120412FA83F3236004B010BDE3
:10204000E8060020BD3B030831720308913C0308F9
:1020500037B5154642BA13480C46AB0092B200930E
:102060000B460068782106F013FE012807D12346AD
:102070000022954203F1040307D803B030BD0A4B98
:1020800078210A4A0A4830F02DFC33F8040C01325A
:1020900033F8021C40BA49BA000410FA81F143F83F
:1020A000041CE6E7E8060020BD3B030815720308A0
:1020B000913C03080246084808B500680B467821A1
:1020C00006F02CFE012805D0044B8A21044A05485D
:1020D00030F008FC08BD00BFE8060020BD3B030847
:1020E000F8710308913C030810B5204C00224FF40E
:1020F0000051204608F006FF012007F015F90122E3
:102100004FF40051204608F0FDFE012007F00CF9C5
:1021100001228021164808F0F5FE6420FFF73CFFFD
:1021200001221448114608F0EDFE6420FFF734FF49
:1021300020460122402108F0E5FE01224FF4807183
:102140000D4808F0DFFEC820FFF726FF00210B48EE
:102150000CF0D6FC6420FFF71FFF01224FF4004172
:102160000748BDE8104008F0CDBE00BF001C02408B
:10217000001802400020024000140240180800200D
:10218000000402400D4B82B00F216FF001001A6C69
:1021900042F080521A641A6C02F080520092009A47
:1021A0005A6C42F480425A6400225B6C03F4804310
:1021B0000193019B02B007F0DBB800BF003802407A
:1021C000026882B0084B9A420BD1D3F8302803F54D
:1021D000006342F480521A631B6B03F48053019333
:1021E000019B02B0704700BF003002402DE9F04172
:1021F0008CB007461422002107A830F01BFF3A6874
:10220000514B9A4240F09D80504B03260D244FF0D5
:1022100002085A6B07A94E48002542F001025A6392
:102220005A6B02F001020192019A1A6B42F01002FD
:102230001A631A6B02F010020292029A1A6B42F0B1
:1022400008021A631A6B02F008020392039A1A6BCF
:1022500042F040021A631A6B02F040020492049AA0
:102260001A6B42F080021A631A6B02F08002059228
:10227000059A1A6B42F001021A631B6B03F001030B
:102280000693069B6023CDE90738CDE90A6408F080
:10229000B5FC082307A92F480B94CDE90738CDE9F1
:1022A000095608F0ABFC4FF4007307A92A480B94B9
:1022B000CDE90738CDE9095608F0A0FC4FF4BC433E
:1022C00007A926480B94CDE90738CDE9095608F04F
:1022D00095FC502307A922480B94224CCDE90738DE
:1022E000CDE9095608F08AFC4FF000731E4A4FF4FE
:1022F00080614FF480404FF4003CA662C4E90023A3
:102300004FF48053C4E904134FF48073C4E9060307
:1023100004232046C4E908C34FF40003C4E902556E
:10232000C4E90B3507F080FA08B1FFF733FE4E2001
:1023300000220521BC64A76307F01AF84E2007F0BD
:1023400049F80CB0BDE8F0810000055000380240AB
:1023500000100240000C024000180240001C024025
:1023600000000240400A0020286402400E4B07B5DE
:1023700002689A4215D1A3F5F04305215A201A6B41
:1023800042F400021A6300221B6B03F40003019362
:10239000019B06F0EDFF5A2003B05DF804EB07F057
:1023A00019B803B05DF804FB00B0024010B5AAB044
:1023B00004461422002104A830F03CFE84220021AF
:1023C00009A830F037FE2368334A934235D14FF4E1
:1023D000804309A809930BF01FFC08B1FFF7DAFD51
:1023E0002E4C4FF440704FF0010C04A9236B43F0C6
:1023F00002032363236B03F002030093009B122369
:10240000CDE9040303232648CDE906C3042308933A
:1024100008F0F4FB236C1F200022052143F4001375
:102420002364236C03F400130193019B06F0A0FFC7
:102430001F2006F0CFFF2AB010BD1A4A9342FAD1EE
:102440004FF4803309A809930BF0E6FB08B1FFF7BE
:10245000A1FD124C4FF4C07201211348236B43F0CD
:1024600080032363236B03F080030293029B1223F8
:10247000CDE904230323CDE90613042304A908931B
:1024800008F0BCFB236C43F400032364236C03F4C7
:1024900000030393039BCEE7005400400038024042
:1024A00000040240005C0040001C0240174A08B5CE
:1024B0000368934214D102F5F2324FF4807114484C
:1024C000136C23F40013136408F07CFC10484FF4E1
:1024D000007108F077FC1F20BDE8084006F088BFB7
:1024E0000C4A934210D102F5EE3280210A48136C57
:1024F00023F40003136408F065FC4FF48071064870
:10250000BDE8084008F05EBC08BD00BF00540040B4
:1025100000040240005C0040001C024070B5B0B0F6
:102520000446142200210AA830F084FD84220021F0
:102530000FA830F07FFD2268674B9A4240F0C980B7
:1025400008230FA80F933C2314930223CDE91533DE
:10255000012319930BF060FB08B1FFF71BFD5F4BE4
:10256000002402250E265A6C0AA95D4842F08062BA
:102570005A645A6C02F080620192019A1A6B42F01E
:1025800010021A631A6B02F010020292029A1A6B7E
:1025900042F400721A631A6B02F400720392039AF7
:1025A0001A6B42F008021A631A6B02F008020492D6
:1025B000049A1A6B42F004021A631A6B02F00402C6
:1025C0000592059A1A6B42F480621A631A6B02F440
:1025D00080620692069A1A6B42F040021A631A6BE6
:1025E00002F040020792079A1A6B42F480721A6353
:1025F0001A6B02F480720892089A1A6B42F08002F9
:102600001A631B6B0E9603F080030993099B10233A
:10261000CDE90C44CDE90A3508F0F0FA4AF6FC732E
:102620000AA930480E96CDE90A35CDE90C4408F0E8
:10263000E5FA40230AA92C480E96CDE90A35CDE9E2
:102640000C4408F0DBFA4FF480630AA927480E9681
:10265000CDE90A35CDE90C4408F0D0FAF7230AA9F0
:1026600023480E96CDE90A35CDE90C4408F0C6FAA8
:102670004FF480530AA91F48CDE90A350923CDE953
:102680000C440E9308F0BAFA4FF446430AA91A48CC
:102690000E96CDE90A35CDE90C4408F0AFFA0823CF
:1026A0000AA916480E96CDE90A35CDE90C4408F082
:1026B000A5FA22460521582006F05AFE582006F0B9
:1026C00089FE59202246052106F052FE592006F0C7
:1026D00081FE30B070BD00BF00680140003802408C
:1026E0000010024000240240000C0240000802409A
:1026F000002802400018024000200240001C024056
:10270000142200212DE9F0418AB004460DEB0200AD
:1027100030F090FC22682C4B9A4251D12B4B022571
:10272000032409269A6B4FF0040805A9284842F0B3
:10273000020200279A639A6B02F002020192019A48
:102740001A6B42F010021A631A6B02F01002029226
:10275000029A1A6B42F002021A631A6B02F002022A
:102760000392039A1A6B42F008021A631B6B03F080
:1027700008030493049BCDE90585CDE9084608F0DC
:102780003DFA402305A91348CDE905350A23CDE9D3
:102790000774099308F032FA05A90E480996CDE9A5
:1027A0000585CDE9077408F029FA4FF4605305A9AF
:1027B00009480996CDE90535CDE9077408F01EFAF8
:1027C0000AB0BDE8F08100BF001000A00038024050
:1027D0000010024000040240000C0240026808B5EC
:1027E0000B4B9A4213D10B4A04210B48936B23F0F5
:1027F0000203936308F0E6FA4421084808F0E2FA7D
:102800004FF460510648BDE8084008F0DBBA08BD47
:10281000001000A0003802400010024000040240F6
:10282000000C024010B588B004461422002103A811
:1028300030F000FC2368194A93420BD1184B5A6CB4
:1028400042F001025A645B6C03F001030093009BA9
:1028500008B010BDB3F1804FFAD103F50E3303A9D0
:1028600010481A6C42F001021A641A6C02F001025C
:102870000192019A1A6B42F001021A634FF400426E
:102880001B6B03F001030293029B0223CDE9032398
:102890000123079308F0B2F9DAE700BF0000014016
:1028A000003802400000024010B586B004461422F1
:1028B000002101A830F0BEFB22680E4B9A4216D1CF
:1028C00003F59C3301A90C481A6B42F001021A630C
:1028D0004FF480721B6B03F001030093009B0223F3
:1028E000CDE9012304930123059308F087F906B08D
:1028F00010BD00BF0000014000000240F0B5002301
:1029000087B00393294B1E68002E4CD101220C2462
:10291000022703251A6001A9254B26489A6B42F02D
:1029200001029A639B6B03F001030093009B4FF637
:102930008373CDE90454CDE9013708F05FF948F21B
:10294000331301A91C480594CDE90137CDE903658E
:1029500008F054F94CF2037301A918480594CDE925
:102960000137CDE9036508F049F94FF63F0301A9A6
:1029700013480594CDE90137CDE9036508F03EF928
:10298000202301A90F480594CDE90137CDE903655E
:1029900008F034F901A90C480594CDE90147CDE9C7
:1029A000036508F02BF907B0F0BD00BF140B002041
:1029B000003802400010024000180240000C0240A3
:1029C00000140240001C024000080240214B1A6C17
:1029D00042F0100270B588B01A641B6C054601A95C
:1029E00003A803F010030293029B0BF0F7F8069B79
:1029F0004BBB0BF0E3F8184E184B336040F2E73353
:102A0000F360174BB0FBF3F3013B304673600023D8
:102A10003361B360B3610BF035FE044680B93046D4
:102A20000BF0ECFC044658B9362006F0D3FC0F2D11
:102A30000DD822462946362006F09AFC094B1D6027
:102A4000204608B070BD0BF0B9F84000D3E7012470
:102A5000F6E700BF00380240180B002000100040CD
:102A600040420F00400000207047FEE7FEE7FEE70F
:102A7000FEE77047014808F071BE00BFAC090020B6
:102A800001480BF0FEBC00BF180B0020014806F007
:102A9000D7BF00BF6C070020014806F0D1BF00BFC0
:102AA000400A0020014807F045BF00BF0CBB0020D2
:102AB000014809F03FBF00BFAC6C0120014806F09F
:102AC0004FBE00BFA00A0020014809F02ABC00BF89
:102AD000B0080020FFF7F8BF014807F0C4B800BFF6
:102AE000000A00200120704708B530F0A3FB162330
:102AF00003604FF0FF3008BD08B530F09BFB162394
:102B00000360FEE770B50D4614460E46731B9C42EB
:102B100001DC204670BDAFF3008006F8010BF5E73D
:102B200070B50D4614460E46731B9C4201DC2046D0
:102B300070BD16F8010BAFF30080F5E74FF0FF30E2
:102B400070474FF4005300204B60704701207047DE
:102B5000002070470B4A0346116810B509B90A49AD
:102B60001160106809490A4C0344091B8B4206D9BD
:102B700030F060FB0C2303604FF0FF3010BD13609A
:102B8000FCE700BF640B0020E0B0022000C004207E
:102B9000000A0000020F10B502D0012A15D010BDA6
:102BA000C0F30A03B3F5A07F0AD2C0F3CA20B0F580
:102BB000887F3FBF4FF4A07202FB00110222CA546B
:102BC0000C4A136801331360E9E7C0F30A03B3F555
:102BD000A07F09D2C0F3CA20B0F5887F3EBF4FF472
:102BE000A07404FB0011CA54024A536801335360B5
:102BF000D5E700BF848B0020034B186818B1036829
:102C00005868C0F500507047808B002083682DE91C
:102C1000F74F0746186805F0CDFF2C4D7A682C4B0E
:102C20001A604FF400532A460021386806F022FD4E
:102C3000044620BB82460546DFF8A480DFF88C906E
:102C400006F06CFBA0EB0A02322A0DD9D8F800304E
:102C50008246D8F804100B441E491C1B0B60B4FBC1
:102C6000F2F41D4A14601C467B681B685E68C6F55A
:102C70000056B54207D1032016F040FE0FE00A20AF
:102C800006F052FBCDE7154BD3F800B00FD82B461A
:102C90009E4211D8731BB54288BF0023EE183546FB
:102CA000CEE759F8250001355946FFF773FFB5F512
:102CB000005FF6D30025EAE759F82300594601934F
:102CC000FFF768FF019B0133E2E700BF800B0020A4
:102CD000808B00206C0B0020700B00200400002073
:102CE000848B002010B54FF4AA34002107482246F7
:102CF00030F0A0F922460021054830F09BF9224629
:102D000000210448BDE8104030F094B900E817C035
:102D1000009416C0004015C02DE9F0470022A4B071
:102D20000327DFF82081064610AB114601200097EB
:102D300015F0D4FDC8F8000028B93B4B73213B4A7D
:102D40003B482FF0CFFD2C22002105A8356830F03C
:102D500071F9A0224FF4F0734FF4C060354C03A911
:102D6000DFF8E4900C94DFF8E4A0CDE903234FF4FE
:102D700088730522CDE90632FF2208920722CDE9A9
:102D80000A024FF4A0722846CDE90D23012209F072
:102D900025FB01233A462849284609F04CFB2846E2
:102DA000264D012109F07DFB4FF0FF31D9F80000DD
:102DB00016F087F8012803D0214B7C211B4ABFE77E
:102DC00015F048FBDAF80070CAF8005015F066FB01
:102DD0000221306809F0B8FB3368002564211B68C4
:102DE000D8F80000D3F82C21C3F82C51C3F82C716B
:102DF00016F067F82B462A462946D9F8000015F048
:102E0000F2FD012803D00E4B9521084A98E7294688
:102E10004FF4AA322046254630F00CF90C203C46EF
:102E200016F06CFDC0E700BFC03C030854720308F5
:102E3000D03C030800E817C064720308009416C071
:102E4000BD3B03088C8B00201807002004000020E5
:102E5000002307B5019301A9094B186815F034FF49
:102E6000019B4BB14FF0E0234FF08052C3F8042D8B
:102E7000BFF34F8FBFF36F8F03B05DF804FB00BF4C
:102E80008C8B00202DE9F3472E4B64202E4F0193AD
:102E900016F034FD0DF092F997F82D305A0703D44F
:102EA000C82016F02BFDF7E713F03EFB064620B9CD
:102EB0004FF47A7016F022FDFAE70024DFF88C80D8
:102EC00097F82D305B0703D4C82016F017FDF7E7FD
:102ED0000020FFF791FE84428ABFC4F50053001B17
:102EE000C018B0F5B87F01D20120EEE704F5B87341
:102EF0004FF420723620B3F5005F8CBFC4F5005A42
:102F00004FF4B87A4FEA8A091FFA89F949460FF057
:102F100055FD054678B14A4608EB8401406830F01B
:102F2000B6F941F6616301AA2946304613F0C0FAAA
:102F300028460FF0D9FC5444B4F5005F28BF0024A4
:102F4000BEE700BFC0A8016480BA0020800B00204B
:102F500070B50024114E0020FFF74EFE844288BF5A
:102F600000F50050001B7F2803D8012016F0C6FC96
:102F7000F1E704F1800306EB8400B3F5005F8CBF3A
:102F8000C4F500558025A9002C4489B213F00EFD2C
:102F9000B4F5005F28BF0024DDE700BF800B0020F0
:102FA00038B50F4C0F4D4FF0FF31206814F060FF23
:102FB0000CF07FFF82034FEA10434FF0000054BF34
:102FC000022303F001032B700CF0FAFF06480CF00B
:102FD000FEFF206814F088FF0F2016F08FFCE2E758
:102FE00010070020A08B0020A88B0020DFF88C8029
:102FF0000024DFF88C901D4D80B54FF0FF31D8F8DC
:10300000000014F035FF1A4E0CF0FEFF192280B2BA
:10301000A9F80000B9F800309BB2B3FBF2F3154AEF
:1030200013800CF0FBFF30600DF002F88246306830
:10303000FDF788FA06460F465046FDF783FA02462A
:103040000B4630463946FDF721FC22462B46FDF75C
:10305000F3FAFDF703FD084B80B21880D8F80000A2
:1030600014F042FF0F2016F049FCC6E7000059405B
:10307000908B0020A48B0020A28B0020080700204A
:10308000948B0020084C094D08B54FF0FF312068A3
:1030900014F0EEFE28460CF09AFF206814F024FF8E
:1030A0000F2016F02BFCF0E70C070020A88B002067
:1030B00038B50A4C0A4D4FF0FF31206814F0D8FEA5
:1030C0000CF0F7FE030C80B22B606860206814F0EF
:1030D0000BFF032016F012FCEDE700BF04070020F1
:1030E000988B0020DFF834D0002103E00C4B5B58B4
:1030F000435004310B480C4B42189A42F6D30B4A0A
:1031000002E0002342F8043B094B9A42F9D305F050
:10311000FFFF30F095F8FEF7CBFA704700C00420AF
:10312000D0C40408000000204402002060020020F7
:10313000DCB00220FEE7704708B500F08BFDBDE86B
:10314000084000F015BD00F087BD40687047416041
:10315000704700004FF0E022D2F8FC3D43F080734E
:10316000C2F8FC3D054B064AD3F8B01F0A43C3F82A
:10317000B02F1A6842F001021A607047001000E098
:1031800055CEACC5521A02EB5302B2FBF3F07047B6
:10319000014B5868704700BF001000E0704710B541
:1031A00004460C212FF054FB204610BD036810B5D7
:1031B0001B69044631B19847A26863689B1A0344AF
:1031C000636010BD9847A060FBE70000024B7020D1
:1031D000024A1360DB68184714000020E88B0020C7
:1031E000704710B5044604212FF032FB204610BD75
:1031F00073B50E4E0D461446336813B9002002B065
:1032000070BD1B69702098470028F7D03368702084
:1032100001AA0DF106015B699847BDF80430012051
:103220002B60BDF806302360E9E700BFE88B002083
:103230007FB501238DF817204FF47A72CDE9013262
:103240000DF1170200920A460146054808F0CEF833
:1032500010B1034808F02DF807B05DF804FB00BF7B
:10326000580900207FB500230A464FF47A718DF883
:1032700017300123CDE901310DF11701009101460D
:10328000054808F08DF910B1034808F012F89DF8D0
:10329000170007B05DF804FB58090020032823D865
:1032A000DFE800F0020B131A104B102110481A68C7
:1032B000B2FA82F2520907F025BE0C4B40215A683F
:1032C000B2FA82F252090B48F5E7084B80219A685E
:1032D000B2FA82F25209F6E7044B40210648DA6856
:1032E000B2FA82F25209E6E7704700BFEC8B002089
:1032F000000402400008024000180240032823D8BE
:10330000DFE800F0020B131A104B102110481A6866
:10331000003A18BF012207F0F5BD0C4B40215A6856
:10332000003A18BF01220B48F5E7084B80219A6844
:10333000003A18BF0122F6E7044B40210648DA683C
:10334000003A18BF0122E6E7704700BFEC8B00206F
:1033500000040240000802400018024003280FD871
:10336000DFE800F00206090B1021064807F0CFBD88
:1033700040210548FAE78021FBE740210348F5E7B3
:10338000704700BF000402400008024000180240DD
:1033900008B5032813D8DFE800F0020A0D0F10214A
:1033A000084807F0A9FD431E5842584108BD402176
:1033B0000548F6E78021FBE740210448F1E70020BB
:1033C000F1E700BF0004024000080240001802407C
:1033D00070B5084D00240126E0B2FFF7D9FF18B1FF
:1033E0002B68012B18BF2E6001340435052CF3D156
:1033F00070BD00BFEC8B0020012380F8781080F8AE
:10340000793070470020704741640039024B18BF83
:1034100001211970704700BF9FA40220002070474F
:10342000836B0BB10846184770474FF6FF70704723
:10343000406803689B6918477047000038B5044628
:1034400000F0D2FC23682046D3F88850074BD4E91B
:103450000F12A8470023064D84F84A302846FFF78C
:1034600079FE0123256184F8703038BD000000C06A
:10347000FC8B002000F082BC00F086BC70B500F030
:10348000D1FC10490023C1F88430BFF34F8FD1F82D
:10349000803043F6E074C3F3C900C3F34E335B01DD
:1034A00003EA0406024646EA8275013AC1F87452FC
:1034B000F9D2203B13F1200FF2D1BFF34F8FBFF3AE
:1034C0006F8F70BD00ED00E000F0AEBC00F032BCCC
:1034D00000F0ACBC00F0B4BC00F036BC10B5044643
:1034E00018F05CFA23682046D3F8AC30BDE81040F1
:1034F000184717F0B1BC10B504467C212FF0A8F98D
:10350000204610BD90F834100D4B10B590F878405F
:103510001A788C4209D03AB90A490B4A08881488AB
:10352000108001220C801A7010BD002AFCD0064ABF
:103530000449148808880C8010800022F3E700BF3B
:1035400098A4022096A4022094A4022070B50D46EF
:10355000194635B9094B40F2D221094A09482FF0E2
:10356000C1F9C0E90F52003A074B18BF01221A7087
:103570000368BDE87040D3F88C301847FD3C030861
:10358000353D0308833D03089EA4022008B5094B7E
:103590001B888B4203D8084B1B88934205D9074BE5
:1035A0009E21074A07482FF09DF9074B1980074BCA
:1035B0001A8008BD94A4022096A40220C83D0308E6
:1035C0002B3E0308833D03089AA402209CA40220FA
:1035D000034690F87A0018B1586803681B681847CA
:1035E00070470000034B00225A609A60024A1A603A
:1035F000704700BFFC8B0020787203080121002275
:1036000008B5084614F0DCFB0A4B186028B90A4BD1
:1036100028210A4A0A482FF065F9002204210120D6
:1036200014F098FC074B186018B9074B2C21034A7B
:10363000F0E708BD0C8C00206E3E0308B73E03087F
:10364000E63E0308088C0020373F0308024B4FF08A
:10365000FF31186814F00CBC0C8C0020014B18686A
:1036600014F042BC0C8C0020024B0021186814F0AE
:10367000FFBB00BF0C8C0020FFF7F0BF0023034806
:1036800003491A46006814F0ABBC00BF088C002048
:103690000800002013B50023074C01A91A46206832
:1036A00014F0E0FC4FF0FF33002201A9206814F071
:1036B000D9FC02B010BD00BF088C002003685B6C11
:1036C00018470120704703689B6A18470D4B82B06A
:1036D0001A6B42F400021A631A6B02F400020192A0
:1036E000019A1A6942F400021A611A6922F400026E
:1036F0001A61054B054A1A614FF08062044B9A60CB
:1037000002B0704700380240000A0020013A000869
:1037100000E100E040F6EF7070470000054B4FF00D
:1037200080620360044BC3F88820BFF34F8FBFF360
:103730006F8F70479073030800E100E010B50446F6
:103740004FF45A61FFF7EAFF20462FF081F8204638
:1037500010BD000008B50A2809D8DFE800F00610FF
:103760000E080808081010101000022008BD054BB4
:103770008621054A05482FF0B5F80020F6E701201C
:10378000F4E700BF793F0308943F0308DF3F0308D5
:1037900070B58D7F0C462846FFF7DCFFA68AE28ACB
:1037A0001A4B42EA0642216958635A64628BD96314
:1037B000921B1A642668082E17D19A611A61E27F5B
:1037C0001AB140F07F4040F480305862104A237FA5
:1037D00042EA03620D4BDA61E26822F07F421A622C
:1037E0000C4A5961D9601A6070BD0022D8611A6113
:1037F000E26825B992B29A63044B074AF3E7217F46
:1038000022F07F4242EA0162F5E700BF00B00240C9
:1038100009000100010202000102030008B50B28A3
:103820000BD8DFE800F00612100A0A0A0A08080896
:103830000808022008BD0520FCE7054B6521054A64
:1038400005482FF04FF80020F4E70120F2E700BF11
:10385000793F03082E400308DF3F03082DE9F041BC
:1038600091F81D800D464046FFF7D8FFAF7F064612
:103870003846FFF7D3FF04463846FFF76BFFA98AA7
:103880006A8B574B521A1A649A612A8B521A1A6120
:10389000EA8A586342EA014269685A642A69DA632B
:1038A000D9602968802932D016D8202978D04029BB
:1038B00000F08B80042900F0888095F82010484B98
:1038C00019B146F07F4646F48036B845DE6100F017
:1038D00083805A61434A4FE0B1F5807F05D0B1F54E
:1038E000007FEAD1287F404901E0287F3F4941EA33
:1038F0000061D961E96821F07F411962E97F19B15E
:1039000044F07F4444F480345C62354B59E0AF6846
:10391000E87F391DD962297F46EA016646F4003600
:10392000DE6118B144F07F4444F480345C622C487A
:103930003B78426143B1012B21D02D4B4FF497715D
:103940002C4A2D482EF0CEFFC3697A8823F47F439A
:10395000013A23F0100343EA02230122C361204B02
:10396000D96941F02001D961D9698906FCD41021B7
:103970009960002AAED0214A1A60BDE8F081C3697F
:10398000B1F1FF02798823F47F4318BF0122013986
:1039900023F0100343EA012343F01003C361DEE781
:1039A00095F8201079B1297F46EA016141F4803110
:1039B000D961E97F0A4B19B144F07F4444F4803463
:1039C0005C625A61D7E7DE61F3E7297F46EA01616D
:1039D00041F40031D96191E740F20122CCE700BF08
:1039E00000B0024001020100090002000A000200CA
:1039F0007840030892400308DF3F030801020200F9
:103A0000024B1B68586803685B691847A0A4022032
:103A100070B504460A4B0C300026254660226060D3
:103A20002672667245F8203B294618F00FF904F516
:103A30005A63EE6024359D42FBD1204670BD00BF25
:103A400090730308012070470C2070470C2303FB80
:103A50000100083070470C2303FB01000830704759
:103A60000120704741F6D820704741F6D82303FB68
:103A700001000830704741F6D82303FB01000830ED
:103A80007047012070471020704700EB011008308C
:103A9000704700EB011008307047084600F034BB57
:103AA000034B10B50446036016F037FC204610BDEA
:103AB0004874030810B50446FFF7F2FF14212046AE
:103AC0002EF0C6FE204610BD034B10B50446036021
:103AD00016F023FC204610BD1474030810B50446EC
:103AE000FFF7F2FF4FF4D75120462EF0B1FE2046EB
:103AF00010BD0000034B10B50446036016F00DFC2A
:103B0000204610BDE073030810B50446FFF7F2FF2E
:103B1000182120462EF09CFE204610BD094B10B502
:103B20000446036000F5D8500C30FFF7B9FF04F1EC
:103B30002C00FFF7C9FF04F11400FFF7DBFF20465C
:103B400010BD00BF7C74030808B50248FFF7E6FF0C
:103B500008BD00BFBC9A002010B50446FFF7DEFF89
:103B60004FF4E45120462EF073FE204610BD0000B5
:103B70002DE9F34100F0F0F90024054600F0F0F9DA
:103B80002346014622462846009421F0FBF9264BA5
:103B9000264A2046264D1A6004F092F8254821F066
:103BA000A9F82B68BFF35B8FDB0737D428462EF0CC
:103BB00051FE98B3204C214B04F12C0804F1140061
:103BC000236008F5D7576060C4F8088007F118062D
:103BD000E760266116F0A2FB194B4046636116F0C0
:103BE0009DFB184B3846E36216F098FB04F58053B2
:103BF000154A04F5D950C3F80C2B04F0F9F8224605
:103C000004F5D951304604F0E9F8304600F07CFA6A
:103C10000E482EF085FE28462EF028FE0C4802B0F5
:103C2000BDE8F041FFF70ABC04A502208C8C0020FF
:103C3000B89A00200C000020BC9A00207C74030875
:103C4000E07303081474030848740308493B000830
:103C5000108C002070470000014817F066B900BFC3
:103C6000108C002070B5224E224B234C3046234D41
:103C70002360FFF7CDFE284625F080FC204B002274
:103C80004FF480711F481A8683F858205A6683F8CB
:103C900070205A67DC60C3E912121B49C3E91A128B
:103CA0001A4999671A490B604FF4F071018019485D
:103CB00001804FF488711848C3E90422C3E9062241
:103CC000C3E90822C3E90A22C3E90E22C3E910228C
:103CD000C3E91422C3E91722C3E9016501800F4833
:103CE00083F8342001800E490A700E4A1A6070BDB4
:103CF000148D0020A0720308B49A0020908C00203C
:103D0000108C002094A40220010000010000010199
:103D1000A0A402209AA4022096A402209CA402201F
:103D200098A40220B87203080148FFF7F7BC00BF4F
:103D3000148D0020034B902283F85A2383F85823D4
:103D4000704700BF00E100E0094A0A49D3680A4809
:103D5000C3F30A03013B9BB20B801169C1F30A0153
:103D6000013901801364536B43F0010353637047BF
:103D7000006801403EB700203CB70020014BD3F85B
:103D8000AC00704700680140024B0122C3F8AC1040
:103D90005A62704700680140124A5369DB0370B5EC
:103DA0001ED50023C2F88430BFF34F8FD2F8803085
:103DB00043F6E074C3F3C900C3F34E335B0103EA77
:103DC0000406014646EA81750139C2F87452F9D2F7
:103DD000203B13F1200FF2D1BFF34F8FBFF36F8F52
:103DE00070BD00BF00ED00E070B5044617F089F823
:103DF00023685D6E1DF04CFA01462046A8472368F3
:103E0000054A2046D3F888500023A2F5FF21AC468E
:103E1000BDE87040604700BF00F40BC017F058B811
:103E200017F062B817F01EB817F08DB9034B4FF0BA
:103E300080629A604FF080729A60704700E100E003
:103E4000084B4FF08062C3F88820BFF34F8FBFF359
:103E50006F8F4FF08072C3F88820BFF34F8FBFF38E
:103E60006F8F704700E100E010B5144C236823B356
:103E7000134B144A1B6C11888B4213D1124B1988B7
:103E800008F046FB226892F86A30013382F86A3003
:103E9000FFF7F4FB206817F081FD0020BDE810401B
:103EA000FFF7FCB908F034FB206803681B6A9847E9
:103EB0000020BDE81040FFF721BA10BDA0A40220E9
:103EC000006801403EB700203CB70020704708B5AD
:103ED0000B2937D8DFE801F0060A0E12161A1E2247
:103EE000262A2E3203F038FF006808BD03F034FFA5
:103EF0004068FAE703F030FF8068F6E703F02CFF34
:103F0000C068F2E703F028FF0069EEE703F024FF42
:103F10004069EAE703F020FF8069E6E703F01CFF51
:103F2000C069E2E703F018FF006ADEE703F014FF60
:103F3000406ADAE703F010FF806AD6E703F00CFF6F
:103F4000C06AD2E70020D0E710B5044604212EF065
:103F50007FFC204610BD0000004870470C9104080B
:103F60001020704713B5002451B1036801AA0194D1
:103F70008DF803409C680DF10303A04702B010BD0B
:103F80000846FBE7C0897047008A7047C0887047C1
:103F900080887047807A00F07F007047807AC0097F
:103FA0007047704710B5044608212EF051FC20469A
:103FB00010BD7047704700F598730868496803C3DF
:103FC0007047704770474160704770477047000006
:103FD000064BC0F84801C0F84C310023C0F85031FE
:103FE00000F5A273C0F84031704700BFB149000826
:103FF000012303727047704710B441680346C268DA
:104000009B68541001EB6200D20748BF0A595DF863
:10401000044B48BFD35818470346406830B19A68EC
:104020001AB9D86800F0010070470120704710B538
:1040300004460C212EF00CFC204610BD10B50446A1
:1040400010212EF005FC204610BD10B504464FF49B
:10405000AE712EF0FDFB204610BD10B51DF018F915
:104060000368BDE81040DB6B184710B50446D0F874
:10407000400158B10368DB68984738B1D4F8400173
:1040800003689B6898470023C4F8403110BD0000C6
:10409000044B1B6893F858200AB1D86C00B9986893
:1040A000704700BFA0A40220F8B5044617460E468C
:1040B0001DF0FEF9104B002501211C600F4B236001
:1040C0000F4BC4E951350F4B1868C4E953550368C9
:1040D000C4E94F559B68C4E955769847284603F0D4
:1040E000EFFDFFF7D5FF26F0BCFDFFF7D1FF26F06F
:1040F00037FE2046F8BD00BFF4A402207C920408DD
:1041000064920408A0A40220064BC0F84801C0F83D
:104110004C310023C0F8503100F5A273C0F8403193
:10412000704700BFB1490008064BC0F84801C0F80D
:104130004C310023C0F8503100F5A273C0F8403173
:10414000704700BF65480008064BC0F84801C0F83A
:104150004C310023C0F8503100F5A273C0F8403153
:10416000704700BF19470008064BC0F84801C0F867
:104170004C310023C0F8503100F5A273C0F8403133
:10418000704700BFD1450008064BC0F84801C0F891
:104190004C310023C0F8503100F5A273C0F8403113
:1041A000704700BF85440008064BC0F84801C0F8BE
:1041B0004C310023C0F8503100F5A273C0F84031F3
:1041C000704700BF3D430008064BC0F84801C0F8E7
:1041D0004C310023C0F8503100F5A273C0F84031D3
:1041E000704700BFF141000803685B6A1847000090
:1041F0002DE9F14FD0E9556A0746B06803681B6A9C
:10420000984741F24F23984205D8444BA321444A92
:1042100044482EF067FB706803681B6A98470F28B4
:1042200003D8414BA4213E4AF2E7F06803681B6AB9
:1042300098470B2803D83D4BA521394AE8E7DFF81A
:10424000F4901DF025F804301DF060F8D9F8000056
:1042500010B10368DB689847D9F8000010B1036813
:104260001B689847DFF8D080D8F8000010B10368C9
:104270005B699847D7F83C0110B103685B689847C1
:10428000D8F8000010B103681B689847D7F83C01C4
:1042900010B103689B6898470021F068FFF7A4FFFE
:1042A0004FF0000B224B0446C0F804B0594680F88A
:1042B00008B00360B06803685B6A9847054604F07D
:1042C0007FFB7068594603685B6A98470646294633
:1042D00004F01EFB331DC7F83C612846C9F80040B6
:1042E000C8F80050CAF800302B68C6F808A0DB6890
:1042F000EE639847336830461B6898472146284646
:104300001EF088FD236820461B69984723682046D5
:104310005B6901B0BDE8F04F184700BFD04003080B
:104320005E410308384203087F4203082243030822
:10433000D0920408E8A40220E4A402202DE9F14F61
:10434000D0E9556A0746B06803681B6A9847B0F51C
:10435000167F05D2434BA321434A44482EF0C2FAAC
:10436000706803681B6A98470F2803D8404BA42144
:104370003D4AF2E7F06803681B6A98470B2803D8A8
:104380003C4BA521384AE8E7DFF8F0901CF080FFAD
:1043900004301CF0BBFFD9F8000010B10368DB68E3
:1043A0009847D9F8000010B103681B689847DFF8F8
:1043B000D080D8F8000010B103685B699847D7F83F
:1043C0003C0110B103685B689847D8F8000010B151
:1043D00003681B689847D7F83C0110B103689B68D5
:1043E00098470021F068FFF7FFFE4FF0000B224BCB
:1043F0000446C0F804B0594680F808B00360B068BD
:1044000003685B6A9847054604F0CEF87068594621
:1044100003685B6A98470646294604F037F8331D5F
:10442000C7F83C612846C9F80040C8F80050CAF8EF
:1044300000302B68C6F808A0DB68EE639847336845
:1044400030461B689847214628461EF0E3FC236847
:1044500020461B699847236820465B6901B0BDE888
:10446000F04F1847D0400308C543030838420308FB
:104470007F42030822430308D0920408E8A40220E4
:10448000E4A402202DE9F14FD0E9556A0746B0684F
:1044900003681B6A984740F27B53984205D8444B07
:1044A000A321444A44482EF01DFA706803681B6A31
:1044B00098470F2803D8414BA4213E4AF2E7F06801
:1044C00003681B6A98470B2803D83D4BA521394A3E
:1044D000E8E7DFF8F4901CF0DBFE04301CF016FF78
:1044E000D9F8000010B10368DB689847D9F80000DC
:1044F00010B103681B689847DFF8D080D8F8000037
:1045000010B103685B699847D7F83C0110B10368A4
:104510005B689847D8F8000010B103681B6898479B
:10452000D7F83C0110B103689B6898470021F068F8
:10453000FFF75AFE4FF0000B224B0446C0F804B0C0
:10454000594680F808B00360B06803685B6A984712
:10455000054604F0DFF87068594603685B6A9847BF
:104560000646294604F040F8331DC7F83C6128464A
:10457000C9F80040C8F80050CAF800302B68C6F8E7
:1045800008A0DB68EE639847336830461B6898479D
:10459000214628461EF03EFC236820461B699847AA
:1045A000236820465B6901B0BDE8F04F184700BFA3
:1045B000D0400308A1440308384203087F4203089F
:1045C00022430308D0920408E8A40220E4A40220B5
:1045D0002DE9F14FD0E9556A0746B06803681B6AB8
:1045E0009847B0F5047F05D2434BA321434A444882
:1045F0002EF078F9706803681B6A98470F2803D873
:10460000404BA4213D4AF2E7F06803681B6A9847D3
:104610000B2803D83C4BA521384AE8E7DFF8F09097
:104620001CF036FE04301CF071FED9F8000010B109
:104630000368DB689847D9F8000010B103681B686D
:104640009847DFF8D080D8F8000010B103685B69A4
:104650009847D7F83C0110B103685B689847D8F8D1
:10466000000010B103681B689847D7F83C0110B1EF
:1046700003689B6898470021F068FFF7B5FD4FF08D
:10468000000B224B0446C0F804B0594680F808B02D
:104690000360B06803685B6A9847054603F0D6FE7E
:1046A0007068594603685B6A98470646294603F0D6
:1046B0004BFE331DC7F83C612846C9F80040C8F8D6
:1046C0000050CAF800302B68C6F808A0DB68EE631B
:1046D0009847336830461B689847214628461EF0A5
:1046E00099FB236820461B699847236820465B692D
:1046F00001B0BDE8F04F1847D04003087D450308DE
:10470000384203087F42030822430308D09204087A
:10471000E8A40220E4A402202DE9F14FD0E9556A73
:104720000746B06803681B6A984740F29B4398426B
:1047300005D8444BA321444A44482EF0D3F870686E
:1047400003681B6A98470F2803D8414BA4213E4AAF
:10475000F2E7F06803681B6A98470B2803D83D4BC3
:10476000A521394AE8E7DFF8F4901CF091FD043008
:104770001CF0CCFDD9F8000010B10368DB68984745
:10478000D9F8000010B103681B689847DFF8D080A3
:10479000D8F8000010B103685B699847D7F83C016E
:1047A00010B103685B689847D8F8000010B103683F
:1047B0001B689847D7F83C0110B103689B6898477D
:1047C0000021F068FFF710FD4FF0000B224B04466C
:1047D000C0F804B0594680F808B00360B0680368B8
:1047E0005B6A9847054603F061FC706859460368A8
:1047F0005B6A98470646294603F0B2FB331DC7F8AB
:104800003C612846C9F80040C8F80050CAF800309A
:104810002B68C6F808A0DB68EE639847336830461B
:104820001B689847214628461EF0F4FA2368204664
:104830001B699847236820465B6901B0BDE8F04FCB
:10484000184700BFD0400308514603083842030808
:104850007F42030822430308D0920408E8A4022000
:10486000E4A402202DE9F14FD0E9556A0746B0686B
:1048700003681B6A984741F6D723984205D8444BF2
:10488000A321444A44482EF02DF8706803681B6A3F
:1048900098470F2803D8414BA4213E4AF2E7F0681D
:1048A00003681B6A98470B2803D83D4BA521394A5A
:1048B000E8E7DFF8F4901CF0EBFC04301CF026FD78
:1048C000D9F8000010B10368DB689847D9F80000F8
:1048D00010B103681B689847DFF8D080D8F8000053
:1048E00010B103685B699847D7F83C0110B10368C1
:1048F0005B689847D8F8000010B103681B689847B8
:10490000D7F83C0110B103689B6898470021F06814
:10491000FFF76AFC4FF0000B224B0446C0F804B0CE
:10492000594680F808B00360B06803685B6A98472E
:10493000054603F0AFFC7068594603685B6A984708
:104940000646294603F03EFC331DC7F83C61284665
:10495000C9F80040C8F80050CAF800302B68C6F803
:1049600008A0DB68EE639847336830461B689847B9
:10497000214628461EF04EFA236820461B699847B8
:10498000236820465B6901B0BDE8F04F184700BFBF
:10499000D040030841470308384203087F42030818
:1049A00022430308D0920408E8A40220E4A40220D1
:1049B0002DE9F14FD0E9556A0746B06803681B6AD4
:1049C0009847B0F5607F05D2434BA321434A444842
:1049D0002DF088FF706803681B6A98470F2803D87A
:1049E000404BA4213D4AF2E7F06803681B6A9847F0
:1049F0000B2803D83C4BA521384AE8E7DFF8F090B4
:104A00001CF046FC04301CF081FCD9F8000010B109
:104A10000368DB689847D9F8000010B103681B6889
:104A20009847DFF8D080D8F8000010B103685B69C0
:104A30009847D7F83C0110B103685B689847D8F8ED
:104A4000000010B103681B689847D7F83C0110B10B
:104A500003689B6898470021F068FFF7C5FB4FF09B
:104A6000000B224B0446C0F804B0594680F808B049
:104A70000360B06803685B6A9847054603F02AFA4A
:104A80007068594603685B6A98470646294603F0F2
:104A9000C1F9331DC7F83C612846C9F80040C8F881
:104AA0000050CAF800302B68C6F808A0DB68EE6337
:104AB0009847336830461B689847214628461EF0C1
:104AC000A9F9236820461B699847236820465B693B
:104AD00001B0BDE8F04F1847D04003082B48030849
:104AE000384203087F42030822430308D092040897
:104AF000E8A40220E4A40220406A7047806A70475C
:104B000070478B88C069DB0A0A6850F8230010449C
:104B1000704710B50446BAB1107B68B1537BD27AA6
:104B20001B0203F4E0631A43236A03EB82031A882F
:104B30008A4202D193F9020010BD05D8013804332E
:104B400080B20028F3D1F7E70020F5E710B504465E
:104B50002C212DF07DFE204610BD000030B58BB01D
:104B60000446BDF860500895BDF85C5007959DF867
:104B7000505006959DF84C5005959DF84850049569
:104B80009DF8445003959DF8405002959DF83C5087
:104B90000195BDF8385000951DF0C8FC064B204625
:104BA0002360159BE361169B2362199B63621A9B2A
:104BB000A3620BB030BD00BFF49204080020704720
:104BC00081807047C1807047018170474181704783
:104BD0007047704770477047704710B4C4880368C7
:104BE000121B84885B6D091B12B25DF8044B09B27D
:104BF00018474FF6FF7383814FF0FF33036213684A
:104C0000C3611060704770477047704770477047C6
:104C100030B585B00368044601816D460146D3F87E
:104C200084303C342846984795E8070084E807001C
:104C300005B030BD30B585B00368044641816D468E
:104C40000146D3F884303C342846984795E807005D
:104C500084E8070005B030BD0022028042808280D7
:104C6000C280704780F836107047036870B50446FC
:104C70001B6B154698472368204629465B6EBDE8A6
:104C80007040184700207047806C7047704770472D
:104C90007047704770470368DB6A1847036810B5B0
:104CA00004469B6B9847236820461B6CBDE8104068
:104CB00018470368DB6B184710B504464C212DF0EC
:104CC000C7FD204610BD10B504464FF45C712DF0B1
:104CD000BFFD204610BD08B51CF0DAFABDE808405B
:104CE000FFF742BA08B51CF0D3FABDE80840FFF759
:104CF0001BBA90F8252012B103685B69184770470A
:104D000008B5FFF7F6FF08BD90F825201AB190F816
:104D1000242002B118607047036870B55E6B0446CA
:104D2000114B8DB21B682BB9104B6C21104A1148E6
:104D30002DF0D8FD1049828D0988914203D80F4B80
:104D40006D210B4AF3E713F812200D4B1B6853F843
:104D5000220003681B6B9847291A3346204609B284
:104D6000BDE87040184700BFF8A40220FF480308C0
:104D7000414903087C490308FCA40220C3490308F5
:104D800000A5022000224FF0FF318260C0E900211F
:104D90007047036870B504461B6B15469847236837
:104DA000204629465B6BBDE87040184770B5044645
:104DB0001D46BDF91060FFF7ECFF23682946204629
:104DC0009B6B9847236831462046DB6BBDE87040FB
:104DD000184700000022C0E90122C0E90322C0E90F
:104DE0000522C0E907224FF480728284014A0260E2
:104DF000704700BF5493040838B504460D46262278
:104E000000212EF017F92046FFF7E4FF064B20465D
:104E1000294623602B88E384FF2384F8283019F087
:104E20009FFA204638BD00BFA8B0040810B504465C
:104E3000262200212EF0FEF82046FFF7CBFF0A4B7A
:104E40004FF47F0220462360084BA3624FF6FF73A6
:104E5000A3850023C4E90C324FF0FF322387E363BC
:104E6000C4E9102310BD00BFD4AE04085492040856
:104E70002DE9F04F04468FB000261DF01FFE254699
:104E8000D34B26223146E66304F16C0945F8403BDA
:104E900028462EF0CFF82846FFF79CFFCD4B4FF663
:104EA000FF7704F1980A2364FF230CA9484684F88D
:104EB000663004F51E78A666ADF83070FFF79CFFEB
:104EC0005046DFF83CB3FFF7B1FFC34B0CA9C4F861
:104ED000E060C4F8983004F1E403ADF83070271DA9
:104EE00018460793FFF788FF04F588731846029366
:104EF000FFF79CFF04F5AC7318460393FFF796FF8A
:104F000004F5D07318460493FFF790FF04F5F4738B
:104F100018460593FFF78AFF04F50C7318460693AD
:104F2000FFF784FF404615F0C9FA4FF4F07332469C
:104F30002846314600934FF48873FFF737FF4FF050
:104F40007F4329463846A36608AD15F0F1FC32468A
:104F500048463146FFF71DFF012348460CA9ADF82E
:104F6000303019F0FDF94946384615F0E1FC0F23C1
:104F70007C227F2150460093282304F55779FFF7C0
:104F800015FFD4F8983051462846D3F88430C4F839
:104F9000C8B0A4F8CC60984704F1D40395E80700A2
:104FA00083E807008D4B1B682BB98D4B60218D4A20
:104FB0008D482DF097FC8D4B1B881E2B03D88C4BF6
:104FC0006121884AF4E78B4B1E21186802F0B4FE79
:104FD000894A03460A2148461FF07EFE1F23C4F873
:104FE000E0900CA9DFF81C925046ADF83430CDF8B3
:104FF000309018F089FF5146384615F099FC4FF073
:105000000B0A324631460798FFF7C3FE0CA90798F2
:10501000ADF830A019F0A4F90799384615F088FCCE
:105020000C237B220298009341213E23FFF7BEFE12
:1050300002992846C4F840B1A4F8446118F0CAFCAB
:1050400004F5A67395E8070083E8070015230CA96B
:105050000298ADF83430CDF8309018F055FF029931
:10506000384615F065FC502203989E21FFF791FE0B
:1050700003992846C4F888B1A4F88C6118F0AAFCFA
:1050800004F5CA7395E8070083E8070003230CA919
:105090000398ADF83430CDF8309018F035FF03990F
:1050A000384615F045FC50220498FD21FFF771FEAB
:1050B00004992846C4F8D0B1A4F8D46118F08AFC49
:1050C00004F5EE7395E8070083E8070002230CA9B6
:1050D0000498ADF83430CDF8309018F015FF0499ED
:1050E000384615F025FC0C237C2205980093A72157
:1050F0003E23FFF75BFE05992846C4F818B2A4F8D2
:105100001C6218F067FC04F5097395E8070083E852
:10511000070014230CA90598ADF83430CDF8309071
:1051200018F0F2FE0599384615F002FC0D236122B5
:10513000069800930A219023FFF738FE0699284627
:10514000C4F860B2A4F8646218F044FC04F51B7360
:1051500095E8070083E807000CA90698CDF8309081
:10516000ADF834A018F0D0FE0699384615F0E0FBF3
:1051700040466422A121FFF70CFE0A233246314645
:1051800040460093642315F0F2F8334642F2E812E9
:1051900031464046009615F009FA3146404615F072
:1051A000E4F90CA94046ADF8306015F053FB4046D9
:1051B000124915F0C6F8404642F2E81115F0EFF832
:1051C0003846414615F0B4FB20460FB0BDE8F08FDD
:1051D0004C94040864AF0408BC930408F8A40220AB
:1051E000FF480308014A03087C490308FCA4022085
:1051F000C349030804A502204C4A03087672FFFF46
:10520000DDCFC1FF54920408704770477047704764
:105210000368DB6A184703685B6B1847036810B5BF
:1052200004469B6B984723682046DB6BBDE8104023
:10523000184710B5044640F24C412DF009FB2046BA
:1052400010BD08B51CF024F8BDE80840FEF76CBF9F
:1052500010B50446262200212DF0ECFE2046FFF773
:10526000B9FD044B20462360FF2384F82630002339
:10527000A36210BD64AF040810B50446FFF7E8FF51
:10528000034B204623600023E362238610BD00BF4A
:1052900040B004082DE9F04F04469BB000261DF0F5
:1052A0000DFC2746DE4BE6634FF6FF7547F8403BA3
:1052B0003846FFF7CDFF04F16C0304F2044B4FF0C6
:1052C0007F4918460493FFF7D7FF04F1A0034FF07E
:1052D000500A4FF0010818460593FFF7CDFF04F17F
:1052E000D40318460693FFF7C7FF04F584731846E6
:1052F0000793FFF7C1FF04F59E7318A9ADF860503E
:1053000018460293FFF778FD04F5B47318A9ADF8B9
:10531000605018460393FFF76FFD04F5CA731846F3
:105320000893FFF7A9FF04F5E47318460993FFF704
:10533000A3FF04F5FE7318460A93FFF79DFF04F5DB
:105340000C7318460B93FFF797FF04F51973184673
:105350000C93FFF791FF04F5267318460D93FFF7A2
:105360008BFF04F5337318460E93FFF785FF04F5A2
:10537000407318460F93FFF77FFF04F54D731846EF
:105380001093FFF779FF04F55A7318461193FFF74E
:1053900073FF04F5677318461293FFF76DFF04F56A
:1053A000747318461393FFF767FF31462622584659
:1053B0002DF040FE5846FFF70DFD9A4BA4F83054EF
:1053C000251DC4F804343246974B3146C4F8346482
:1053D0003846C4F82C344FF47F03A4F83C64C4F876
:1053E00038344FF0FF33C4F84064C4F844344FF409
:1053F000F073C4F8486400934FF48873FFF7D6FC49
:1054000039462846894FC4F8689015F091FA44232C
:10541000A02204988821CDF800A0FFF7C7FC0499CA
:105420002846A4F89C80C4E9257915F081FA442324
:10543000A02205981946CDF800A0FFF7B7FC059902
:105440002846A4F8D080C4E9327915F071FA4423D3
:10545000A0220698CC21CDF800A0FFF7A7FC069962
:105460002846A4F80481C4E93F7915F061FA442381
:10547000A02231460798CDF800A0FFF797FC0799C6
:105480002846A4F83881C4E94C7915F051FA32461F
:1054900031460298FFF77DFC18A90298ADF86080AC
:1054A00018F05EFF0299284615F042FA324631465E
:1054B0000398FFF76EFC0B2318A90398ADF8603032
:1054C00018F04EFF0399284615F032FA4423F022D3
:1054D00008988821CDF800A0FFF768FC08992846B5
:1054E000A4F8C481C4E96F7915F022FA4423F022AC
:1054F00009981946CDF800A0FFF758FC09992846ED
:10550000A4F8F881C4E97C7915F012FA4423F0225A
:105510000A98CC21CDF800A0FFF748FC0A9928464C
:10552000A4F82C82C4E9897915F002FA4423F02208
:1055300031460B98CDF800A0FFF738FC0B992846B0
:10554000A4F86082C4E9967915F0F2F944234FF487
:10555000C87231460C98CDF800A0FFF727FC0C99D3
:105560002846A4F89482C4E9A37915F0E1F944230C
:105570004FF4C8720D98CC21CDF800A0FFF716FCAF
:105580000D992846A4F8C882C4E9B07915F0D0F97D
:1055900044234FF4C8720E981946CDF800A0FFF7C7
:1055A00005FC0E992846A4F8FC82C4E9BD7915F0E3
:1055B000BFF944234FF4C8720F988821CDF800A09A
:1055C000FFF7F4FB0F992846A4F83083C4E9CA79A1
:1055D00015F0AEF944234FF4A07231461098CDF87F
:1055E00000A0FFF7E3FB10992846A4F86483C4E900
:1055F000D77915F09DF944234FF4A0721198CC216E
:10560000CDF800A0FFF7D2FB11992846A4F89883A3
:10561000C4E9E47915F08CF944234FF4A07207E053
:1056200098940408D4AE040854920408ECDFD8FF20
:1056300012981946CDF800A0FFF7B8FB129928463A
:10564000A4F8CC83C4E9F17915F072F944234FF43E
:10565000A07213988821CDF800A0FFF7A7FB13993B
:105660002846A4F80084C4E9FE7915F061F90F23F7
:1056700068225846009341218B23FFF797FBA4F83B
:1056800038640DEB0A065946C4F83474304618F0F5
:10569000A1F904F5886396E8070083E80700084B42
:1056A00018A9584618930D23ADF8643018F02CFC57
:1056B0002846594615F03CF920461BB0BDE8F08F4E
:1056C00054920408806A7047002070478B8883805A
:1056D00001207047704780F82C10704710B40368A1
:1056E000046BD3F8A430624361435DF8044B184760
:1056F000D0ED0C7A0368F8EEE77A10B420EE270AB2
:10570000D3F8A440B5EEC00AF1EE10FA1ADBB6EEFB
:10571000007A30EE070ABDEEC07A17EE101A60EE7E
:10572000A70AF5EEC00AF1EE10FA1EDBF6EE007ADB
:1057300070EEA70AFDEEE07A17EE902A23465DF898
:10574000044B1847BDEEC07AF8EEC76A17EE103A60
:10575000013B30EE660AF7EE086A30EE260ABDEE2F
:10576000C00A10EE101A1944D9E7FDEEE07AB8EE3F
:10577000E77A17EE903A013B70EEC70AB7EE087A67
:1057800070EE870AFDEEE00A10EE902A1A44D5E783
:1057900010B40368046BD3F8B03062435DF8044B77
:1057A0001847D0ED0C7A0368F8EEE77A10B427EECC
:1057B000800AD3F8B040B5EEC00AF1EE10FA0BDB68
:1057C000F6EE007A30EE270AFDEEC07A17EE902A48
:1057D00023465DF8044B1847FDEEC07AB8EEE77A31
:1057E00017EE903A013B30EE470AB7EE087A30EEFA
:1057F000070ABDEEC00A10EE102A1A44E8E710B4FA
:105800000368446BD3F8BC30624361435DF8044BDA
:105810001847D0ED0D7A0368F8EEE77A10B420EE61
:10582000270AD3F8BC40B5EEC00AF1EE10FA1ADB35
:10583000B6EE007A30EE070ABDEEC07A17EE101A07
:1058400060EEA70AF5EEC00AF1EE10FA1EDBF6EEE6
:10585000007A70EEA70AFDEEE07A17EE902A234652
:105860005DF8044B1847BDEEC07AF8EEC76A17EE34
:10587000103A013B30EE660AF7EE086A30EE260A6F
:10588000BDEEC00A10EE101A1944D9E7FDEEE07A19
:10589000B8EEE77A17EE903A013B70EEC70AB7EE22
:1058A000087A70EE870AFDEEE00A10EE902A1A449C
:1058B000D5E710B40368446BD3F8C03062435DF899
:1058C000044B1847D0ED0D7A0368F8EEE77A10B470
:1058D00027EE800AD3F8C040B5EEC00AF1EE10FA08
:1058E0000BDBF6EE007A30EE270AFDEEC07A17EEFB
:1058F000902A23465DF8044B1847FDEEC07AB8EEB7
:10590000E77A17EE903A013B30EE470AB7EE087A95
:1059100030EE070ABDEEC00A10EE102A1A44E8E77E
:10592000D0F82C31026B002B07DB02EB430090FB1D
:10593000F2F000EBD070401070476FF0010101FBF6
:105940000320013890FBF2F000EBD0704010404291
:105950007047D0ED4B7A90ED0C0AF8EEE77AB8EE8E
:10596000C00A87EE800A7047D0F82C017047D0F843
:105970003031026B002B07DB02EB430090FBF2F0AF
:1059800000EBD070401070476FF0010101FB032065
:10599000013890FBF2F000EBD070401040427047AD
:1059A000D0ED4C7A90ED0C0AF8EEE77AB8EEC00A2A
:1059B00087EE800A7047D0F830017047D0F8343154
:1059C000426B002B07DB02EB430090FBF2F000EB95
:1059D000D070401070476FF0010101FB03200138C7
:1059E00090FBF2F000EBD070401040427047D0EDD9
:1059F0004D7A90ED0D0AF8EEE77AB8EEC00A87EE20
:105A0000800A7047D0F834017047D0F83831426BC3
:105A1000002B07DB02EB430090FBF2F000EBD070B1
:105A2000401070476FF0010101FB0320013890FB2B
:105A3000F2F000EBD070401040427047D0ED4E7A4B
:105A400090ED0D0AF8EEE77AB8EEC00A87EE800A0C
:105A50007047D0F838017047036870B50446D3F832
:105A600088300D4616469847236832462946204618
:105A7000D3F89030BDE8704018470368D3F89430ED
:105A800018470368D3F8D43018470368D3F8E030D8
:105A900018470368002A10B4D3F8A430046B0EDB57
:105AA00004EB420292FBF4F101EBD1714910B0F921
:105AB0001E215DF8044B013A0A44494218476FF031
:105AC000010101FB0241013991FBF4F101EBD171BC
:105AD00049104942EBE70368D3F83C311847026BA1
