:020000040800F2
:1000000000000520E12F00083D2A00083F2A0008D3
:10001000412A0008432A0008452A00080000000081
:10002000000000000000000000000000F10F0108C7
:10003000472A00080000000091100108F51001088F
:10004000313000083130000831300008313000080C
:1000500031300008313000083130000831300008FC
:1000600031300008313000083130000831300008EC
:1000700031300008313000083130000831300008DC
:1000800031300008313000083130000831300008CC
:1000900031300008313000083130000831300008BC
:1000A00031300008313000083130000831300008AC
:1000B000313000083130000831300008492A00088A
:1000C000313000083130000831300008313000088C
:1000D000313000083130000831300008313000087C
:1000E000313000083130000831300008313000086C
:1000F000313000083130000831300008313000085C
:10010000313000083130000831300008313000084B
:100110003130000831300008552A0008313000081D
:10012000612A00086D2A00083130000831300008CB
:10013000313000083130000831300008313000081B
:10014000313000083130000831300008792A0008C9
:1001500031300008313000083130000831300008FB
:1001600031300008313000083130000831300008EB
:100170003130000831300008852A000800000000F6
:1001800031300008313000083130000831300008CB
:1001900031300008313000083130000831300008BB
:1001A000912A00089D2A0008A12A00083130000881
:1001B000313000083130000831300008313000089B
:0801C000313000083130000865
:1001D00010B5054C237833B9044B13B10448AFF381
:1001E00000800123237010BD4002002000000000A9
:1001F0001CC5020808B5034B1BB103490348AFF304
:10020000008008BD00000000440200201CC5020858
:10021000034613F8012B002AFBD1181A0138704746
:1002200001F0FF01102A2BDB10F0070F08D010F8A7
:10023000013B013A8B422DD010F0070F42B3F6D1AB
:10024000F0B441EA012141EA014122F007047FF0C4
:1002500000070023F0E80256083C85EA010586EA1B
:10026000010685FA47F5A3FA87F586FA47F6A5FA57
:1002700087F68EB9EED1F0BC01F0FF0102F0070263
:1002800032B110F8013B013A83EA010313B1F8D10E
:100290000020704701387047002D06BF35460338EF
:1002A000073815F0010F07D1013015F4807F02BF28
:1002B000013015F4C03F0130F0BC0138704700BF79
:1002C00081F0004102E000BF83F0004330B54FEA07
:1002D00041044FEA430594EA050F08BF90EA020F74
:1002E0001FBF54EA000C55EA020C7FEA645C7FEA07
:1002F000655C00F0E2804FEA5454D4EB5555B8BF2A
:100300006D420CDD2C4480EA020281EA030382EA9A
:10031000000083EA010180EA020281EA0303362D2C
:1003200088BF30BD11F0004F4FEA01314FF4801CFF
:100330004CEA113102D0404261EB410113F0004F11
:100340004FEA03334CEA133302D0524263EB4303C8
:1003500094EA050F00F0A780A4F10104D5F1200E66
:100360000DDB02FA0EFC22FA05F2801841F10001C1
:1003700003FA0EF2801843FA05F359410EE0A5F195
:1003800020050EF1200E012A03FA0EFC28BF4CF0C6
:10039000020C43FA05F3C01851EBE37101F000457C
:1003A00007D54FF0000EDCF1000C7EEB00006EEB89
:1003B0000101B1F5801F1BD3B1F5001F0CD3490813
:1003C0005FEA30004FEA3C0C04F101044FEA44526A
:1003D00012F5800F80F09A80BCF1004F08BF5FEAF1
:1003E000500C50F1000041EB045141EA050130BDD1
:1003F0005FEA4C0C404141EB0101013C28BFB1F5E3
:10040000801FE9D291F0000F04BF01460020B1FA2D
:1004100081F308BF2033A3F10B03B3F120020CDA00
:100420000C3208DD02F1140CC2F10C0201FA0CF0DE
:1004300021FA02F10CE002F11402D8BFC2F1200C43
:1004400001FA02F120FA0CFCDCBF41EA0C019040F9
:10045000E41AA2BF01EB0451294330BD6FEA040442
:100460001F3C1CDA0C340EDC04F11404C4F120022D
:1004700020FA04F001FA02F340EA030021FA04F33F
:1004800045EA030130BDC4F10C04C4F1200220FA96
:1004900002F001FA04F340EA0300294630BD21FAD4
:1004A00004F0294630BD94F0000F83F4801306BF9A
:1004B00081F480110134013D4EE77FEA645C18BF8E
:1004C0007FEA655C29D094EA050F08BF90EA020F25
:1004D00005D054EA000C04BF1946104630BD91EA1D
:1004E000030F1EBF0021002030BD5FEA545C05D120
:1004F0004000494128BF41F0004130BD14F580045F
:100500003CBF01F5801130BD01F0004545F0FE41D2
:1005100041F470014FF0000030BD7FEA645C1ABF07
:10052000194610467FEA655C1CBF0B46024650EA3E
:10053000013406BF52EA033591EA030F41F400216A
:1005400030BD00BF90F0000F04BF0021704730B5F0
:100550004FF4806404F132044FF000054FF00001C5
:1005600050E700BF90F0000F04BF0021704730B586
:100570004FF4806404F1320410F0004548BF40425B
:100580004FF000013EE700BF42004FEAE2014FEAB0
:1005900031014FEA02701FBF12F07F4393F07F4F8B
:1005A00081F06051704732F07F4208BF704793F08E
:1005B0007F4F04BF41F40021704730B54FF46074A1
:1005C00001F0004521F000411CE700BF50EA0102A4
:1005D00008BF704730B54FF000050AE050EA01024D
:1005E00008BF704730B511F0004502D5404261EBBD
:1005F00041014FF4806404F132045FEA915C3FF4FE
:10060000D8AE4FF003025FEADC0C18BF03325FEA9A
:10061000DC0C18BF033202EBDC02C2F1200300FA4B
:1006200003FC20FA02F001FA03FE40EA0E0021FA70
:1006300002F11444BDE600BF70B54FF0FF0C4CF45E
:10064000E06C1CEA11541DBF1CEA135594EA0C0F10
:1006500095EA0C0F00F0DEF82C4481EA030621EA4B
:100660004C5123EA4C5350EA013518BF52EA033586
:1006700041F4801143F4801338D0A0FB02CE4FF038
:100680000005E1FB02E506F00042E0FB03E54FF068
:100690000006E1FB03569CF0000F18BF4EF0010E60
:1006A000A4F1FF04B6F5007F64F5407404D25FEA5C
:1006B0004E0E6D4146EB060642EAC62141EA55510F
:1006C0004FEAC52040EA5E504FEACE2EB4F1FD0C51
:1006D00088BFBCF5E06F1ED8BEF1004F08BF5FEACF
:1006E000500E50F1000041EB045170BD06F0004681
:1006F00046EA010140EA020081EA0301B4EB5C042E
:10070000C2BFD4EB0C0541EA045170BD41F4801125
:100710004FF0000E013C00F3AB8014F1360FDEBF4A
:10072000002001F0004170BDC4F10004203C35DA26
:100730000C341BDC04F11404C4F1200500FA05F3A9
:1007400020FA04F001FA05F240EA020001F000424A
:1007500021F0004110EBD37021FA04F642EB0601C0
:100760005EEA430E08BF20EAD37070BDC4F10C04EA
:10077000C4F1200500FA04F320FA05F001FA04F2AE
:1007800040EA020001F0004110EBD37041F100019A
:100790005EEA430E08BF20EAD37070BDC4F12005A5
:1007A00000FA05F24EEA020E20FA04F301FA05F20D
:1007B00043EA020321FA04F001F0004121FA04F2B5
:1007C00020EA020000EBD3705EEA430E08BF20EA85
:1007D000D37070BD94F0000F0FD101F000464000BF
:1007E00041EB010111F4801F08BF013CF7D041EA41
:1007F000060195F0000F18BF704703F00046520045
:1008000043EB030313F4801F08BF013DF7D043EA15
:100810000603704794EA0C0F0CEA135518BF95EACB
:100820000C0F0CD050EA410618BF52EA4306D1D152
:1008300081EA030101F000414FF0000070BD50EA71
:10084000410606BF1046194652EA430619D094EAFB
:100850000C0F02D150EA013613D195EA0C0F05D1E5
:1008600052EA03361CBF104619460AD181EA030139
:1008700001F0004141F0FE4141F470014FF00000F1
:1008800070BD41F0FE4141F4780170BD70B54FF08C
:10089000FF0C4CF4E06C1CEA11541DBF1CEA13550C
:1008A00094EA0C0F95EA0C0F00F0A7F8A4EB0504EE
:1008B00081EA030E52EA03354FEA013100F08880E5
:1008C0004FEA03334FF0805545EA131343EA1263AE
:1008D0004FEA022245EA111545EA10654FEA002663
:1008E0000EF000419D4208BF964244F1FD0404F51C
:1008F000407402D25B084FEA3202B61A65EB030578
:100900005B084FEA32024FF480104FF4002CB6EB34
:10091000020E75EB030E22BFB61A754640EA0C00B4
:100920005B084FEA3202B6EB020E75EB030E22BFF4
:10093000B61A754640EA5C005B084FEA3202B6EB35
:10094000020E75EB030E22BFB61A754640EA9C00F4
:100950005B084FEA3202B6EB020E75EB030E22BFC4
:10096000B61A754640EADC0055EA060E18D04FEA82
:10097000051545EA16754FEA06164FEAC30343EA22
:1009800052734FEAC2025FEA1C1CC0D111F4801FEF
:100990000BD141EA00014FF000004FF0004CB6E7E8
:1009A00011F4801F04BF01430020B4F1FD0C88BF87
:1009B000BCF5E06F3FF6AFAEB5EB030C04BFB6EB92
:1009C000020C5FEA500C50F1000041EB045170BD85
:1009D0000EF0004E4EEA113114EB5C04C2BFD4EBB2
:1009E0000C0541EA045170BD41F480114FF0000E36
:1009F000013C90E645EA060E8DE60CEA135594EAB2
:100A00000C0F08BF95EA0C0F3FF43BAF94EA0C0FB4
:100A10000AD150EA01347FF434AF95EA0C0F7FF429
:100A200025AF104619462CE795EA0C0F06D152EA7D
:100A300003353FF4FDAE1046194622E750EA410661
:100A400018BF52EA43067FF4C5AE50EA41047FF472
:100A50000DAF52EA43057FF4EBAE12E74A0011D224
:100A600012F5001211D20DD56FF47873B3EB625208
:100A70000ED44FEAC12343F0004343EA505323FA14
:100A800002F070474FF00000704750EA013002D189
:100A90004FF0FF3070474FF00000704753B94AB92C
:100AA000002908BF00281CBF4FF0FF314FF0FF3076
:100AB00000F088B9ADF1080C6DE904CE00F006F83D
:100AC000DDF804E0DDE9022304B070472DE9F047CA
:100AD000089D8E4604468846002B4AD18A42174616
:100AE00062D9B2FA82F64EB1C6F1200301FA06F8D5
:100AF00020FA03F3B74043EA0808B4404FEA174E20
:100B00001FFA87FCB8FBFEF1230C0EFB118843EAA9
:100B1000084301FB0CF29A4209D9FB1801F1FF309E
:100B200080F0EA809A4240F2E78002393B449A1A08
:100B3000A3B2B2FBFEF00EFB102243EA024300FB1D
:100B40000CFC9C4509D9FB1800F1FF3280F0D680DF
:100B50009C4540F2D3803B44023840EA0140A3EB7D
:100B60000C0300211DB1F3400022C5E90032BDE8AD
:100B7000F0878B4205D90DB1C5E900010021084677
:100B8000F5E7B3FA83F1002946D1734502D38242D7
:100B900000F20581841A6EEB030201209046002DBD
:100BA000E5D0C5E90048E2E7002A00F09080B2FAFB
:100BB00082F6002E40F0A4808A1A030C4FEA174EEA
:100BC00080B2BCB20121B2FBFEFC0EFB1C2243EA48
:100BD000024304FB0CF29A4207D9FB180CF1FF38D0
:100BE00002D29A4200F2E080C4469B1AB3FBFEF2A6
:100BF0000EFB123340EA034302FB04F49C4207D984
:100C0000FB1802F1FF3002D29C4200F2CA80024679
:100C10001B1B42EA0C40A5E7C1F120068B4022FADB
:100C200006F71F430EFA01F420FA06F32EFA06FE29
:100C30004FEA1749234300FA01F81FFA87FCBEFB6D
:100C4000F9F01C0C09FB10EE44EA0E4400FB0CFE0C
:100C5000A64502FA01F209D93C1900F1FF3A80F0E9
:100C60009C80A64540F2998002383C44A4EB0E04D7
:100C70001FFA83FEB4FBF9F309FB13444EEA044464
:100C800003FB0CFCA44508D93C1903F1FF3E80F09E
:100C90008280A4457FD9023B3C4443EA0040A4EB58
:100CA0000C04A0FB02EC64457346E14662D35FD0BE
:100CB0005DB1B8EB030264EB090404FA06F622FA0C
:100CC00001F31E43CC40C5E9006400214FE7B1FBAE
:100CD000F2FC010C41EA0E4180B240EA01423B467F
:100CE00038463C46B846BE462026B1FBF7F1A2EB9B
:100CF000080241EA0C4166E7014618E710462CE776
:100D0000C6F120022EFA02F3B740B14020FA02F2F7
:100D10004FEA174E0A43B3FBFEF8BCB20EFB183382
:100D2000110C41EA034108FB04F9B04089454FEA40
:100D3000104380B23ED9791808F1FF3C01D28945B1
:100D40001FD8A1EB0901B1FBFEF909FB04F80EFB6A
:100D5000191192B242EA0142424529D2BA1809F168
:100D6000FF31C4D24245C2D2A9F102013A44BEE7E2
:100D7000F0459DD2BEEB02036CEB070C0138E14657
:100D800096E7A7EB09094944A8F1020CB1FBFEF96B
:100D900009FB04F8DBE773467FE7504666E7084641
:100DA000FDE63B44023A33E7ACF1020C3B441CE75E
:100DB00049469CE7A1EB0901C446B1FBFEF909FBDA
:100DC00004F8C4E7704700BF10B50446406820B976
:100DD0002068BDE810400FF053BD237A012B05D1E8
:100DE0004FF0FF310FF020FE0023237210BD10B52D
:100DF0000446406820B92068BDE810400FF05CBD93
:100E0000237A1BB90FF04CFE0123237210BD0000A2
:100E100010B53A4A01213A4800F0E6F90023394872
:100E2000394C1A461946006810F0BDFB2378002B98
:100E30003ED1364B364A18681268364BC3E900205B
:100E400001221A7208B10FF02BFE334B334A186897
:100E50001268334BC3E9002001221A7208B10FF067
:100E60001FFE304B304A18681268304BC3E900202F
:100E700001221A7208B10FF013FE2D4B2D4A18688B
:100E800012682D4BC3E9002001221A7208B10FF03D
:100E900007FE2A4B00212A4A1B682A4813600123B7
:100EA000516013720068284A23701372C2E900016E
:100EB0002348FFF79CFF2448FFF799FF1E48FFF7E0
:100EC00083FF1A48FFF780FF1248FFF77DFF1F4C92
:100ED0001348FFF779FF0EF069FB0EF043F91C4849
:100EE0000EF0C2FA0EF0AEFA23682BB1194B187847
:100EF0000EF0C4F90023236010BD00BF00EC13C046
:100F00008C080020F0060020A4020020E806002043
:100F10001007002098020020DC060020F8060020C0
:100F20008C020020E0060020FC0600208002002049
:100F3000E4060020000700207402002004070020BF
:100F400068020020080700205C020020A8020020A0
:100F50004400002014BA002008B50121002000F050
:100F60003BF90D48FFF743FF0C48FFF72DFF0C48F6
:100F7000FFF72AFF0B48FFF727FF0B48FFF724FF77
:100F80000A48FFF721FFC82132200EF0A3FABDE87E
:100F900008400EF0EFB800BF800200206802002079
:100FA0005C02002074020020980200208C020020C5
:100FB00008B50121962000F00FF90C48FFF717FF44
:100FC0000B48FFF714FF0B48FFF711FF0A48FFF724
:100FD000FBFE0A48FFF7F8FE0948FFF7F5FE0EF0A2
:100FE000E5FABDE808400EF0BDB800BF740200206D
:100FF000680200205C02002080020020980200208D
:101000008C02002008B50121962000F0E5F80E487A
:10101000FFF7EDFE0D48FFF7EAFE0D48FFF7D4FE9F
:101020000C48FFF7D1FE0C48FFF7CEFE0B48FFF748
:10103000CBFE0EF097F80A480DF073FE0948BDE8A4
:1010400008400EF011BA00BF680200205C020020C8
:101050007402002080020020980200208C020020F0
:1010600015BA00204400002070B50121002000F0D6
:10107000B3F81648FFF7BBFE1548FFF7A5FE154865
:10108000FFF7A2FE1448FFF79FFE1448FFF79CFEEF
:10109000134E1448FFF798FE13480EF0E5F9134C71
:1010A0003368A3420DD0124D28780EF0E7F8114BAB
:1010B000204619680EF068F8346010B928780EF0F0
:1010C0004FF9BDE870400EF055B800BF98020020FF
:1010D000680200205C0200207402002080020020D0
:1010E000A80200208C02002044000020307D03086C
:1010F00014BA00202C7D030810B50D4C01210020EE
:1011000000F06AF82046FFF75FFE0A48FFF75CFE32
:101110000948FFF759FE0948FFF756FE0848FFF750
:1011200053FE2046FFF750FE064B00221A6010BD0A
:10113000680200205C02002074020020800200206F
:101140008C020020A802002070B50121962000F03A
:1011500043F81748FFF74BFE1648FFF748FE1648BE
:10116000FFF745FE1548FFF72FFE154E1548FFF710
:101170002BFE1548FFF728FE144C0EF017FA0DF061
:10118000F1FF3368A3420DD0114D28780EF076F8A8
:10119000104B204619680DF0F7FF346010B928781D
:1011A0000EF0DEF87F210320BDE870400DF040BE58
:1011B000680200205C0200208C02002074020020E3
:1011C000A8020020800200209802002004E002080B
:1011D00014BA002000E002080A46014601480AF05D
:1011E00077BB00BF8C08002070B58EB00C4605465A
:1011F000164600212C2203A82AF05CFCA0224FF402
:10120000F0734FF4C06001A90A96CDE901234FF4B1
:1012100088730522CDE90432FF2206920722CDE928
:1012200008024FF4A0722846CDE90B2322460AF0AB
:10123000D5FA23460322074928460AF0FCFA21463C
:1012400028460AF02EFB214696200EB0BDE87040DD
:10125000FFF7C2BF74DB020808B528B9054B682147
:10126000054A06482AF0CCF84068BDE8084010F06E
:10127000FFBC00BF74C502085FDB02087DC5020821
:101280002DE9F8438046BDF8200091460D46C01A6E
:101290001C46FFF767F906460F46A9EB0500FFF766
:1012A00061F902460B4630463946FFF7EFFA06462B
:1012B0000F46A8EB0500FFF755F902460B463046EE
:1012C0003946FFF7B9F906460F462046FFF74AF9B7
:1012D00002460B4630463946FEF7F8FFFFF7BEFBE5
:1012E00080B2BDE8F8832DE9F04707460E4686B088
:1012F000C3F3072A501ADDB2C3F30744FFF732F9EC
:101300008046B81B89465FFA8AFAFFF72BF9064632
:101310009DF839000F46E4B2A0EB0A00FFF722F96E
:1013200042464B46FFF7B2FA32463B46FFF784F996
:10133000CDE900015046FFF715F902460B46DDE9FD
:101340000001FEF7C3FFFFF789FB5FFA80FA9DF803
:101350003A00001BFFF706F942464B46FFF796FAA4
:1013600032463B46FFF768F9CDE900012046FFF71A
:10137000F9F802460B46DDE90001FEF7A7FFFFF78B
:101380006DFBC4B29DF83800401BFFF7EBF84246F6
:101390004B46FFF77BFA32463B46FFF74DF90646D0
:1013A0000F462846FFF7DEF802460B463046394620
:1013B000FEF78CFFFFF752FB0023C0B260F3070378
:1013C0006AF30F2364F31743184606B0BDE8F087AD
:1013D000C31C064923F003030A681344B3F5806F66
:1013E0009DBF03480B60801800207047AC020020AE
:1013F000C00200201E4B4FF4000C1A6B42F4800216
:1014000013B51A6300241B6B4FF480621948042142
:1014100003F4800304620193019B174BC0E900347D
:101420008023C0E902344FF48053C0E904234FF411
:101430008043C0E906340323C0E909134FF40013C5
:10144000C0E90BC308F06EF922460521382007F0E9
:101450000DFF382007F03CFF22460521392007F018
:1014600005FF392002B0BDE8104007F031BF00BFD2
:1014700000380240480700201064024001F00EBD11
:1014800001F02EBC01F0A6BB01F07ABD01F02CBD2D
:1014900001F08CBD08B5084B834206D0074B40F2E3
:1014A0000111074A074829F0ABFF074B1868BDE850
:1014B000084007F0AFBA00BF48070020A0C50208E7
:1014C00085DB0208C4C50208C406002008B5074B26
:1014D000834205D0064BEF21064A074829F090FFCA
:1014E000064B1868BDE8084007F0C6BB8809002015
:1014F000FCC50208BDDB0208C4C50208C8060020FE
:1015000008B5074B834205D0064BF821064A074829
:1015100029F076FF064B1868BDE8084007F0ACBB21
:1015200088090020FCC50208A0DB0208C4C5020827
:10153000C806002001F070BC4FF47F3200214FF04C
:10154000404008B52AF0B6FA4FF47F220021024845
:10155000BDE808402AF0AEBA00FC03C000224FF4F8
:1015600000411A4808B508F0CDFE64200DF0D2FB0A
:10157000002117480CF012FD64200DF0CBFB402138
:10158000144808F0B9FE012804D001224021114876
:1015900008F0B8FE64200DF0BDFB002201210E48CA
:1015A00008F0B0FE64200DF0B5FB002280210B484E
:1015B00008F0A8FE64200DF0ADFB00224FF480710E
:1015C0000748BDE8084008F09DBE00BF0004024087
:1015D000F4070020001C02400020024000180240D6
:1015E0000014024010B50DF071FE044609480DF0DC
:1015F00098FB20460DF08FFB002108460DF0AEFC55
:101600000DF020FF01224FF480710348BDE8104027
:1016100008F078BE15BA00200014024030B595B02D
:101620001022002102240AA80F252AF043FA0021E3
:10163000142203A82AF03EFA1B4B08A81A6C42F0A9
:1016400080521A641B6C194A03F080530193019B6A
:10165000136823F4404343F480431360136801226A
:10166000129403F440430293029B4FF48033CDE97C
:1016700008234FF48003CDE90E439023CDE91053A6
:10168000052313930BF00EFA00214FF4A05303A887
:10169000CDE905134FF480530321CDE9035407939B
:1016A0000BF0E8FB15B030BD003802400070004080
:1016B0002DE9F04FA9B00125FFF79CFE1022002173
:1016C0001BA82AF0F7F9002407F022FE4FF0104182
:1016D000C84B1BA8ADF86C501E94CDE91C1307F045
:1016E00035FE17231BA88DF86D508DF874308DF8DA
:1016F0007A5007F02BFE042007F018FEBFF34F8F3F
:10170000BFF36F8FBC4AC2F85042BFF34F8FBFF395
:101710006F8F536943F400335361BFF34F8FBFF3AF
:101720006F8FC2F88440BFF34F8FD2F8803043F6FA
:10173000E070C3F3C901C3F34E335B0103EA000554
:101740008A4645EA8A74BAF1010AC2F86042F8D2C0
:10175000203B13F1200FF1D1BFF34F8F536943F4B6
:1017600080335361BFF34F8FBFF36F8F07F036FDA8
:101770000024FFF753FF142200211BA82AF09AF936
:101780009E4B48F210019E481A6B012510274FF01E
:10179000030942F010029B4EDFF888B24FF00408B4
:1017A0001A631A6B02F010020292029A1A6B42F04C
:1017B00002021A631A6B02F002020392039A1A6B76
:1017C00042F001021A631A6B02F001020492049AB9
:1017D0001A6B42F040021A631A6B02F04002059243
:1017E000059A1A6B42F400721A631A6B02F40072C3
:1017F0000692069A1A6B42F008021A631A6B02F0FC
:1018000008020792079A1A6B42F004021A631A6BD5
:1018100002F004020892089A1A6B42F480621A637A
:101820001A6B02F480620992099A1A6B42F0200244
:101830001A631A6B02F020020A920A9A1A6B42F497
:1018400080721A631A6B02F480720B920B9A1A6BF5
:1018500042F080021A6300221B6B03F080030C939A
:101860000C9B08F04FFD01220821674808F04AFD53
:1018700001224FF48051654808F044FD00224FF4E6
:101880000151634808F03EFD002201215F4808F045
:1018900039FD0022C0215F4808F034FD0022C0213C
:1018A0005D4808F02FFD01224FF4E0715B4808F01D
:1018B00029FD1BA95248CDE91B75CDE91D4908F04A
:1018C0009DFB08231BA95048CDE91B35CDE91D44DC
:1018D00008F094FB41F201031BA94C48CDE91B35EC
:1018E000CDE91D4408F08AFB4FF401531BA9484879
:1018F000CDE91B35CDE91D4408F080FBC0231BA9B1
:101900004448CDE91B35CDE91D4908F077FB80231C
:101910001BA94148CDE91B35CDE91D4408F06EFBFC
:1019200040231BA93C48CDE91B35CDE91D4908F0F2
:1019300065FB4FF4E0721BA93848CDE91B25CDE9C2
:101940001D4408F05BFB4FF400721BA933481D9443
:10195000CDE91B2408F052FB4FF400421BA9284894
:10196000CDE91B25CDE91D4408F048FBFFF742FDFA
:101970002B4A40231BA93046B460F461B462C6E927
:1019800000244FF4C072C6E905324FF400624FF4F0
:101990008053C6E9082302230722CDE91F93CDE92E
:1019A0001B322193C6E90387CDE91D820BF0BEFDF2
:1019B00059464FF6FF7230460194CBE90057CBE908
:1019C00002540BF0D3FD284607F02CFC02235946A5
:1019D0004FF6FF723046CBE90037CBE902540BF0EB
:1019E000C5FD082359464FF6FF723046CBE9023455
:1019F0001AE000BF1B00000300ED00E000380240C9
:101A00000004024014070020002802400020024089
:101A1000001C02400008024000180240001402406E
:101A2000400100A0CC060020CBE900970BF09EFD02
:101A30004FF40C72594630460192019ACBF8085087
:101A4000CBF80C204FF6FF72CBE900870BF08EFD30
:101A500040F22B713046C24E0BF0A7FD43F2D2018B
:101A60004FF020426420DFF864B3116007F0DAFB26
:101A7000BC4BBD4A30463462C6E90032C6E9024575
:101A8000C6E90444C6E9064408F0C2FD21463046D2
:101A900009F0FBFC21463046B44E09F01CFDB44869
:101AA000B44A18210462C0E900254FF4A062C0E9DD
:101AB0000287C0E90412C0E906440AF0B1FD07F04C
:101AC0000DFA07F053F95C2007F010FCAA4AAB4866
:101AD0003462C6E900023046C6E90245C6E904445C
:101AE000C6E9064408F094FD2146304609F0CDFCD5
:101AF0002146304609F0EFFC284609F011FD4FF071
:101B0000800C9F4840239F4A84600463C0E903C35C
:101B10000823C0E90024C0E90834C0E90544C0E94D
:101B20000A4407F0DDFC9848984B05620360848006
:101B3000C0E9054407F036FC214634221BA829F0F1
:101B4000B9FF934B4FF000524FF02E0E5846CBF892
:101B50001850ABF834408BF83640CBE900344FF0E6
:101B60008043CBE902320D2240F21623CBE907E293
:101B7000CBE9044940F21D1240F20E29CBE909924B
:101B800040F229124FF00509CBE90B3209F05CFD58
:101B9000FF204FF4F0714FF488721B942692ADF839
:101BA0009C408DF89E40CDE920044FF48060CDE943
:101BB00022094FF04040CDE91C14CDE92401CDE9C4
:101BC0001E241BA92246584609F008FEDBF8001027
:101BD000DFF8FCB14A6B584622F006024A636D4AB0
:101BE000CBE90244CBE90024CBE90A44CBE90C441D
:101BF00007F08BFF29465846DFF8D8B108F03CF8CB
:101C00003A46214610A829F055FF1C22214614A867
:101C10000F94CDE90D4429F04DFF21462C221BA83D
:101C200029F048FF5C4A5846CBF80840CBE900252C
:101C300009225A4DCBE90324CBE905440BF022FFDE
:101C40004FF4805310A9584610930CF033F85846BF
:101C50000BF048FF0DA958460F94CDE90D440CF048
:101C60009FF9602214A958461A94CDE914292246F6
:101C7000CDE91644CDE918840BF096FF4FF40052DD
:101C80001BA958461F9422942594CDE920244FF097
:101C90000072CDE91B44CDE92324CDE91D440CF0AD
:101CA000C9F9584600F0EAFD21463A461BA829F03A
:101CB00001FF4FF080426323284616942C61AC61EB
:101CC000C5E90023CDE91444C5E9024A0BF0DAFE68
:101CD0004FF480531BA928461B930BF0EBFF14A96C
:101CE0002846149416940CF05BF928460BF04CFD32
:101CF00001F0A0F901F09DF9404600F051FE0DF011
:101D00005DFCFFF719FC00F0D1FF254A254930465C
:101D100006F0F2FE012806D0234B4FF4DE71234A71
:101D2000234829F06DFB234A1E49234806F028FE6C
:101D3000012804D0214B40F2BF111C4AF0E7204A91
:101D400021461D4807F0B8FE1E49164806F07AFEE7
:101D50000128054640D01C4B40F2C311134ADFE76F
:101D600034090020005C0040AF7470008809002036
:101D700040080020001000A0110410000054004092
:101D80007C0A002000000550CC0A002000300240F0
:101D90000068014000B0024000000140A807002098
:101DA000C8060020D11300080BC6020880DB020819
:101DB000C4C50208C40600204807002020C6020847
:101DC00095140008C006002035C602088C080020C3
:101DD000DC090020F40700200F2000F0E1FD0EF0E8
:101DE000C5FC31480EF084FD304B314A2146186065
:101DF00028460EF0C1FD2F4B2F4A21461860284679
:101E00000EF0BAFD2D4B2E4A2146186028460EF0E2
:101E1000B3FD2C4B2C4A2146186028460EF0ACFD31
:101E20002A4B2B4A2146186028460EF0A5FD294B67
:101E3000294A2146186029480EF0D2FC284B294A2D
:101E40002146186028480EF0CBFC284B284A186021
:101E5000284929480EF0C4FC284B294A1860294912
:101E600029480EF0BDFC294B294A21461860294813
:101E70000EF0B6FC284B294A2146186028480EF07F
:101E8000AFFC284B284A2146186028480EF0A8FCD1
:101E9000274B284A2146186027480EF0A1FC274B03
:101EA00018600EF07DFCFEE740DC0208F006002022
:101EB00030DC0208EC06002020DC0208E8060020E6
:101EC00010DC0208E406002000DC0208E006002026
:101ED000F0DB0208DC0600204CDD02087D1400085F
:101EE0001007002028DD0208433000080C070020FE
:101EF00004DD0208E8DB020881140008080700205E
:101F0000E0DC0208DCDB020885140008040700207E
:101F1000BCDC0208891400080007002098DC0208D5
:101F20008D140008FC06002074DC020891140008DF
:101F3000F806002050DC02084D2E0008F4060020B0
:101F40000268034B9A4201D107F05AB9704700BFAB
:101F50000010004070470000034B1A68516A536A32
:101F60005B1A8342FBD37047A807002007F05AB9D9
:101F700007B50B0C40BA49BA6A465BBAADF8000027
:101F80000A48ADF802300623ADF804107821006845
:101F900006F042FE012805D0054B5B21054A0648A4
:101FA00029F02EFA03B05DF804FB00BFC80600203C
:101FB0003DC60208BADD02080BC702081FB50023A0
:101FC00042BA0F480C460393042392B2782100933F
:101FD00003AB006806F0DAFD012805D0094B692142
:101FE000094A0A4829F00CFABDF80C20BDF80E3059
:101FF00052BA5BBA120412FA83F3236004B010BD24
:10200000C80600203DC60208A9DD02080BC7020869
:1020100037B5154642BA13480C46AB0092B200934E
:102020000B460068782106F0B1FD012807D1234650
:102030000022954203F1040307D803B030BD0A4BD8
:1020400078210A4A0A4829F0DBF933F8040C0132F6
:1020500033F8021C40BA49BA000410FA81F143F87F
:10206000041CE6E7C80600203DC602088DDD020814
:102070000BC702080246084808B500680B467821DD
:1020800006F0CAFD012805D0044B8A21044A054800
:1020900029F0B6F908BD00BFC80600203DC60208F9
:1020A00070DD02080BC7020810B5204C00224FF467
:1020B0000051204608F026F9012007F0B3F801226C
:1020C0004FF40051204608F01DF9012007F0AAF84E
:1020D00001228021164808F015F96420FFF73CFF23
:1020E00001221448114608F00DF96420FFF734FF6F
:1020F00020460122402108F005F901224FF48071A9
:102100000D4808F0FFF8C820FFF726FF00210B4814
:102110000BF0F6FE6420FFF71FFF01224FF4004191
:102120000748BDE8104008F0EDB800BF001C0240B1
:10213000001802400020024000140240F407002072
:10214000000402400D4B82B00F216FF001001A6CA9
:1021500042F080521A641A6C02F080520092009A87
:102160005A6C42F480425A6400225B6C03F4804350
:102170000193019B02B007F079B800BF003802401C
:10218000026882B0084B9A420BD1D3F8302803F58D
:10219000006342F480521A631B6B03F48053019373
:1021A000019B02B0704700BF003002402DE9F041B2
:1021B0008CB007461422002107A829F07BFC3A685E
:1021C000514B9A4240F09D80504B03260D244FF016
:1021D00002085A6B07A94E48002542F001025A63D3
:1021E0005A6B02F001020192019A1A6B42F010023E
:1021F0001A631A6B02F010020292029A1A6B42F0F2
:1022000008021A631A6B02F008020392039A1A6B0F
:1022100042F040021A631A6B02F040020492049AE0
:102220001A6B42F080021A631A6B02F08002059268
:10223000059A1A6B42F001021A631B6B03F001034B
:102240000693069B6023CDE90738CDE90A6407F0C1
:10225000D5FE082307A92F480B94CDE90738CDE90F
:10226000095607F0CBFE4FF4007307A92A480B94D8
:10227000CDE90738CDE9095607F0C0FE4FF4BC435D
:1022800007A926480B94CDE90738CDE9095607F090
:10229000B5FE502307A922480B94224CCDE90738FC
:1022A000CDE9095607F0AAFE4FF000731E4A4FF41D
:1022B00080614FF480404FF4003CA662C4E90023E3
:1022C0004FF48053C4E904134FF48073C4E9060348
:1022D00004232046C4E908C34FF40003C4E90255AF
:1022E000C4E90B3507F01EFA08B1FFF733FE4E20A4
:1022F00000220521BC64A76306F0B8FF4E2006F05B
:10230000E7FF0CB0BDE8F081000005500038024046
:1023100000100240000C024000180240001C024065
:10232000000002401C0A0020286402400E4B07B542
:1023300002689A4215D1A3F5F04305215A201A6B81
:1023400042F400021A6300221B6B03F400030193A2
:10235000019B06F08BFF5A2003B05DF804EB06F0FA
:10236000B7BF03B05DF804FB00B0024010B5AAB0DF
:1023700004461422002104A829F09CFB8422002199
:1023800009A829F097FB2368334A934235D14FF4CB
:10239000804309A809930AF03FFE08B1FFF7DAFD70
:1023A0002E4C4FF440704FF0010C04A9236B43F006
:1023B00002032363236B03F002030093009B1223A9
:1023C000CDE9040303232648CDE906C3042308937B
:1023D00007F014FE236C1F200022052143F4001394
:1023E0002364236C03F400130193019B06F03EFF6A
:1023F0001F2006F06DFF2AB010BD1A4A9342FAD191
:102400004FF4803309A809930AF006FE08B1FFF7DC
:10241000A1FD124C4FF4C07201211348236B43F00D
:1024200080032363236B03F080030293029B122338
:10243000CDE904230323CDE90613042304A908935B
:1024400007F0DCFD236C43F400032364236C03F4E6
:1024500000030393039BCEE7005400400038024082
:1024600000040240005C0040001C0240174A08B50E
:102470000368934214D102F5F2324FF4807114488C
:10248000136C23F40013136407F09CFE10484FF400
:10249000007107F097FE1F20BDE8084006F026BF38
:1024A0000C4A934210D102F5EE3280210A48136C97
:1024B00023F40003136407F085FE4FF4807106488F
:1024C000BDE8084007F07EBE08BD00BF00540040D4
:1024D00000040240005C0040001C024070B5B0B037
:1024E0000446142200210AA829F0E4FA84220021DB
:1024F0000FA829F0DFFA22686C4B9A4240F0D48092
:1025000008230FA80F933C2314930223CDE915331E
:10251000012319930AF080FD08B1FFF71BFD644BFE
:10252000002402250E265A6C0AA9624842F08062F5
:102530005A645A6C02F080620192019A1A6B42F05E
:1025400010021A631A6B02F010020292029A1A6BBE
:1025500042F040021A631A6B02F040020392039A9F
:102560001A6B42F400721A631A6B02F4007204923E
:10257000049A1A6B42F008021A631A6B02F00802FE
:102580000592059A1A6B42F004021A631A6B02F064
:1025900004020692069A1A6B42F480621A631A6B5E
:1025A00002F480620792079A1A6B42F480721A63EF
:1025B0001A6B02F480720892089A1A6B42F00102B8
:1025C0001A631B6B0E9603F001030993099B1023FA
:1025D000CDE90C44CDE90A3507F010FD4FF4005366
:1025E0000AA935480E96CDE90A35CDE90C4407F025
:1025F00005FD4AF6FC730AA930480E96CDE90A3566
:10260000CDE90C4407F0FAFC40230AA92C480E96A9
:10261000CDE90A35CDE90C4407F0F0FC4FF48063B6
:102620000AA928480E96CDE90A35CDE90C4407F0F1
:10263000E5FCF7230AA924480E96CDE90A35CDE931
:102640000C4407F0DBFC4FF480530AA91A48CDE98B
:102650000A350923CDE90C440E9307F0CFFC4FF463
:102660008C430AA919480E96CDE90A35CDE90C44E8
:1026700007F0C4FC04230AA915480E96CDE90A35D3
:10268000CDE90C4407F0BAFC22460521582006F09B
:10269000EDFD582006F01CFE59202246052106F0CB
:1026A000E5FD592006F014FE30B070BD0068014011
:1026B000003802400010024000180240002402408E
:1026C000000C0240000802400028024000200240A6
:1026D00000000240142200212DE9F0418AB0044696
:1026E0000DEB020029F0E6F922682C4B9A4251D1F9
:1026F0002B4B0225032409269A6B4FF0040805A9E9
:10270000284842F0020200279A639A6B02F0020204
:102710000192019A1A6B42F010021A631A6B02F0CE
:1027200010020292029A1A6B42F002021A631A6BAA
:1027300002F002020392039A1A6B42F008021A6333
:102740001B6B03F008030493049BCDE90585CDE9D9
:10275000084607F053FC402305A91348CDE9053589
:102760000A23CDE90774099307F048FC05A90E4830
:102770000996CDE90585CDE9077407F03FFC4FF4D4
:10278000605305A909480996CDE90535CDE90774D7
:1027900007F034FC0AB0BDE8F08100BF001000A0D3
:1027A000003802400010024000040240000C0240C9
:1027B000026808B50B4B9A4213D10B4A04210B480F
:1027C000936B23F00203936307F0FCFC4421084859
:1027D00007F0F8FC4FF460510648BDE8084007F0E8
:1027E000F1BC08BD001000A00038024000100240FB
:1027F00000040240000C024010B588B004461422C8
:10280000002103A829F056F92368194A93420BD1F5
:10281000184B5A6C42F001025A645B6C03F00103DE
:102820000093009B08B010BDB3F1804FFAD103F5BF
:102830000E3303A910481A6C42F001021A641A6C94
:1028400002F001020192019A1A6B42F001021A632E
:102850004FF400421B6B03F001030293029B02231F
:10286000CDE903230123079307F0C8FBDAE700BF94
:1028700000000140003802400000024010B586B060
:1028800004461422002101A829F014F922680E4BF5
:102890009A4216D103F59C3301A90C481A6B42F0F9
:1028A00001021A634FF480721B6B03F00103009363
:1028B000009B0223CDE9012304930123059307F034
:1028C0009DFB06B010BD00BF0000014000000240AB
:1028D000F0B5002387B00393294B1E68002E4DD11D
:1028E0000122022703250C241A6001A9254B264842
:1028F0009A6B42F001029A639B6B03F00103009311
:10290000009B4FF68373CDE90454CDE9013707F0FE
:1029100075FB48F2331301A91C480594CDE9013732
:10292000CDE9036507F06AFB4CF2037301A918486F
:102930000594CDE90137CDE9036507F05FFB4FF65C
:102940003F0301A913480594CDE90137CDE903659B
:1029500007F054FB282301A90F480594CDE901375E
:10296000CDE9036507F04AFB082301A90B4805944C
:10297000CDE90137CDE9036507F040FB07B0F0BDB5
:10298000F00A002000380240001002400018024007
:10299000000C024000140240001C024000080240EB
:1029A000214B1A6C42F0100270B588B01A641B6C8F
:1029B000054601A903A803F010030293029B0AF045
:1029C0000DFB069B4BBB0AF0F9FA184E184B33600F
:1029D00040F2E733F360174BB0FBF3F3013B3046B3
:1029E000736000233361B360B3610BF04BF80446AE
:1029F00080B930460AF002FF044658B9362006F086
:102A000067FC0F2D0DD822462946362006F02EFCF5
:102A1000094B1D60204608B070BD0AF0CFFA400097
:102A2000D3E70124F6E700BF00380240F40A002093
:102A30000010004040420F00400000207047FEE7B9
:102A4000FEE7FEE7FEE77047014808F087B800BFE1
:102A50008809002001480AF014BF00BFF40A0020D2
:102A6000014806F06BBF00BF48070020014806F090
:102A700065BF00BF1C0A0020014809F05BB900BF18
:102A800000CF0020014806F0E9BD00BF7C0A00200D
:102A9000014808F046BE00BF8C080020FFF7F8BFD1
:102AA000014807F05EB800BFDC0900200120704734
:102AB00008B529F0FFF8162303604FF0FF3008BD7A
:102AC00008B529F0F7F816230360FEE770B50D4648
:102AD00014460E46731B9C4201DC204670BDAFF3CA
:102AE000008006F8010BF5E770B50D4614460E465A
:102AF000731B9C4201DC204670BD16F8010BAFF33E
:102B00000080F5E74FF0FF3070474FF4005300208E
:102B10004B60704701207047002070470B4A034606
:102B2000116810B509B90A491160106809490A4CC1
:102B30000344091B8B4206D929F0BCF80C2303601F
:102B40004FF0FF3010BD1360FCE700BF400B0020CA
:102B50003013022000000520000A0000020F10B50B
:102B600002D0012A15D010BDC0F30A03B3F5A07F2F
:102B70000AD2C0F3CA20B0F5887F3FBF4FF4A072DD
:102B800002FB00110222CA540C4A1368013313607D
:102B9000E9E7C0F30A03B3F5A07F09D2C0F3CA2066
:102BA000B0F5887F3EBF4FF4A07404FB0011CA54F7
:102BB000024A536801335360D5E700BF648B00209D
:102BC000034B186818B103685868C0F50050704787
:102BD000608B002083682DE9F74F0746186805F0E1
:102BE00067FF2C4D7A682C4B1A604FF400532A462D
:102BF0000021386806F0BCFC044620BB824605462E
:102C0000DFF8A480DFF88C9006F006FBA0EB0A0248
:102C1000322A0DD9D8F800308246D8F804100B4477
:102C20001E491C1B0B60B4FBF2F41D4A14601C46C9
:102C30007B681B685E68C6F50056B54207D1032065
:102C40000FF0F0FB0FE00A2006F0ECFACDE7154B91
:102C5000D3F800B00FD82B469E4211D8731BB54253
:102C600088BF0023EE183546CEE759F82500013518
:102C70005946FFF773FFB5F5005FF6D30025EAE785
:102C800059F8230059460193FFF768FF019B013370
:102C9000E2E700BF600B0020608B0020480B0020A3
:102CA0004C0B002004000020648B002010B54FF472
:102CB000AA3400210748224628F0FCFE22460021C3
:102CC000054828F0F7FE224600210448BDE81040E0
:102CD00028F0F0BE00E817C0009416C0004015C0F0
:102CE0002DE9F0470022A4B00327DFF82081064633
:102CF00010AB1146012000970EF0D0FBC8F8000081
:102D000028B93B4B73213B4A3B4828F079FB2C22E6
:102D1000002105A8356828F0CDFEA0224FF4F073FD
:102D20004FF4C060354C03A9DFF8E4900C94DFF851
:102D3000E4A0CDE903234FF488730522CDE90632E0
:102D4000FF2208920722CDE90A024FF4A07228461A
:102D5000CDE90D23012208F041FD01233A4628491F
:102D6000284608F068FD2846264D012108F099FD07
:102D70004FF0FF31D9F800000EF062FE012803D0B9
:102D8000214B7C211B4ABFE70EF044F9DAF80070B2
:102D9000CAF800500EF062F90221306808F0D4FD44
:102DA0003368002564211B68D8F80000D3F82C2173
:102DB000C3F82C51C3F82C710EF042FE2B462A4664
:102DC0002946D9F800000EF0EEFB012803D00E4B87
:102DD0009521084A98E729464FF4AA32204625460D
:102DE00028F068FE0C203C460FF01CFBC0E700BF3B
:102DF0003AC70208CCDD02084AC7020800E817C03B
:102E0000DCDD0208009416C03DC602086C8B002071
:102E1000F006002004000020002307B5019301A95B
:102E2000094B18680EF00FFD019B4BB14FF0E023EA
:102E30004FF08052C3F8042DBFF34F8FBFF36F8F55
:102E400003B05DF804FB00BF6C8B002070B500245C
:102E5000114E0020FFF7B4FE844288BF00F50050F9
:102E6000001B7F2803D801200FF0DCFAF1E704F102
:102E7000800306EB8400B3F5005F8CBFC4F50055FA
:102E80008025A9002C4489B20CF0E8FBB4F5005F62
:102E900028BF0024DDE700BF600B002038B50F4CD1
:102EA0000F4D4FF0FF3120680DF0BEFD0CF001FA20
:102EB00082034FEA10434FF0000054BF022303F097
:102EC00001032B700CF07CFA06480CF080FA2068A5
:102ED0000DF0E6FD0F200FF0A5FAE2E7E80600206E
:102EE000808B0020888B0020DFF88C800024DFF8A6
:102EF0008C901D4D80B54FF0FF31D8F800000DF0DB
:102F000093FD1A4E0CF080FA192280B2A9F8000045
:102F1000B9F800309BB2B3FBF2F3154A13800CF002
:102F20007DFA30600CF084FA82463068FDF70AFBC7
:102F300006460F465046FDF705FB02460B46304657
:102F40003946FDF7A3FC22462B46FDF775FBFDF73E
:102F500085FD084B80B21880D8F800000DF0A0FD68
:102F60000F200FF05FFAC6E700005940708B002079
:102F7000848B0020828B0020E0060020748B0020D0
:102F8000084C094D08B54FF0FF3120680DF04CFD9D
:102F900028460CF01CFA20680DF082FD0F200FF07F
:102FA00041FAF0E7E4060020888B002038B50A4C8F
:102FB0000A4D4FF0FF3120680DF036FD0CF079F925
:102FC000030C80B22B60686020680DF069FD03205F
:102FD0000FF028FAEDE700BFDC060020788B002018
:102FE000DFF834D0002103E00C4B5B584350043130
:102FF0000B480C4B42189A42F6D30B4A02E00023CE
:1030000042F8043B094B9A42F9D305F0FFFF28F040
:1030100057FEFEF74DFB704700000520042F040803
:10302000000000203802002040020020301302205F
:10303000FEE7704708B500F08BFDBDE8084000F0E2
:1030400015BD00F087BD40687047416070470000C3
:103050004FF0E022D2F8FC3D43F08073C2F8FC3D13
:10306000054B064AD3F8B01F0A43C3F8B02F1A68BD
:1030700042F001021A607047001000E055CEACC566
:10308000521A02EB5302B2FBF3F07047014B58683F
:10309000704700BF001000E0704710B504460C21D7
:1030A00028F064F9204610BD036810B51B6904467A
:1030B00031B19847A26863689B1A0344636010BDEE
:1030C0009847A060FBE70000024B7020024A1360A3
:1030D000DB68184714000020C88B0020704710B52B
:1030E0000446042128F042F9204610BD73B50E4E67
:1030F0000D461446336813B9002002B070BD1B6939
:10310000702098470028F7D03368702001AA0DF18D
:1031100006015B699847BDF8043001202B60BDF8BB
:1031200006302360E9E700BFC88B00207FB501238C
:103130008DF817204FF47A72CDE901320DF11702A4
:1031400000920A460146054807F050FB10B10348BB
:1031500007F0AFFA07B05DF804FB00BF34090020A8
:103160007FB500230A464FF47A718DF8173001239A
:10317000CDE901310DF1170100910146054807F035
:103180000FFC10B1034807F094FA9DF8170007B040
:103190005DF804FB34090020032823D8DFE800F0A1
:1031A000020B131A104B102110481A68B2FA82F25F
:1031B000520907F0A7B80C4B40215A68B2FA82F2C4
:1031C00052090B48F5E7084B80219A68B2FA82F25F
:1031D0005209F6E7044B40210648DA68B2FA82F257
:1031E0005209E6E7704700BFCC8B00200004024084
:1031F0000008024000180240032823D8DFE800F04E
:10320000020B131A104B102110481A68003A18BF0D
:10321000012207F077B80C4B40215A68003A18BFDA
:1032200001220B48F5E7084B80219A68003A18BF45
:103230000122F6E7044B40210648DA68003A18BF3D
:103240000122E6E7704700BFCC8B0020000402405B
:10325000000802400018024003280FD8DFE800F001
:103260000206090B1021064807F051B84021054815
:10327000FAE78021FBE740210348F5E7704700BFEC
:1032800000040240000802400018024008B503286C
:1032900013D8DFE800F0020A0D0F1021084807F0EC
:1032A0002BF8431E5842584108BD40210548F6E717
:1032B0008021FBE740210448F1E70020F1E700BF4F
:1032C00000040240000802400018024070B5084D9A
:1032D00000240126E0B2FFF7D9FF18B12B68012BBB
:1032E00018BF2E6001340435052CF3D170BD00BF2A
:1032F000CC8B0020012380F8781080F8793070475B
:103300000020704741640039024B18BF0121197039
:10331000704700BFF306022000207047836B0BB19B
:103320000846184770474FF6FF70704740680368BB
:103330009B6918477047000038B5044600F0D2FC7E
:1033400023682046D3F88850074BD4E90F12A847CA
:103350000023064D84F84A302846FFF779FE012302
:10336000256184F8703038BD000000C0DC8B00207F
:1033700000F082BC00F086BC70B500F0D1FC1049B2
:103380000023C1F88430BFF34F8FD1F8803043F66B
:10339000E074C3F3C900C3F34E335B0103EA0406D0
:1033A000024646EA8275013AC1F87452F9D2203BCE
:1033B00013F1200FF2D1BFF34F8FBFF36F8F70BDAA
:1033C00000ED00E000F0AEBC00F032BC00F0ACBCA0
:1033D00000F0B4BC00F036BC10B5044611F06CF837
:1033E00023682046D3F8AC30BDE81040184710F0F1
:1033F000C1BA10B504467C2127F0B8FF204610BDA5
:1034000090F834100D4B10B590F878401A788C4233
:1034100009D03AB90A490B4A088814881080012259
:103420000C801A7010BD002AFCD0064A044914888A
:1034300008880C8010800022F3E700BFEC06022011
:10344000EA060220E806022070B50D46194635B995
:10345000094B40F2D221094A094827F0D1FFC0E9BF
:103460000F52003A074B18BF01221A700368BDE8DB
:103470007040D3F88C30184777C70208AFC70208EE
:10348000FDC70208F206022008B5094B1B888B42D3
:1034900003D8084B1B88934205D9074B9E21074A46
:1034A000074827F0ADFF074B1980074B1A8008BD6E
:1034B000E8060220EA06022042C80208A5C802085F
:1034C000FDC70208EE060220F0060220034690F82F
:1034D0007A0018B1586803681B68184770470000E5
:1034E000034B00225A609A60024A1A60704700BF7C
:1034F000DC8B0020F0DD02080121002208B508461F
:103500000DF03AFA0A4B186028B90A4B28210A4AEA
:103510000A4827F075FF0022042101200DF0F6FA79
:10352000074B186018B9074B2C21034AF0E708BD78
:10353000EC8B0020E8C8020831C9020860C9020803
:10354000E88B0020B1C90208024B4FF0FF31186828
:103550000DF06ABAEC8B0020014B18680DF0A0BA90
:10356000EC8B0020024B002118680DF05DBA00BF03
:10357000EC8B0020FFF7F0BF0023034803491A46F5
:1035800000680DF009BB00BFE88B00200800002098
:1035900013B50023074C01A91A4620680DF03EFB25
:1035A0004FF0FF33002201A920680DF037FB02B075
:1035B00010BD00BFE88B002003685B6C184701203A
:1035C000704703689B6A18470D4B82B01A6B42F430
:1035D00000021A631A6B02F400020192019A1A693E
:1035E00042F400021A611A6922F400021A61054BC2
:1035F000054A1A614FF08062044B9A6002B070472E
:1036000000380240DC090020FD38000800E100E03D
:1036100040F6EF7070470000054B4FF0806203608A
:10362000044BC3F88820BFF34F8FBFF36F8F7047F1
:1036300008DF020800E100E010B504464FF45A61CB
:10364000FFF7EAFF204627F091FE204610BD00005C
:1036500008B50A2809D8DFE800F006100E080808A7
:10366000081010101000022008BD054B8621054AE5
:10367000054827F0C5FE0020F6E70120F4E700BF6B
:10368000F3C902080ECA020859CA020870B58D7F34
:103690000C462846FFF7DCFFA68AE28A1A4B42EA6C
:1036A0000642216958635A64628BD963921B1A647B
:1036B0002668082E17D19A611A61E27F1AB140F08C
:1036C0007F4040F480305862104A237F42EA036210
:1036D0000D4BDA61E26822F07F421A620C4A5961AE
:1036E000D9601A6070BD0022D8611A61E26825B9FC
:1036F00092B29A63044B074AF3E7217F22F07F429C
:1037000042EA0162F5E700BF00B002400900010093
:10371000010202000102030008B50B280BD8DFE804
:1037200000F00612100A0A0A0A080808080802200F
:1037300008BD0520FCE7054B6521054A054827F033
:103740005FFE0020F4E70120F2E700BFF3C90208A2
:10375000A8CA020859CA02082DE9F04191F81D8053
:103760000D464046FFF7D8FFAF7F06463846FFF7C5
:10377000D3FF04463846FFF76BFFA98A6A8B574B85
:10378000521A1A649A612A8B521A1A61EA8A586389
:1037900042EA014269685A642A69DA63D960296891
:1037A000802932D016D8202978D0402900F08B808B
:1037B000042900F0888095F82010484B19B146F094
:1037C0007F4646F48036B845DE6100F083805A615A
:1037D000434A4FE0B1F5807F05D0B1F5007FEAD1D3
:1037E000287F404901E0287F3F4941EA0061D961D3
:1037F000E96821F07F411962E97F19B144F07F4403
:1038000044F480345C62354B59E0AF68E87F391D81
:10381000D962297F46EA016646F40036DE6118B1B6
:1038200044F07F4444F480345C622C483B7842612D
:1038300043B1012B21D02D4B4FF497712C4A2D48C9
:1038400027F0DEFDC3697A8823F47F43013A23F031
:10385000100343EA02230122C361204BD96941F0DE
:103860002001D961D9698906FCD410219960002A08
:10387000AED0214A1A60BDE8F081C369B1F1FF0200
:10388000798823F47F4318BF0122013923F0100304
:1038900043EA012343F01003C361DEE795F82010EB
:1038A00079B1297F46EA016141F48031D961E97F2C
:1038B0000A4B19B144F07F4444F480345C625A618D
:1038C000D7E7DE61F3E7297F46EA016141F4003181
:1038D000D96191E740F20122CCE700BF00B002407D
:1038E00001020100090002000A000200F2CA0208F7
:1038F0000CCB020859CA020801020200024B1B68E5
:10390000586803685B691847F406022070B50446DE
:103910000A4B0C30002625466022606026726672D3
:1039200045F8203B294610F01FFF04F55A63EE606E
:1039300024359D42FBD1204670BD00BF08DF020840
:10394000012070470C2070470C2303FB0100083056
:1039500070470C2303FB01000830704701207047BB
:1039600041F6D820704741F6D82303FB0100083008
:10397000704741F6D82303FB01000830704701204F
:1039800070471020704700EB01100830704700EBC3
:10399000011008307047084600F034BB034B10B5E7
:1039A000044603600FF047FA204610BDC0DF02084E
:1039B00010B50446FFF7F2FF1421204627F0D6FC8D
:1039C000204610BD034B10B5044603600FF033FAD8
:1039D000204610BD8CDF020810B50446FFF7F2FF49
:1039E0004FF4D751204627F0C1FC204610BD0000FF
:1039F000034B10B5044603600FF01DFA204610BDBE
:103A000058DF020810B50446FFF7F2FF18212046E0
:103A100027F0ACFC204610BD094B10B504460360EE
:103A200000F5D8500C30FFF7B9FF04F12C00FFF778
:103A3000C9FF04F11400FFF7DBFF204610BD00BFF3
:103A4000F4DF020808B50248FFF7E6FF08BD00BF33
:103A50009C9A002010B50446FFF7DEFF4FF4E451B6
:103A6000204627F083FC204610BD00002DE9F341DD
:103A700000F0F0F90024054600F0F0F92346014675
:103A80002246284600941AF00BF8264B264A204678
:103A9000264D1A6004F092F8254819F0B9FE2B68FB
:103AA000BFF35B8FDB0737D4284627F061FC98B360
:103AB000204C214B04F12C0804F11400236008F57C
:103AC000D7576060C4F8088007F11806E7602661E0
:103AD0000FF0B2F9194B404663610FF0ADF9184B86
:103AE0003846E3620FF0A8F904F58053154A04F54F
:103AF000D950C3F80C2B04F0F9F8224604F5D9513B
:103B0000304604F0E9F8304600F07CFA0E4827F021
:103B100095FC284627F038FC0C4802B0BDE8F0417F
:103B2000FFF70ABC580702206C8C0020989A0020EE
:103B30000C0000209C9A0020F4DF020858DF0208E5
:103B40008CDF0208C0DF0208453A0008F08B002035
:103B50007047000001480FF076BF00BFF08B0020D7
:103B600070B5224E224B234C3046234D2360FFF785
:103B7000CDFE28461EF090FA204B00224FF48071B3
:103B80001F481A8683F858205A6683F870205A67AF
:103B9000DC60C3E912121B49C3E91A121A4999677A
:103BA0001A490B604FF4F0710180194801804FF4FD
:103BB00088711848C3E90422C3E90622C3E9082230
:103BC000C3E90A22C3E90E22C3E91022C3E9142281
:103BD000C3E91722C3E9016501800F4883F8342047
:103BE00001800E490A700E4A1A6070BDF48C0020E4
:103BF00018DE0208949A0020708C0020F08B0020C0
:103C0000E80602200100000100000101F406022084
:103C1000EE060220EA060220F0060220EC06022050
:103C200030DE02080148FFF7F7BC00BFF48C00202B
:103C3000034B902283F85A2383F85823704700BF20
:103C400000E100E0094A0A49D3680A48C3F30A03BD
:103C5000013B9BB20B801169C1F30A01013901805C
:103C60001364536B43F001035363704700680140D2
:103C70001EB700201CB70020014BD3F8AC007047E2
:103C800000680140024B0122C3F8AC105A62704731
:103C900000680140124A5369DB0370B51ED500234A
:103CA000C2F88430BFF34F8FD2F8803043F6E0740F
:103CB000C3F3C900C3F34E335B0103EA04060146B4
:103CC00046EA81750139C2F87452F9D2203B13F1EA
:103CD000200FF2D1BFF34F8FBFF36F8F70BD00BFC6
:103CE00000ED00E070B504460FF099FE23685D6EAC
:103CF00016F05CF801462046A8472368054A20468E
:103D0000D3F888500023A2F5FF21AC46BDE87040EF
:103D1000604700BF00F40BC00FF068BE0FF072BE2A
:103D20000FF02EBE0FF09DBF034B4FF080629A60E4
:103D30004FF080729A60704700E100E0084B4FF04E
:103D40008062C3F88820BFF34F8FBFF36F8F4FF0AF
:103D50008072C3F88820BFF34F8FBFF36F8F704717
:103D600000E100E010B5144C236823B3134B144A50
:103D70001B6C11888B4213D1124B198807F0C8FDB8
:103D8000226892F86A30013382F86A30FFF7F4FB58
:103D9000206810F091FB0020BDE81040FFF7FCB94F
:103DA00007F0B6FD206803681B6A98470020BDE84D
:103DB0001040FFF721BA10BDF40602200068014050
:103DC0001EB700201CB70020704708B50B2937D854
:103DD000DFE801F0060A0E12161A1E22262A2E32DB
:103DE00003F038FF006808BD03F034FF4068FAE7CD
:103DF00003F030FF8068F6E703F02CFFC068F2E7BD
:103E000003F028FF0069EEE703F024FF4069EAE7CA
:103E100003F020FF8069E6E703F01CFFC069E2E7DA
:103E200003F018FF006ADEE703F014FF406ADAE7E8
:103E300003F010FF806AD6E703F00CFFC06AD2E7F8
:103E40000020D0E710B50446042127F08FFA204661
:103E500010BD00000048704784FC03081020704724
:103E600013B5002451B1036801AA01948DF80340F1
:103E70009C680DF10303A04702B010BD0846FBE7A4
:103E8000C0897047008A7047C08870478088704733
:103E9000807A00F07F007047807AC00970477047D1
:103EA00010B50446082127F061FA204610BD70477E
:103EB000704700F598730868496803C370477047F6
:103EC000704741607047704770470000064BC0F86C
:103ED0004801C0F84C310023C0F8503100F5A273FE
:103EE000C0F84031704700BFAD480008012303729D
:103EF0007047704710B441680346C2689B6854100D
:103F000001EB6200D20748BF0A595DF8044B48BF75
:103F1000D35818470346406830B19A681AB9D86830
:103F200000F0010070470120704710B504460C21D5
:103F300027F01CFA204610BD10B50446102127F0CA
:103F400015FA204610BD10B504464FF4AE7127F0A7
:103F50000DFA204610BD10B515F028FF0368BDE826
:103F60001040DB6B184710B50446D0F8400158B13B
:103F70000368DB68984738B1D4F8400103689B6850
:103F800098470023C4F8403110BD0000044B1B6863
:103F900093F858200AB1D86C00B99868704700BFF0
:103FA000F4060220F8B5044617460E4616F00EF841
:103FB000104B002501211C600F4B23600F4BC4E9FF
:103FC00051350F4B1868C4E953550368C4E94F5580
:103FD0009B68C4E955769847284603F0EFFDFFF744
:103FE000D5FF1FF0CCFBFFF7D1FF1FF047FC2046A9
:103FF000F8BD00BF48070220F4FD0308DCFD0308FC
:10400000F4060220064BC0F84801C0F84C310023EA
:10401000C0F8503100F5A273C0F84031704700BFBE
:10402000AD480008064BC0F84801C0F84C310023E9
:10403000C0F8503100F5A273C0F84031704700BF9E
:1040400061470008064BC0F84801C0F84C31002316
:10405000C0F8503100F5A273C0F84031704700BF7E
:1040600015460008064BC0F84801C0F84C31002343
:10407000C0F8503100F5A273C0F84031704700BF5E
:10408000CD440008064BC0F84801C0F84C3100236D
:10409000C0F8503100F5A273C0F84031704700BF3E
:1040A00081430008064BC0F84801C0F84C3100239A
:1040B000C0F8503100F5A273C0F84031704700BF1E
:1040C00039420008064BC0F84801C0F84C310023C3
:1040D000C0F8503100F5A273C0F84031704700BFFE
:1040E000ED40000803685B6A184700002DE9F14FB6
:1040F000D0E9556A0746B06803681B6A984741F2E1
:104100004F23984205D8444BA321444A444827F002
:1041100077F9706803681B6A98470F2803D8414BEA
:10412000A4213E4AF2E7F06803681B6A98470B280F
:1041300003D83D4BA521394AE8E7DFF8F49015F0A4
:1041400035FE043015F070FED9F8000010B1036898
:10415000DB689847D9F8000010B103681B689847DE
:10416000DFF8D080D8F8000010B103685B69984789
:10417000D7F83C0110B103685B689847D8F8000095
:1041800010B103681B689847D7F83C0110B1036869
:104190009B6898470021F068FFF7A4FF4FF0000BE1
:1041A000224B0446C0F804B0594680F808B00360BA
:1041B000B06803685B6A9847054604F07FFB706847
:1041C000594603685B6A98470646294604F01EFB79
:1041D000331DC7F83C612846C9F80040C8F80050B4
:1041E000CAF800302B68C6F808A0DB68EE63984771
:1041F000336830461B6898472146284617F098FBDD
:10420000236820461B699847236820465B6901B0F4
:10421000BDE8F04F184700BF4ACB0208D8CB0208D0
:10422000B2CC0208F9CC02089CCD020848FE030873
:104230003C070220380702202DE9F14FD0E9556AEA
:104240000746B06803681B6A9847B0F5167F05D229
:10425000434BA321434A444827F0D2F870680368CF
:104260001B6A98470F2803D8404BA4213D4AF2E728
:10427000F06803681B6A98470B2803D83C4BA521BC
:10428000384AE8E7DFF8F09015F090FD043015F0BB
:10429000CBFDD9F8000010B10368DB689847D9F866
:1042A000000010B103681B689847DFF8D080D8F889
:1042B000000010B103685B699847D7F83C0110B162
:1042C00003685B689847D8F8000010B103681B6862
:1042D0009847D7F83C0110B103689B6898470021C4
:1042E000F068FFF7FFFE4FF0000B224B0446C0F8CA
:1042F00004B0594680F808B00360B06803685B6A90
:104300009847054604F0CEF87068594603685B6A22
:1043100098470646294604F037F8331DC7F83C6134
:104320002846C9F80040C8F80050CAF800302B6889
:10433000C6F808A0DB68EE639847336830461B6810
:1043400098472146284617F0F3FA236820461B6950
:104350009847236820465B6901B0BDE8F04F1847D5
:104360004ACB02083FCE0208B2CC0208F9CC0208C0
:104370009CCD020848FE03083C07022038070220B3
:104380002DE9F14FD0E9556A0746B06803681B6A0A
:10439000984740F27B53984205D8444BA321444AA6
:1043A000444827F02DF8706803681B6A98470F2867
:1043B00003D8414BA4213E4AF2E7F06803681B6A28
:1043C00098470B2803D83D4BA521394AE8E7DFF889
:1043D000F49015F0EBFC043015F026FDD9F8000040
:1043E00010B10368DB689847D9F8000010B1036882
:1043F0001B689847DFF8D080D8F8000010B1036838
:104400005B699847D7F83C0110B103685B6898472F
:10441000D8F8000010B103681B689847D7F83C0132
:1044200010B103689B6898470021F068FFF75AFEB7
:104430004FF0000B224B0446C0F804B0594680F8F8
:1044400008B00360B06803685B6A9847054604F0EB
:10445000DFF87068594603685B6A98470646294644
:1044600004F040F8331DC7F83C612846C9F8004005
:10447000C8F80050CAF800302B68C6F808A0DB68FE
:10448000EE639847336830461B68984721462846B4
:1044900017F04EFA236820461B6998472368204688
:1044A0005B6901B0BDE8F04F184700BF4ACB020876
:1044B0001BCF0208B2CC0208F9CC02089CCD02083E
:1044C00048FE03083C070220380702202DE9F14F7F
:1044D000D0E9556A0746B06803681B6A9847B0F58B
:1044E000047F05D2434BA321434A444826F088FF6A
:1044F000706803681B6A98470F2803D8404BA421B3
:104500003D4AF2E7F06803681B6A98470B2803D816
:104510003C4BA521384AE8E7DFF8F09015F046FC5F
:10452000043015F081FCD9F8000010B10368DB6895
:104530009847D9F8000010B103681B689847DFF866
:10454000D080D8F8000010B103685B699847D7F8AD
:104550003C0110B103685B689847D8F8000010B1BF
:1045600003681B689847D7F83C0110B103689B6843
:1045700098470021F068FFF7B5FD4FF0000B224B84
:104580000446C0F804B0594680F808B00360B0682B
:1045900003685B6A9847054603F0D6FE7068594683
:1045A00003685B6A98470646294603F04BFE331DB5
:1045B000C7F83C612846C9F80040C8F80050CAF85E
:1045C00000302B68C6F808A0DB68EE6398473368B4
:1045D00030461B6898472146284617F0A9F92368FA
:1045E00020461B699847236820465B6901B0BDE8F7
:1045F000F04F18474ACB0208F7CF0208B2CC0208A6
:10460000F9CC02089CCD020848FE03083C070220B2
:10461000380702202DE9F14FD0E9556A0746B06806
:1046200003681B6A984740F29B43984205D8444B65
:10463000A321444A444826F0E3FE706803681B6ADD
:1046400098470F2803D8414BA4213E4AF2E7F0686F
:1046500003681B6A98470B2803D83D4BA521394AAC
:10466000E8E7DFF8F49015F0A1FB043015F0DCFB6F
:10467000D9F8000010B10368DB689847D9F800004A
:1046800010B103681B689847DFF8D080D8F80000A5
:1046900010B103685B699847D7F83C0110B1036813
:1046A0005B689847D8F8000010B103681B6898470A
:1046B000D7F83C0110B103689B6898470021F06867
:1046C000FFF710FD4FF0000B224B0446C0F804B07A
:1046D000594680F808B00360B06803685B6A984781
:1046E000054603F061FC7068594603685B6A9847A9
:1046F0000646294603F0B2FB331DC7F83C61284645
:10470000C9F80040C8F80050CAF800302B68C6F855
:1047100008A0DB68EE639847336830461B6898470B
:104720002146284617F004F9236820461B6998475C
:10473000236820465B6901B0BDE8F04F184700BF11
:104740004ACB0208CBD00208B2CC0208F9CC02084E
:104750009CCD020848FE03083C07022038070220CF
:104760002DE9F14FD0E9556A0746B06803681B6A26
:10477000984741F6D723984205D8444BA321444A91
:10478000444826F03DFE706803681B6A98470F286E
:1047900003D8414BA4213E4AF2E7F06803681B6A44
:1047A00098470B2803D83D4BA521394AE8E7DFF8A5
:1047B000F49015F0FBFA043015F036FBD9F8000040
:1047C00010B10368DB689847D9F8000010B103689E
:1047D0001B689847DFF8D080D8F8000010B1036854
:1047E0005B699847D7F83C0110B103685B6898474C
:1047F000D8F8000010B103681B689847D7F83C014F
:1048000010B103689B6898470021F068FFF76AFCC5
:104810004FF0000B224B0446C0F804B0594680F814
:1048200008B00360B06803685B6A9847054603F008
:10483000AFFC7068594603685B6A9847064629468C
:1048400003F03EFC331DC7F83C612846C9F8004020
:10485000C8F80050CAF800302B68C6F808A0DB681A
:10486000EE639847336830461B68984721462846D0
:1048700017F05EF8236820461B6998472368204696
:104880005B6901B0BDE8F04F184700BF4ACB020892
:10489000BBD10208B2CC0208F9CC02089CCD0208B8
:1048A00048FE03083C070220380702202DE9F14F9B
:1048B000D0E9556A0746B06803681B6A9847B0F5A7
:1048C000607F05D2434BA321434A444826F098FD1C
:1048D000706803681B6A98470F2803D8404BA421CF
:1048E0003D4AF2E7F06803681B6A98470B2803D833
:1048F0003C4BA521384AE8E7DFF8F09015F056FA6E
:10490000043015F091FAD9F8000010B10368DB68A3
:104910009847D9F8000010B103681B689847DFF882
:10492000D080D8F8000010B103685B699847D7F8C9
:104930003C0110B103685B689847D8F8000010B1DB
:1049400003681B689847D7F83C0110B103689B685F
:1049500098470021F068FFF7C5FB4FF0000B224B92
:104960000446C0F804B0594680F808B00360B06847
:1049700003685B6A9847054603F02AFA706859464F
:1049800003685B6A98470646294603F0C1F9331D60
:10499000C7F83C612846C9F80040C8F80050CAF87A
:1049A00000302B68C6F808A0DB68EE6398473368D0
:1049B00030461B6898472146284616F0B9FF236801
:1049C00020461B699847236820465B6901B0BDE813
:1049D000F04F18474ACB0208A5D20208B2CC020811
:1049E000F9CC02089CCD020848FE03083C070220CF
:1049F00038070220406A7047806A704770478B888A
:104A0000C069DB0A0A6850F823001044704710B5EB
:104A10000446BAB1107B68B1537BD27A1B0203F40F
:104A2000E0631A43236A03EB82031A888A4202D1A5
:104A300093F9020010BD05D80138043380B2002874
:104A4000F3D1F7E70020F5E710B504462C2126F056
:104A50008DFC204610BD000030B58BB00446BDF87B
:104A600060500895BDF85C5007959DF8505006952C
:104A70009DF84C5005959DF8485004959DF844507C
:104A800003959DF8405002959DF83C500195BDF866
:104A90003850009516F0D8FA064B20462360159B37
:104AA000E361169B2362199B63621A9BA3620BB09E
:104AB00030BD00BF6CFE0308002070478180704746
:104AC000C1807047018170474181704770477047CE
:104AD00070477047704710B4C4880368121B8488FD
:104AE0005B6D091B12B25DF8044B09B218474FF613
:104AF000FF7383814FF0FF3303621368C36110605B
:104B000070477047704770477047704730B585B041
:104B10000368044601816D460146D3F884303C3475
:104B20002846984795E8070084E8070005B030BD9F
:104B300030B585B00368044641816D460146D3F81F
:104B400084303C342846984795E8070084E80700FD
:104B500005B030BD0022028042808280C280704752
:104B600080F836107047036870B504461B6B154615
:104B700098472368204629465B6EBDE87040184779
:104B800000207047806C70477047704770477047CF
:104B900070470368DB6A1847036810B504469B6BCF
:104BA0009847236820461B6CBDE8104018470368EF
:104BB000DB6B184710B504464C2126F0D7FB204686
:104BC00010BD10B504464FF45C7126F0CFFB2046B3
:104BD00010BD08B515F0EAF8BDE80840FFF742BA85
:104BE00008B515F0E3F8BDE80840FFF71BBA90F8E8
:104BF000252012B103685B691847704708B5FFF7B5
:104C0000F6FF08BD90F825201AB190F8242002B1D3
:104C100018607047036870B55E6B0446114B8DB227
:104C20001B682BB9104B6C21104A114826F0E8FB89
:104C30001049828D0988914203D80F4B6D210B4A90
:104C4000F3E713F812200D4B1B6853F8220003689A
:104C50001B6B9847291A3346204609B2BDE87040BD
:104C6000184700BF4C07022079D30208BBD30208C3
:104C7000F6D30208500702203DD402085407022050
:104C800000224FF0FF318260C0E9002170470368C5
:104C900070B504461B6B1546984723682046294685
:104CA0005B6BBDE87040184770B504461D46BDF902
:104CB0001060FFF7ECFF2368294620469B6B98475E
:104CC000236831462046DB6BBDE870401847000082
:104CD0000022C0E90122C0E90322C0E90522C0E99F
:104CE00007224FF480728284014A0260704700BF3D
:104CF000CCFE030838B504460D462622002126F0D6
:104D0000D9FE2046FFF7E4FF064B204629462360E4
:104D10002B88E384FF2384F8283012F0AFF8204674
:104D200038BD00BFDC1A040810B504462622002155
:104D300026F0C0FE2046FFF7CBFF0A4B4FF47F0260
:104D400020462360084BA3624FF6FF73A385002320
:104D5000C4E90C324FF0FF322387E363C4E9102328
:104D600010BD00BF08190408CCFD03082DE9F04F61
:104D700004468FB0002616F02FFC2546D34B262282
:104D80003146E66304F16C0945F8403B284626F0BD
:104D900091FE2846FFF79CFFCD4B4FF6FF7704F1BD
:104DA000980A2364FF230CA9484684F8663004F56A
:104DB0001E78A666ADF83070FFF79CFF5046DFF80E
:104DC0003CB3FFF7B1FFC34B0CA9C4F8E060C4F8D3
:104DD000983004F1E403ADF83070271D18460793AE
:104DE000FFF788FF04F5887318460293FFF79CFFCE
:104DF00004F5AC7318460393FFF796FF04F5D073E0
:104E000018460493FFF790FF04F5F47318460593D2
:104E1000FFF78AFF04F50C7318460693FFF784FF2B
:104E200040460EF0D9F84FF4F0733246284631462A
:104E300000934FF48873FFF737FF4FF07F43294605
:104E40003846A36608AD0EF001FB324648463146AF
:104E5000FFF71DFF012348460CA9ADF8303012F0D2
:104E60000DF8494638460EF0F1FA0F237C227F21D7
:104E700050460093282304F55779FFF715FFD4F81F
:104E8000983051462846D3F88430C4F8C8B0A4F806
:104E9000CC60984704F1D40395E8070083E8070045
:104EA0008D4B1B682BB98D4B60218D4A8D4826F0A8
:104EB000A7FA8D4B1B881E2B03D88C4B6121884A87
:104EC000F4E78B4B1E21186802F0B4FE894A0346B2
:104ED0000A21484618F08EFC1F23C4F8E0900CA964
:104EE000DFF81C925046ADF83430CDF8309011F018
:104EF00099FD514638460EF0A9FA4FF00B0A32469A
:104F000031460798FFF7C3FE0CA90798ADF830A00B
:104F100011F0B4FF079938460EF098FA0C237B2263
:104F20000298009341213E23FFF7BEFE02992846D6
:104F3000C4F840B1A4F8446111F0DAFA04F5A6739C
:104F400095E8070083E8070015230CA90298ADF83F
:104F50003430CDF8309011F065FD029938460EF0EE
:104F600075FA502203989E21FFF791FE0399284677
:104F7000C4F888B1A4F88C6111F0BAFA04F5CA73C8
:104F800095E8070083E8070003230CA90398ADF810
:104F90003430CDF8309011F045FD039938460EF0CD
:104FA00055FA50220498FD21FFF771FE0499284616
:104FB000C4F8D0B1A4F8D46111F09AFA04F5EE73F4
:104FC00095E8070083E8070002230CA90498ADF8D0
:104FD0003430CDF8309011F025FD049938460EF0AC
:104FE00035FA0C237C2205980093A7213E23FFF776
:104FF0005BFE05992846C4F818B2A4F81C6211F0AB
:1050000077FA04F5097395E8070083E8070014238D
:105010000CA90598ADF83430CDF8309011F002FDB0
:10502000059938460EF012FA0D2361220698009376
:105030000A219023FFF738FE06992846C4F860B28B
:10504000A4F8646211F054FA04F51B7395E80700A4
:1050500083E807000CA90698CDF83090ADF834A08D
:1050600011F0E0FC069938460EF0F0F94046642253
:10507000A121FFF70CFE0A23324631464046009339
:1050800064230DF002FF334642F2E81231464046F7
:1050900000960EF019F8314640460DF0F4FF0CA9C9
:1050A0004046ADF830600EF063F9404612490DF00D
:1050B000D6FE404642F2E8110DF0FFFE384641466A
:1050C0000EF0C4F920460FB0BDE8F08FC4FF03080E
:1050D0009819040834FF03084C07022079D302080A
:1050E0007BD40208F6D30208500702203DD4020800
:1050F00058070220C6D402087672FFFFDDCFC1FF39
:10510000CCFD030870477047704770470368DB6A3F
:10511000184703685B6B1847036810B504469B6B20
:10512000984723682046DB6BBDE81040184710B550
:10513000044640F24C4126F019F9204610BD08B54E
:1051400014F034FEBDE80840FEF76CBF10B504460D
:105150002622002126F0AEFC2046FFF7B9FD044BC5
:1051600020462360FF2384F826300023A36210BD6D
:105170009819040810B50446FFF7E8FF034B2046D2
:1051800023600023E362238610BD00BF741A040865
:105190002DE9F04F04469BB0002616F01DFA274675
:1051A000DE4BE6634FF6FF7547F8403B3846FFF7A6
:1051B000CDFF04F16C0304F2044B4FF07F49184615
:1051C0000493FFF7D7FF04F1A0034FF0500A4FF00C
:1051D000010818460593FFF7CDFF04F1D4031846E4
:1051E0000693FFF7C7FF04F5847318460793FFF78C
:1051F000C1FF04F59E7318A9ADF8605018460293DC
:10520000FFF778FD04F5B47318A9ADF8605018469F
:105210000393FFF76FFD04F5CA7318460893FFF771
:10522000A9FF04F5E47318460993FFF7A3FF04F5FB
:10523000FE7318460A93FFF79DFF04F50C7318469A
:105240000B93FFF797FF04F5197318460C93FFF7BC
:1052500091FF04F5267318460D93FFF78BFF04F5B5
:10526000337318460E93FFF785FF04F54073184615
:105270000F93FFF77FFF04F54D7318461093FFF768
:1052800079FF04F55A7318461193FFF773FF04F57D
:10529000677318461293FFF76DFF04F57473184691
:1052A0001393FFF767FF31462622584626F002FC8B
:1052B0005846FFF70DFD9A4BA4F83054251DC4F84D
:1052C00004343246974B3146C4F834643846C4F847
:1052D0002C344FF47F03A4F83C64C4F838344FF006
:1052E000FF33C4F84064C4F844344FF4F073C4F896
:1052F000486400934FF48873FFF7D6FC394628467C
:10530000894FC4F868900EF0A1F84423A0220498B5
:105310008821CDF800A0FFF7C7FC04992846A4F81F
:105320009C80C4E925790EF091F84423A0220598C9
:105330001946CDF800A0FFF7B7FC05992846A4F858
:10534000D080C4E932790EF081F84423A022069877
:10535000CC21CDF800A0FFF7A7FC06992846A4F8B9
:105360000481C4E93F790EF071F84423A02231464C
:105370000798CDF800A0FFF797FC07992846A4F8F6
:105380003881C4E94C790EF061F832463146029812
:10539000FFF77DFC18A90298ADF8608011F06EFD52
:1053A000029928460EF052F8324631460398FFF72C
:1053B0006EFC0B2318A90398ADF8603011F05EFD68
:1053C000039928460EF042F84423F02208988821D9
:1053D000CDF800A0FFF768FC08992846A4F8C4811E
:1053E000C4E96F790EF032F84423F0220998194687
:1053F000CDF800A0FFF758FC09992846A4F8F881D9
:10540000C4E97C790EF022F84423F0220A98CC21DA
:10541000CDF800A0FFF748FC0A992846A4F82C8292
:10542000C4E989790EF012F84423F02231460B9832
:10543000CDF800A0FFF738FC0B992846A4F860824D
:10544000C4E996790EF002F844234FF4C87231464D
:105450000C98CDF800A0FFF727FC0C992846A4F87B
:105460009482C4E9A3790DF0F1FF44234FF4C8728C
:105470000D98CC21CDF800A0FFF716FC0D99284619
:10548000A4F8C882C4E9B0790DF0E0FF44234FF4DA
:10549000C8720E981946CDF800A0FFF705FC0E99CA
:1054A0002846A4F8FC82C4E9BD790DF0CFFF44235F
:1054B0004FF4C8720F988821CDF800A0FFF7F4FBD5
:1054C0000F992846A4F83083C4E9CA790DF0BEFFCD
:1054D00044234FF4A07231461098CDF800A0FFF796
:1054E000E3FB10992846A4F86483C4E9D7790DF04A
:1054F000ADFF44234FF4A0721198CC21CDF800A049
:10550000FFF7D2FB11992846A4F89883C4E9E479FF
:105510000DF09CFF44234FF4A07207E01000040834
:1055200008190408CCFD0308ECDFD8FF12981946CF
:10553000CDF800A0FFF7B8FB12992846A4F8CC8359
:10554000C4E9F1790DF082FF44234FF4A07213985F
:105550008821CDF800A0FFF7A7FB13992846A4F8EF
:105560000084C4E9FE790DF071FF0F2368225846CC
:10557000009341218B23FFF797FBA4F838640DEBD0
:105580000A065946C4F83474304610F0B1FF04F5E9
:10559000886396E8070083E80700084B18A9584677
:1055A00018930D23ADF8643011F03CFA28465946A3
:1055B0000DF04CFF20461BB0BDE8F08FCCFD03087A
:1055C000806A7047002070478B8883800120704775
:1055D000704780F82C10704710B40368046BD3F840
:1055E000A430624361435DF8044B1847D0ED0C7A58
:1055F0000368F8EEE77A10B420EE270AD3F8A44047
:10560000B5EEC00AF1EE10FA1ADBB6EE007A30EE13
:10561000070ABDEEC07A17EE101A60EEA70AF5EE83
:10562000C00AF1EE10FA1EDBF6EE007A70EEA70A61
:10563000FDEEE07A17EE902A23465DF8044B1847FA
:10564000BDEEC07AF8EEC76A17EE103A013B30EEB5
:10565000660AF7EE086A30EE260ABDEEC00A10EEC2
:10566000101A1944D9E7FDEEE07AB8EEE77A17EEA2
:10567000903A013B70EEC70AB7EE087A70EE870ADF
:10568000FDEEE00A10EE902A1A44D5E710B4036844
:10569000046BD3F8B03062435DF8044B1847D0ED8B
:1056A0000C7A0368F8EEE77A10B427EE800AD3F894
:1056B000B040B5EEC00AF1EE10FA0BDBF6EE007A60
:1056C00030EE270AFDEEC07A17EE902A23465DF8E9
:1056D000044B1847FDEEC07AB8EEE77A17EE903A21
:1056E000013B30EE470AB7EE087A30EE070ABDEE0E
:1056F000C00A10EE102A1A44E8E710B40368446B9D
:10570000D3F8BC30624361435DF8044B1847D0EDD9
:105710000D7A0368F8EEE77A10B420EE270AD3F882
:10572000BC40B5EEC00AF1EE10FA1ADBB6EE007A14
:1057300030EE070ABDEEC07A17EE101A60EEA70A27
:10574000F5EEC00AF1EE10FA1EDBF6EE007A70EE0E
:10575000A70AFDEEE07A17EE902A23465DF8044B87
:105760001847BDEEC07AF8EEC76A17EE103A013B53
:1057700030EE660AF7EE086A30EE260ABDEEC00A81
:1057800010EE101A1944D9E7FDEEE07AB8EEE77A88
:1057900017EE903A013B70EEC70AB7EE087A70EE4A
:1057A000870AFDEEE00A10EE902A1A44D5E710B4FD
:1057B0000368446BD3F8C03062435DF8044B18476C
:1057C000D0ED0D7A0368F8EEE77A10B427EE800A80
:1057D000D3F8C040B5EEC00AF1EE10FA0BDBF6EEDE
:1057E000007A30EE270AFDEEC07A17EE902A2346A3
:1057F0005DF8044B1847FDEEC07AB8EEE77A17EE75
:10580000903A013B30EE470AB7EE087A30EE070ACD
:10581000BDEEC00A10EE102A1A44E8E7D0F82C3189
:10582000026B002B07DB02EB430090FBF2F000EB76
:10583000D070401070476FF0010101FB0320013868
:1058400090FBF2F000EBD070401040427047D0ED7A
:105850004B7A90ED0C0AF8EEE77AB8EEC00A87EEC4
:10586000800A7047D0F82C017047D0F83031026BB5
:10587000002B07DB02EB430090FBF2F000EBD07053
:10588000401070476FF0010101FB0320013890FBCD
:10589000F2F000EBD070401040427047D0ED4C7AEF
:1058A00090ED0C0AF8EEE77AB8EEC00A87EE800AAF
:1058B0007047D0F830017047D0F83431426B002B7C
:1058C00007DB02EB430090FBF2F000EBD0704010DE
:1058D00070476FF0010101FB0320013890FBF2F0EB
:1058E00000EBD070401040427047D0ED4D7A90ED03
:1058F0000D0AF8EEE77AB8EEC00A87EE800A704724
:10590000D0F834017047D0F83831426B002B07DBF8
:1059100002EB430090FBF2F000EBD07040107047B8
:105920006FF0010101FB0320013890FBF2F000EB66
:10593000D070401040427047D0ED4E7A90ED0D0A85
:10594000F8EEE77AB8EEC00A87EE800A7047D0F822
:1059500038017047036870B50446D3F888300D46A7
:10596000164698472368324629462046D3F8903099
:10597000BDE8704018470368D3F8943018470368AF
:10598000D3F8D43018470368D3F8E03018470368D9
:10599000002A10B4D3F8A430046B0EDB04EB4202EF
:1059A00092FBF4F101EBD1714910B0F91E215DF8C1
:1059B000044B013A0A44494218476FF0010101FBC8
:1059C0000241013991FBF4F101EBD17149104942D7
:1059D000EBE70368D3F83C311847026B0368514387
:1059E000D3F8483118470368D3F844311847D0ED4D
:1059F0000C7A0368F8EEE77AD3F8482127EE800A9C
:105A0000B5EEC00AF1EE10FA08DBF6EE007A30EEE1
:105A1000270AFDEEC07A17EE901A1047FDEEC07A05
:105A2000B8EEE77A17EE903A013B30EE470AB7EE50
:105A3000087A30EE070ABDEEC00A10EE101A1944BB
:105A4000EBE7C0F83C1170470368D3F850311847B2
:105A5000036810B5D3F85C31044698470028236BDF
:105A600007DB03EB400090FBF3F000EBD07040103D
:105A700010BD6FF0010202FB0030013890FBF3F023
:105A800000EBD07040104042F2E70368D3F8583181
:105A90001847036810B50446D3F85C31984707EE01
:105AA000900A94ED0C0AF8EEE77AB8EEC00A87EE99
:105AB000800A10BDD0F83C017047026B0368514367
:105AC000D3F868311847D0ED0C7A0368F8EEE77A1E
:105AD000D3F8682127EE800AB5EEC00AF1EE10FA7D
